
dep_rob.elf:     file format elf32-littlearm

Sections:
Idx Name          Size      VMA       LMA       File off  Algn
  0 .isr_vector   00000188  08000000  08000000  00010000  2**0
                  CONTENTS, ALLOC, LOAD, READONLY, DATA
  1 .text         00005484  08000190  08000190  00010190  2**4
                  CONTENTS, ALLOC, LOAD, READONLY, CODE
  2 .rodata       000000e4  08005614  08005614  00015614  2**2
                  CONTENTS, ALLOC, LOAD, READONLY, DATA
  3 .ARM.extab    00000000  080056f8  080056f8  00020078  2**0
                  CONTENTS
  4 .ARM          00000000  080056f8  080056f8  00020078  2**0
                  CONTENTS
  5 .preinit_array 00000000  080056f8  080056f8  00020078  2**0
                  CONTENTS, ALLOC, LOAD, DATA
  6 .init_array   00000004  080056f8  080056f8  000156f8  2**2
                  CONTENTS, ALLOC, LOAD, DATA
  7 .fini_array   00000004  080056fc  080056fc  000156fc  2**2
                  CONTENTS, ALLOC, LOAD, DATA
  8 .data         00000078  20000000  08005700  00020000  2**2
                  CONTENTS, ALLOC, LOAD, DATA
  9 .bss          000002e4  20000078  08005778  00020078  2**2
                  ALLOC
 10 ._user_heap_stack 00000604  2000035c  08005778  0002035c  2**0
                  ALLOC
 11 .ARM.attributes 00000030  00000000  00000000  00020078  2**0
                  CONTENTS, READONLY
 12 .debug_info   0001005b  00000000  00000000  000200a8  2**0
                  CONTENTS, READONLY, DEBUGGING
 13 .debug_abbrev 00001cc5  00000000  00000000  00030103  2**0
                  CONTENTS, READONLY, DEBUGGING
 14 .debug_aranges 00000ce0  00000000  00000000  00031dc8  2**3
                  CONTENTS, READONLY, DEBUGGING
 15 .debug_ranges 00000c28  00000000  00000000  00032aa8  2**3
                  CONTENTS, READONLY, DEBUGGING
 16 .debug_macro  0001e12b  00000000  00000000  000336d0  2**0
                  CONTENTS, READONLY, DEBUGGING
 17 .debug_line   0000c078  00000000  00000000  000517fb  2**0
                  CONTENTS, READONLY, DEBUGGING
 18 .debug_str    000b7b51  00000000  00000000  0005d873  2**0
                  CONTENTS, READONLY, DEBUGGING
 19 .comment      0000007b  00000000  00000000  001153c4  2**0
                  CONTENTS, READONLY
 20 .debug_frame  00003954  00000000  00000000  00115440  2**2
                  CONTENTS, READONLY, DEBUGGING

Disassembly of section .text:

08000190 <__do_global_dtors_aux>:
 8000190:	b510      	push	{r4, lr}
 8000192:	4c05      	ldr	r4, [pc, #20]	; (80001a8 <__do_global_dtors_aux+0x18>)
 8000194:	7823      	ldrb	r3, [r4, #0]
 8000196:	b933      	cbnz	r3, 80001a6 <__do_global_dtors_aux+0x16>
 8000198:	4b04      	ldr	r3, [pc, #16]	; (80001ac <__do_global_dtors_aux+0x1c>)
 800019a:	b113      	cbz	r3, 80001a2 <__do_global_dtors_aux+0x12>
 800019c:	4804      	ldr	r0, [pc, #16]	; (80001b0 <__do_global_dtors_aux+0x20>)
 800019e:	f3af 8000 	nop.w
 80001a2:	2301      	movs	r3, #1
 80001a4:	7023      	strb	r3, [r4, #0]
 80001a6:	bd10      	pop	{r4, pc}
 80001a8:	20000078 	.word	0x20000078
 80001ac:	00000000 	.word	0x00000000
 80001b0:	080055fc 	.word	0x080055fc

080001b4 <frame_dummy>:
 80001b4:	b508      	push	{r3, lr}
 80001b6:	4b03      	ldr	r3, [pc, #12]	; (80001c4 <frame_dummy+0x10>)
 80001b8:	b11b      	cbz	r3, 80001c2 <frame_dummy+0xe>
 80001ba:	4903      	ldr	r1, [pc, #12]	; (80001c8 <frame_dummy+0x14>)
 80001bc:	4803      	ldr	r0, [pc, #12]	; (80001cc <frame_dummy+0x18>)
 80001be:	f3af 8000 	nop.w
 80001c2:	bd08      	pop	{r3, pc}
 80001c4:	00000000 	.word	0x00000000
 80001c8:	2000007c 	.word	0x2000007c
 80001cc:	080055fc 	.word	0x080055fc

080001d0 <strlen>:
 80001d0:	4603      	mov	r3, r0
 80001d2:	f813 2b01 	ldrb.w	r2, [r3], #1
 80001d6:	2a00      	cmp	r2, #0
 80001d8:	d1fb      	bne.n	80001d2 <strlen+0x2>
 80001da:	1a18      	subs	r0, r3, r0
 80001dc:	3801      	subs	r0, #1
 80001de:	4770      	bx	lr

080001e0 <memchr>:
 80001e0:	f001 01ff 	and.w	r1, r1, #255	; 0xff
 80001e4:	2a10      	cmp	r2, #16
 80001e6:	db2b      	blt.n	8000240 <memchr+0x60>
 80001e8:	f010 0f07 	tst.w	r0, #7
 80001ec:	d008      	beq.n	8000200 <memchr+0x20>
 80001ee:	f810 3b01 	ldrb.w	r3, [r0], #1
 80001f2:	3a01      	subs	r2, #1
 80001f4:	428b      	cmp	r3, r1
 80001f6:	d02d      	beq.n	8000254 <memchr+0x74>
 80001f8:	f010 0f07 	tst.w	r0, #7
 80001fc:	b342      	cbz	r2, 8000250 <memchr+0x70>
 80001fe:	d1f6      	bne.n	80001ee <memchr+0xe>
 8000200:	b4f0      	push	{r4, r5, r6, r7}
 8000202:	ea41 2101 	orr.w	r1, r1, r1, lsl #8
 8000206:	ea41 4101 	orr.w	r1, r1, r1, lsl #16
 800020a:	f022 0407 	bic.w	r4, r2, #7
 800020e:	f07f 0700 	mvns.w	r7, #0
 8000212:	2300      	movs	r3, #0
 8000214:	e8f0 5602 	ldrd	r5, r6, [r0], #8
 8000218:	3c08      	subs	r4, #8
 800021a:	ea85 0501 	eor.w	r5, r5, r1
 800021e:	ea86 0601 	eor.w	r6, r6, r1
 8000222:	fa85 f547 	uadd8	r5, r5, r7
 8000226:	faa3 f587 	sel	r5, r3, r7
 800022a:	fa86 f647 	uadd8	r6, r6, r7
 800022e:	faa5 f687 	sel	r6, r5, r7
 8000232:	b98e      	cbnz	r6, 8000258 <memchr+0x78>
 8000234:	d1ee      	bne.n	8000214 <memchr+0x34>
 8000236:	bcf0      	pop	{r4, r5, r6, r7}
 8000238:	f001 01ff 	and.w	r1, r1, #255	; 0xff
 800023c:	f002 0207 	and.w	r2, r2, #7
 8000240:	b132      	cbz	r2, 8000250 <memchr+0x70>
 8000242:	f810 3b01 	ldrb.w	r3, [r0], #1
 8000246:	3a01      	subs	r2, #1
 8000248:	ea83 0301 	eor.w	r3, r3, r1
 800024c:	b113      	cbz	r3, 8000254 <memchr+0x74>
 800024e:	d1f8      	bne.n	8000242 <memchr+0x62>
 8000250:	2000      	movs	r0, #0
 8000252:	4770      	bx	lr
 8000254:	3801      	subs	r0, #1
 8000256:	4770      	bx	lr
 8000258:	2d00      	cmp	r5, #0
 800025a:	bf06      	itte	eq
 800025c:	4635      	moveq	r5, r6
 800025e:	3803      	subeq	r0, #3
 8000260:	3807      	subne	r0, #7
 8000262:	f015 0f01 	tst.w	r5, #1
 8000266:	d107      	bne.n	8000278 <memchr+0x98>
 8000268:	3001      	adds	r0, #1
 800026a:	f415 7f80 	tst.w	r5, #256	; 0x100
 800026e:	bf02      	ittt	eq
 8000270:	3001      	addeq	r0, #1
 8000272:	f415 3fc0 	tsteq.w	r5, #98304	; 0x18000
 8000276:	3001      	addeq	r0, #1
 8000278:	bcf0      	pop	{r4, r5, r6, r7}
 800027a:	3801      	subs	r0, #1
 800027c:	4770      	bx	lr
 800027e:	bf00      	nop

08000280 <avancer>:
uint16_t initial = 0;
uint16_t maintenant = 0;
char stop[] = "stop\r";

void avancer(void)
{
 8000280:	b590      	push	{r4, r7, lr}
 8000282:	b085      	sub	sp, #20
 8000284:	af00      	add	r7, sp, #0
	char Test[] = "mogo 1:10 2:10\r";
 8000286:	4b0a      	ldr	r3, [pc, #40]	; (80002b0 <avancer+0x30>)
 8000288:	463c      	mov	r4, r7
 800028a:	cb0f      	ldmia	r3, {r0, r1, r2, r3}
 800028c:	e884 000f 	stmia.w	r4, {r0, r1, r2, r3}
	//HAL_UART_Transmit(&huart5,(uint8_t *)Test,strlen(Test),50);
	HAL_UART_Transmit(&huart4,(uint8_t *)Test,strlen(Test),50);
 8000290:	463b      	mov	r3, r7
 8000292:	4618      	mov	r0, r3
 8000294:	f7ff ff9c 	bl	80001d0 <strlen>
 8000298:	4603      	mov	r3, r0
 800029a:	b29a      	uxth	r2, r3
 800029c:	4639      	mov	r1, r7
 800029e:	2332      	movs	r3, #50	; 0x32
 80002a0:	4804      	ldr	r0, [pc, #16]	; (80002b4 <avancer+0x34>)
 80002a2:	f004 f88b 	bl	80043bc <HAL_UART_Transmit>
	/*HAL_Delay(500);*/
}
 80002a6:	bf00      	nop
 80002a8:	3714      	adds	r7, #20
 80002aa:	46bd      	mov	sp, r7
 80002ac:	bd90      	pop	{r4, r7, pc}
 80002ae:	bf00      	nop
 80002b0:	08005614 	.word	0x08005614
 80002b4:	2000027c 	.word	0x2000027c

080002b8 <reculer>:

void reculer(void)
{
 80002b8:	b5b0      	push	{r4, r5, r7, lr}
 80002ba:	b086      	sub	sp, #24
 80002bc:	af00      	add	r7, sp, #0
	char Test[] = "mogo 1:-10 2:-10\r";
 80002be:	4b0b      	ldr	r3, [pc, #44]	; (80002ec <reculer+0x34>)
 80002c0:	1d3c      	adds	r4, r7, #4
 80002c2:	461d      	mov	r5, r3
 80002c4:	cd0f      	ldmia	r5!, {r0, r1, r2, r3}
 80002c6:	c40f      	stmia	r4!, {r0, r1, r2, r3}
 80002c8:	682b      	ldr	r3, [r5, #0]
 80002ca:	8023      	strh	r3, [r4, #0]
	//HAL_UART_Transmit(&huart5,(uint8_t *)Test,strlen(Test),50);
	HAL_UART_Transmit(&huart4,(uint8_t *)Test,strlen(Test),50);
 80002cc:	1d3b      	adds	r3, r7, #4
 80002ce:	4618      	mov	r0, r3
 80002d0:	f7ff ff7e 	bl	80001d0 <strlen>
 80002d4:	4603      	mov	r3, r0
 80002d6:	b29a      	uxth	r2, r3
 80002d8:	1d39      	adds	r1, r7, #4
 80002da:	2332      	movs	r3, #50	; 0x32
 80002dc:	4804      	ldr	r0, [pc, #16]	; (80002f0 <reculer+0x38>)
 80002de:	f004 f86d 	bl	80043bc <HAL_UART_Transmit>
	/*HAL_Delay(500);*/
}
 80002e2:	bf00      	nop
 80002e4:	3718      	adds	r7, #24
 80002e6:	46bd      	mov	sp, r7
 80002e8:	bdb0      	pop	{r4, r5, r7, pc}
 80002ea:	bf00      	nop
 80002ec:	08005624 	.word	0x08005624
 80002f0:	2000027c 	.word	0x2000027c

080002f4 <gauche>:

void gauche(void)
{
 80002f4:	b5b0      	push	{r4, r5, r7, lr}
 80002f6:	b086      	sub	sp, #24
 80002f8:	af00      	add	r7, sp, #0
	char Test[] = "mogo 1:10 2:-10\r";
 80002fa:	4b0b      	ldr	r3, [pc, #44]	; (8000328 <gauche+0x34>)
 80002fc:	1d3c      	adds	r4, r7, #4
 80002fe:	461d      	mov	r5, r3
 8000300:	cd0f      	ldmia	r5!, {r0, r1, r2, r3}
 8000302:	c40f      	stmia	r4!, {r0, r1, r2, r3}
 8000304:	682b      	ldr	r3, [r5, #0]
 8000306:	7023      	strb	r3, [r4, #0]
	//HAL_UART_Transmit(&huart5,(uint8_t *)Test,strlen(Test),50);
	HAL_UART_Transmit(&huart4,(uint8_t *)Test,strlen(Test),50);
 8000308:	1d3b      	adds	r3, r7, #4
 800030a:	4618      	mov	r0, r3
 800030c:	f7ff ff60 	bl	80001d0 <strlen>
 8000310:	4603      	mov	r3, r0
 8000312:	b29a      	uxth	r2, r3
 8000314:	1d39      	adds	r1, r7, #4
 8000316:	2332      	movs	r3, #50	; 0x32
 8000318:	4804      	ldr	r0, [pc, #16]	; (800032c <gauche+0x38>)
 800031a:	f004 f84f 	bl	80043bc <HAL_UART_Transmit>
	/*HAL_Delay(500);*/
}
 800031e:	bf00      	nop
 8000320:	3718      	adds	r7, #24
 8000322:	46bd      	mov	sp, r7
 8000324:	bdb0      	pop	{r4, r5, r7, pc}
 8000326:	bf00      	nop
 8000328:	08005638 	.word	0x08005638
 800032c:	2000027c 	.word	0x2000027c

08000330 <droite>:

void droite(void)
{
 8000330:	b5b0      	push	{r4, r5, r7, lr}
 8000332:	b086      	sub	sp, #24
 8000334:	af00      	add	r7, sp, #0
	char Test[] = "mogo 1:-10 2:10\r";
 8000336:	4b0b      	ldr	r3, [pc, #44]	; (8000364 <droite+0x34>)
 8000338:	1d3c      	adds	r4, r7, #4
 800033a:	461d      	mov	r5, r3
 800033c:	cd0f      	ldmia	r5!, {r0, r1, r2, r3}
 800033e:	c40f      	stmia	r4!, {r0, r1, r2, r3}
 8000340:	682b      	ldr	r3, [r5, #0]
 8000342:	7023      	strb	r3, [r4, #0]
	//HAL_UART_Transmit(&huart5,(uint8_t *)Test,strlen(Test),50);
	HAL_UART_Transmit(&huart4,(uint8_t *)Test,strlen(Test),50);
 8000344:	1d3b      	adds	r3, r7, #4
 8000346:	4618      	mov	r0, r3
 8000348:	f7ff ff42 	bl	80001d0 <strlen>
 800034c:	4603      	mov	r3, r0
 800034e:	b29a      	uxth	r2, r3
 8000350:	1d39      	adds	r1, r7, #4
 8000352:	2332      	movs	r3, #50	; 0x32
 8000354:	4804      	ldr	r0, [pc, #16]	; (8000368 <droite+0x38>)
 8000356:	f004 f831 	bl	80043bc <HAL_UART_Transmit>
	/*HAL_Delay(500);*/
}
 800035a:	bf00      	nop
 800035c:	3718      	adds	r7, #24
 800035e:	46bd      	mov	sp, r7
 8000360:	bdb0      	pop	{r4, r5, r7, pc}
 8000362:	bf00      	nop
 8000364:	0800564c 	.word	0x0800564c
 8000368:	2000027c 	.word	0x2000027c

0800036c <avancerVite>:
void avancerVite(void)
{
 800036c:	b590      	push	{r4, r7, lr}
 800036e:	b085      	sub	sp, #20
 8000370:	af00      	add	r7, sp, #0

	char Test[] = "mogo 1:50 2:50\r";
 8000372:	4b0a      	ldr	r3, [pc, #40]	; (800039c <avancerVite+0x30>)
 8000374:	463c      	mov	r4, r7
 8000376:	cb0f      	ldmia	r3, {r0, r1, r2, r3}
 8000378:	e884 000f 	stmia.w	r4, {r0, r1, r2, r3}
	//HAL_UART_Transmit(&huart5,(uint8_t *)Test,strlen(Test),50);
	HAL_UART_Transmit(&huart4,(uint8_t *)Test,strlen(Test),50);
 800037c:	463b      	mov	r3, r7
 800037e:	4618      	mov	r0, r3
 8000380:	f7ff ff26 	bl	80001d0 <strlen>
 8000384:	4603      	mov	r3, r0
 8000386:	b29a      	uxth	r2, r3
 8000388:	4639      	mov	r1, r7
 800038a:	2332      	movs	r3, #50	; 0x32
 800038c:	4804      	ldr	r0, [pc, #16]	; (80003a0 <avancerVite+0x34>)
 800038e:	f004 f815 	bl	80043bc <HAL_UART_Transmit>
	/*HAL_Delay(500);*/
}
 8000392:	bf00      	nop
 8000394:	3714      	adds	r7, #20
 8000396:	46bd      	mov	sp, r7
 8000398:	bd90      	pop	{r4, r7, pc}
 800039a:	bf00      	nop
 800039c:	08005660 	.word	0x08005660
 80003a0:	2000027c 	.word	0x2000027c

080003a4 <reculerVite>:

void reculerVite(void)
{
 80003a4:	b5b0      	push	{r4, r5, r7, lr}
 80003a6:	b086      	sub	sp, #24
 80003a8:	af00      	add	r7, sp, #0
	char Test[] = "mogo 1:-50 2:-50\r";
 80003aa:	4b0b      	ldr	r3, [pc, #44]	; (80003d8 <reculerVite+0x34>)
 80003ac:	1d3c      	adds	r4, r7, #4
 80003ae:	461d      	mov	r5, r3
 80003b0:	cd0f      	ldmia	r5!, {r0, r1, r2, r3}
 80003b2:	c40f      	stmia	r4!, {r0, r1, r2, r3}
 80003b4:	682b      	ldr	r3, [r5, #0]
 80003b6:	8023      	strh	r3, [r4, #0]
	//HAL_UART_Transmit(&huart5,(uint8_t *)Test,strlen(Test),50);
	HAL_UART_Transmit(&huart4,(uint8_t *)Test,strlen(Test),50);
 80003b8:	1d3b      	adds	r3, r7, #4
 80003ba:	4618      	mov	r0, r3
 80003bc:	f7ff ff08 	bl	80001d0 <strlen>
 80003c0:	4603      	mov	r3, r0
 80003c2:	b29a      	uxth	r2, r3
 80003c4:	1d39      	adds	r1, r7, #4
 80003c6:	2332      	movs	r3, #50	; 0x32
 80003c8:	4804      	ldr	r0, [pc, #16]	; (80003dc <reculerVite+0x38>)
 80003ca:	f003 fff7 	bl	80043bc <HAL_UART_Transmit>
	/*HAL_Delay(500);*/
}
 80003ce:	bf00      	nop
 80003d0:	3718      	adds	r7, #24
 80003d2:	46bd      	mov	sp, r7
 80003d4:	bdb0      	pop	{r4, r5, r7, pc}
 80003d6:	bf00      	nop
 80003d8:	08005670 	.word	0x08005670
 80003dc:	2000027c 	.word	0x2000027c

080003e0 <rota>:

void rota(char dir){
 80003e0:	b480      	push	{r7}
 80003e2:	b083      	sub	sp, #12
 80003e4:	af00      	add	r7, sp, #0
 80003e6:	4603      	mov	r3, r0
 80003e8:	71fb      	strb	r3, [r7, #7]
	if(dir == 'l'){
 80003ea:	79fb      	ldrb	r3, [r7, #7]
 80003ec:	2b6c      	cmp	r3, #108	; 0x6c
 80003ee:	d10e      	bne.n	800040e <rota+0x2e>
		if(TIM2->CCR1 < 2440){
 80003f0:	f04f 4380 	mov.w	r3, #1073741824	; 0x40000000
 80003f4:	6b5b      	ldr	r3, [r3, #52]	; 0x34
 80003f6:	f640 1287 	movw	r2, #2439	; 0x987
 80003fa:	4293      	cmp	r3, r2
 80003fc:	d818      	bhi.n	8000430 <rota+0x50>
			TIM2->CCR1 += 40;
 80003fe:	f04f 4380 	mov.w	r3, #1073741824	; 0x40000000
 8000402:	6b5b      	ldr	r3, [r3, #52]	; 0x34
 8000404:	f04f 4280 	mov.w	r2, #1073741824	; 0x40000000
 8000408:	3328      	adds	r3, #40	; 0x28
 800040a:	6353      	str	r3, [r2, #52]	; 0x34
 800040c:	e010      	b.n	8000430 <rota+0x50>
		}
//		return TIM1->CCR1;
	}
	else if(dir == 'j'){
 800040e:	79fb      	ldrb	r3, [r7, #7]
 8000410:	2b6a      	cmp	r3, #106	; 0x6a
 8000412:	d10d      	bne.n	8000430 <rota+0x50>
		if(TIM2->CCR1 > 610){
 8000414:	f04f 4380 	mov.w	r3, #1073741824	; 0x40000000
 8000418:	6b5b      	ldr	r3, [r3, #52]	; 0x34
 800041a:	f240 2262 	movw	r2, #610	; 0x262
 800041e:	4293      	cmp	r3, r2
 8000420:	d906      	bls.n	8000430 <rota+0x50>
			TIM2->CCR1 -= 40;
 8000422:	f04f 4380 	mov.w	r3, #1073741824	; 0x40000000
 8000426:	6b5b      	ldr	r3, [r3, #52]	; 0x34
 8000428:	f04f 4280 	mov.w	r2, #1073741824	; 0x40000000
 800042c:	3b28      	subs	r3, #40	; 0x28
 800042e:	6353      	str	r3, [r2, #52]	; 0x34
		}
//		return TIM1->CCR1;
	}

	if(dir == 'i'){
 8000430:	79fb      	ldrb	r3, [r7, #7]
 8000432:	2b69      	cmp	r3, #105	; 0x69
 8000434:	d10d      	bne.n	8000452 <rota+0x72>
			if(TIM2->CCR2 < 1360){
 8000436:	f04f 4380 	mov.w	r3, #1073741824	; 0x40000000
 800043a:	6b9b      	ldr	r3, [r3, #56]	; 0x38
 800043c:	f5b3 6faa 	cmp.w	r3, #1360	; 0x550
 8000440:	d218      	bcs.n	8000474 <rota+0x94>
				TIM2->CCR2 += 40;
 8000442:	f04f 4380 	mov.w	r3, #1073741824	; 0x40000000
 8000446:	6b9b      	ldr	r3, [r3, #56]	; 0x38
 8000448:	f04f 4280 	mov.w	r2, #1073741824	; 0x40000000
 800044c:	3328      	adds	r3, #40	; 0x28
 800044e:	6393      	str	r3, [r2, #56]	; 0x38
			TIM2->CCR2 -= 40;
		}
//		return TIM1->CCR2;
	}
//	return 0;
}
 8000450:	e010      	b.n	8000474 <rota+0x94>
	else if(dir == 'k'){
 8000452:	79fb      	ldrb	r3, [r7, #7]
 8000454:	2b6b      	cmp	r3, #107	; 0x6b
 8000456:	d10d      	bne.n	8000474 <rota+0x94>
		if(TIM2->CCR2 > 610){
 8000458:	f04f 4380 	mov.w	r3, #1073741824	; 0x40000000
 800045c:	6b9b      	ldr	r3, [r3, #56]	; 0x38
 800045e:	f240 2262 	movw	r2, #610	; 0x262
 8000462:	4293      	cmp	r3, r2
 8000464:	d906      	bls.n	8000474 <rota+0x94>
			TIM2->CCR2 -= 40;
 8000466:	f04f 4380 	mov.w	r3, #1073741824	; 0x40000000
 800046a:	6b9b      	ldr	r3, [r3, #56]	; 0x38
 800046c:	f04f 4280 	mov.w	r2, #1073741824	; 0x40000000
 8000470:	3b28      	subs	r3, #40	; 0x28
 8000472:	6393      	str	r3, [r2, #56]	; 0x38
}
 8000474:	bf00      	nop
 8000476:	370c      	adds	r7, #12
 8000478:	46bd      	mov	sp, r7
 800047a:	f85d 7b04 	ldr.w	r7, [sp], #4
 800047e:	4770      	bx	lr

08000480 <main>:
/**
  * @brief  The application entry point.
  * @retval int
  */
int main(void)
{
 8000480:	b580      	push	{r7, lr}
 8000482:	b082      	sub	sp, #8
 8000484:	af00      	add	r7, sp, #0
  /* USER CODE BEGIN 1 */
	messageprecedent[0]='2';
 8000486:	4b94      	ldr	r3, [pc, #592]	; (80006d8 <main+0x258>)
 8000488:	2232      	movs	r2, #50	; 0x32
 800048a:	701a      	strb	r2, [r3, #0]
	messageprecedent[1]='\0';
 800048c:	4b92      	ldr	r3, [pc, #584]	; (80006d8 <main+0x258>)
 800048e:	2200      	movs	r2, #0
 8000490:	705a      	strb	r2, [r3, #1]
  /* USER CODE END 1 */

  /* MCU Configuration--------------------------------------------------------*/

  /* Reset of all peripherals, Initializes the Flash interface and the Systick. */
  HAL_Init();
 8000492:	f000 fed7 	bl	8001244 <HAL_Init>
  /* USER CODE BEGIN Init */

  /* USER CODE END Init */

  /* Configure the system clock */
  SystemClock_Config();
 8000496:	f000 f947 	bl	8000728 <SystemClock_Config>
  /* USER CODE BEGIN SysInit */

  /* USER CODE END SysInit */

  /* Initialize all configured peripherals */
  MX_GPIO_Init();
 800049a:	f000 fbab 	bl	8000bf4 <MX_GPIO_Init>
  MX_DMA_Init();
 800049e:	f000 fb83 	bl	8000ba8 <MX_DMA_Init>
  MX_UART4_Init();
 80004a2:	f000 fb19 	bl	8000ad8 <MX_UART4_Init>
  MX_UART5_Init();
 80004a6:	f000 fb4b 	bl	8000b40 <MX_UART5_Init>
  MX_TIM4_Init();
 80004aa:	f000 fac7 	bl	8000a3c <MX_TIM4_Init>
  MX_TIM1_Init();
 80004ae:	f000 f997 	bl	80007e0 <MX_TIM1_Init>
  MX_TIM2_Init();
 80004b2:	f000 fa41 	bl	8000938 <MX_TIM2_Init>
  /* USER CODE BEGIN 2 */
  //HAL_GPIO_WritePin(TRIGGER_GPIO_Port, TRIGGER_Pin, 0);
  //TIM1->CCR1 = 50;
  TIM2->CCR1 = 1480;
 80004b6:	f04f 4380 	mov.w	r3, #1073741824	; 0x40000000
 80004ba:	f44f 62b9 	mov.w	r2, #1480	; 0x5c8
 80004be:	635a      	str	r2, [r3, #52]	; 0x34
  TIM2->CCR2 = 640;
 80004c0:	f04f 4380 	mov.w	r3, #1073741824	; 0x40000000
 80004c4:	f44f 7220 	mov.w	r2, #640	; 0x280
 80004c8:	639a      	str	r2, [r3, #56]	; 0x38
  HAL_TIM_PWM_Start(&htim1, TIM_CHANNEL_1);
 80004ca:	2100      	movs	r1, #0
 80004cc:	4883      	ldr	r0, [pc, #524]	; (80006dc <main+0x25c>)
 80004ce:	f002 ff31 	bl	8003334 <HAL_TIM_PWM_Start>
  HAL_TIM_PWM_Start(&htim2, TIM_CHANNEL_1);
 80004d2:	2100      	movs	r1, #0
 80004d4:	4882      	ldr	r0, [pc, #520]	; (80006e0 <main+0x260>)
 80004d6:	f002 ff2d 	bl	8003334 <HAL_TIM_PWM_Start>
  HAL_TIM_PWM_Start(&htim2, TIM_CHANNEL_2);
 80004da:	2104      	movs	r1, #4
 80004dc:	4880      	ldr	r0, [pc, #512]	; (80006e0 <main+0x260>)
 80004de:	f002 ff29 	bl	8003334 <HAL_TIM_PWM_Start>
  while (1)
  {
    /* USER CODE END WHILE */

    /* USER CODE BEGIN 3 */
	  actuelle = HAL_GPIO_ReadPin(GPIOB, GPIO_PIN_10);
 80004e2:	f44f 6180 	mov.w	r1, #1024	; 0x400
 80004e6:	487f      	ldr	r0, [pc, #508]	; (80006e4 <main+0x264>)
 80004e8:	f001 fac4 	bl	8001a74 <HAL_GPIO_ReadPin>
 80004ec:	4603      	mov	r3, r0
 80004ee:	461a      	mov	r2, r3
 80004f0:	4b7d      	ldr	r3, [pc, #500]	; (80006e8 <main+0x268>)
 80004f2:	701a      	strb	r2, [r3, #0]
	  if ( actuelle != precedent)
 80004f4:	4b7c      	ldr	r3, [pc, #496]	; (80006e8 <main+0x268>)
 80004f6:	781a      	ldrb	r2, [r3, #0]
 80004f8:	4b7c      	ldr	r3, [pc, #496]	; (80006ec <main+0x26c>)
 80004fa:	781b      	ldrb	r3, [r3, #0]
 80004fc:	429a      	cmp	r2, r3
 80004fe:	d02b      	beq.n	8000558 <main+0xd8>
	  {
		  if (actuelle)
 8000500:	4b79      	ldr	r3, [pc, #484]	; (80006e8 <main+0x268>)
 8000502:	781b      	ldrb	r3, [r3, #0]
 8000504:	2b00      	cmp	r3, #0
 8000506:	d003      	beq.n	8000510 <main+0x90>
		  {
			  HAL_TIM_Base_Start(&htim4);
 8000508:	4879      	ldr	r0, [pc, #484]	; (80006f0 <main+0x270>)
 800050a:	f002 fe29 	bl	8003160 <HAL_TIM_Base_Start>
 800050e:	e023      	b.n	8000558 <main+0xd8>
		  }
		  else
		  {
			  HAL_TIM_Base_Stop(&htim4);
 8000510:	4877      	ldr	r0, [pc, #476]	; (80006f0 <main+0x270>)
 8000512:	f002 fe87 	bl	8003224 <HAL_TIM_Base_Stop>
			  compteur = TIM4->CNT;
 8000516:	4b77      	ldr	r3, [pc, #476]	; (80006f4 <main+0x274>)
 8000518:	6a5b      	ldr	r3, [r3, #36]	; 0x24
 800051a:	4a77      	ldr	r2, [pc, #476]	; (80006f8 <main+0x278>)
 800051c:	6013      	str	r3, [r2, #0]
			  __HAL_TIM_SET_COUNTER(&htim4, 0);
 800051e:	4b74      	ldr	r3, [pc, #464]	; (80006f0 <main+0x270>)
 8000520:	681b      	ldr	r3, [r3, #0]
 8000522:	2200      	movs	r2, #0
 8000524:	625a      	str	r2, [r3, #36]	; 0x24

			  distance = compteur/58;
 8000526:	4b74      	ldr	r3, [pc, #464]	; (80006f8 <main+0x278>)
 8000528:	681b      	ldr	r3, [r3, #0]
 800052a:	4a74      	ldr	r2, [pc, #464]	; (80006fc <main+0x27c>)
 800052c:	fba2 2303 	umull	r2, r3, r2, r3
 8000530:	095b      	lsrs	r3, r3, #5
 8000532:	4a73      	ldr	r2, [pc, #460]	; (8000700 <main+0x280>)
 8000534:	6013      	str	r3, [r2, #0]
			  snprintf(dist, sizeof(dist), "d %ld\r\n", distance);
 8000536:	4b72      	ldr	r3, [pc, #456]	; (8000700 <main+0x280>)
 8000538:	681b      	ldr	r3, [r3, #0]
 800053a:	4a72      	ldr	r2, [pc, #456]	; (8000704 <main+0x284>)
 800053c:	211e      	movs	r1, #30
 800053e:	4872      	ldr	r0, [pc, #456]	; (8000708 <main+0x288>)
 8000540:	f004 fc42 	bl	8004dc8 <sniprintf>
			  HAL_UART_Transmit(&huart5,(uint8_t *)dist,strlen(dist),50);
 8000544:	4870      	ldr	r0, [pc, #448]	; (8000708 <main+0x288>)
 8000546:	f7ff fe43 	bl	80001d0 <strlen>
 800054a:	4603      	mov	r3, r0
 800054c:	b29a      	uxth	r2, r3
 800054e:	2332      	movs	r3, #50	; 0x32
 8000550:	496d      	ldr	r1, [pc, #436]	; (8000708 <main+0x288>)
 8000552:	486e      	ldr	r0, [pc, #440]	; (800070c <main+0x28c>)
 8000554:	f003 ff32 	bl	80043bc <HAL_UART_Transmit>
		  }
	  }
	  precedent = actuelle;
 8000558:	4b63      	ldr	r3, [pc, #396]	; (80006e8 <main+0x268>)
 800055a:	781a      	ldrb	r2, [r3, #0]
 800055c:	4b63      	ldr	r3, [pc, #396]	; (80006ec <main+0x26c>)
 800055e:	701a      	strb	r2, [r3, #0]


	  int retour = HAL_UART_Receive(&huart5, (uint8_t *)message, 1, 0);
 8000560:	2300      	movs	r3, #0
 8000562:	2201      	movs	r2, #1
 8000564:	496a      	ldr	r1, [pc, #424]	; (8000710 <main+0x290>)
 8000566:	4869      	ldr	r0, [pc, #420]	; (800070c <main+0x28c>)
 8000568:	f003 ffbc 	bl	80044e4 <HAL_UART_Receive>
 800056c:	4603      	mov	r3, r0
 800056e:	607b      	str	r3, [r7, #4]
	  memcpy(messagecourant, message, sizeof(message));
 8000570:	4b67      	ldr	r3, [pc, #412]	; (8000710 <main+0x290>)
 8000572:	881b      	ldrh	r3, [r3, #0]
 8000574:	b29b      	uxth	r3, r3
 8000576:	4a67      	ldr	r2, [pc, #412]	; (8000714 <main+0x294>)
 8000578:	8013      	strh	r3, [r2, #0]
	  messagecourant[1] = '\0';
 800057a:	4b66      	ldr	r3, [pc, #408]	; (8000714 <main+0x294>)
 800057c:	2200      	movs	r2, #0
 800057e:	705a      	strb	r2, [r3, #1]

	  if(retour == HAL_OK)
 8000580:	687b      	ldr	r3, [r7, #4]
 8000582:	2b00      	cmp	r3, #0
 8000584:	d16b      	bne.n	800065e <main+0x1de>
	  {
		  initial = HAL_GetTick();
 8000586:	f000 feb7 	bl	80012f8 <HAL_GetTick>
 800058a:	4603      	mov	r3, r0
 800058c:	b29a      	uxth	r2, r3
 800058e:	4b62      	ldr	r3, [pc, #392]	; (8000718 <main+0x298>)
 8000590:	801a      	strh	r2, [r3, #0]
		  message[1] = '\0';
 8000592:	4b5f      	ldr	r3, [pc, #380]	; (8000710 <main+0x290>)
 8000594:	2200      	movs	r2, #0
 8000596:	705a      	strb	r2, [r3, #1]
		  if (messagecourant[0] != messageprecedent[0])
 8000598:	4b5e      	ldr	r3, [pc, #376]	; (8000714 <main+0x294>)
 800059a:	781a      	ldrb	r2, [r3, #0]
 800059c:	4b4e      	ldr	r3, [pc, #312]	; (80006d8 <main+0x258>)
 800059e:	781b      	ldrb	r3, [r3, #0]
 80005a0:	429a      	cmp	r2, r3
 80005a2:	d05c      	beq.n	800065e <main+0x1de>
		  {
			  if (message[0] == 'z')
 80005a4:	4b5a      	ldr	r3, [pc, #360]	; (8000710 <main+0x290>)
 80005a6:	781b      	ldrb	r3, [r3, #0]
 80005a8:	2b7a      	cmp	r3, #122	; 0x7a
 80005aa:	d107      	bne.n	80005bc <main+0x13c>
			  {
				  avancer();
 80005ac:	f7ff fe68 	bl	8000280 <avancer>
				  messageprecedent[0]='z';
 80005b0:	4b49      	ldr	r3, [pc, #292]	; (80006d8 <main+0x258>)
 80005b2:	227a      	movs	r2, #122	; 0x7a
 80005b4:	701a      	strb	r2, [r3, #0]
				  messageprecedent[1]='\0';
 80005b6:	4b48      	ldr	r3, [pc, #288]	; (80006d8 <main+0x258>)
 80005b8:	2200      	movs	r2, #0
 80005ba:	705a      	strb	r2, [r3, #1]
			  }
			  if (message[0] == 's')
 80005bc:	4b54      	ldr	r3, [pc, #336]	; (8000710 <main+0x290>)
 80005be:	781b      	ldrb	r3, [r3, #0]
 80005c0:	2b73      	cmp	r3, #115	; 0x73
 80005c2:	d107      	bne.n	80005d4 <main+0x154>
			  {
				  reculer();
 80005c4:	f7ff fe78 	bl	80002b8 <reculer>
				  messageprecedent[0]='s';
 80005c8:	4b43      	ldr	r3, [pc, #268]	; (80006d8 <main+0x258>)
 80005ca:	2273      	movs	r2, #115	; 0x73
 80005cc:	701a      	strb	r2, [r3, #0]
				  messageprecedent[1]='\0';
 80005ce:	4b42      	ldr	r3, [pc, #264]	; (80006d8 <main+0x258>)
 80005d0:	2200      	movs	r2, #0
 80005d2:	705a      	strb	r2, [r3, #1]

			  }
			  if (message[0] == 'q')
 80005d4:	4b4e      	ldr	r3, [pc, #312]	; (8000710 <main+0x290>)
 80005d6:	781b      	ldrb	r3, [r3, #0]
 80005d8:	2b71      	cmp	r3, #113	; 0x71
 80005da:	d107      	bne.n	80005ec <main+0x16c>
			  {
				  gauche();
 80005dc:	f7ff fe8a 	bl	80002f4 <gauche>
				  messageprecedent[0]='q';
 80005e0:	4b3d      	ldr	r3, [pc, #244]	; (80006d8 <main+0x258>)
 80005e2:	2271      	movs	r2, #113	; 0x71
 80005e4:	701a      	strb	r2, [r3, #0]
				  messageprecedent[1]='\0';
 80005e6:	4b3c      	ldr	r3, [pc, #240]	; (80006d8 <main+0x258>)
 80005e8:	2200      	movs	r2, #0
 80005ea:	705a      	strb	r2, [r3, #1]
			  }
			  if (message[0] == 'd')
 80005ec:	4b48      	ldr	r3, [pc, #288]	; (8000710 <main+0x290>)
 80005ee:	781b      	ldrb	r3, [r3, #0]
 80005f0:	2b64      	cmp	r3, #100	; 0x64
 80005f2:	d107      	bne.n	8000604 <main+0x184>
			  {
				  droite();
 80005f4:	f7ff fe9c 	bl	8000330 <droite>
				  messageprecedent[0]='d';
 80005f8:	4b37      	ldr	r3, [pc, #220]	; (80006d8 <main+0x258>)
 80005fa:	2264      	movs	r2, #100	; 0x64
 80005fc:	701a      	strb	r2, [r3, #0]
				  messageprecedent[1]='\0';
 80005fe:	4b36      	ldr	r3, [pc, #216]	; (80006d8 <main+0x258>)
 8000600:	2200      	movs	r2, #0
 8000602:	705a      	strb	r2, [r3, #1]
			  }
			  if (message[0] == 'Z')
 8000604:	4b42      	ldr	r3, [pc, #264]	; (8000710 <main+0x290>)
 8000606:	781b      	ldrb	r3, [r3, #0]
 8000608:	2b5a      	cmp	r3, #90	; 0x5a
 800060a:	d107      	bne.n	800061c <main+0x19c>
			  {
				  avancerVite();
 800060c:	f7ff feae 	bl	800036c <avancerVite>
				  messageprecedent[0]='Z';
 8000610:	4b31      	ldr	r3, [pc, #196]	; (80006d8 <main+0x258>)
 8000612:	225a      	movs	r2, #90	; 0x5a
 8000614:	701a      	strb	r2, [r3, #0]
				  messageprecedent[1]='\0';
 8000616:	4b30      	ldr	r3, [pc, #192]	; (80006d8 <main+0x258>)
 8000618:	2200      	movs	r2, #0
 800061a:	705a      	strb	r2, [r3, #1]
			  }
			  if (message[0] == 'S')
 800061c:	4b3c      	ldr	r3, [pc, #240]	; (8000710 <main+0x290>)
 800061e:	781b      	ldrb	r3, [r3, #0]
 8000620:	2b53      	cmp	r3, #83	; 0x53
 8000622:	d107      	bne.n	8000634 <main+0x1b4>
			  {
				  reculerVite();
 8000624:	f7ff febe 	bl	80003a4 <reculerVite>
				  messageprecedent[0]='S';
 8000628:	4b2b      	ldr	r3, [pc, #172]	; (80006d8 <main+0x258>)
 800062a:	2253      	movs	r2, #83	; 0x53
 800062c:	701a      	strb	r2, [r3, #0]
				  messageprecedent[1]='\0';
 800062e:	4b2a      	ldr	r3, [pc, #168]	; (80006d8 <main+0x258>)
 8000630:	2200      	movs	r2, #0
 8000632:	705a      	strb	r2, [r3, #1]
			  }
			  if (message[0] == 'i' || message[0] == 'j' || message[0] == 'k'|| message[0] == 'l')
 8000634:	4b36      	ldr	r3, [pc, #216]	; (8000710 <main+0x290>)
 8000636:	781b      	ldrb	r3, [r3, #0]
 8000638:	2b69      	cmp	r3, #105	; 0x69
 800063a:	d00b      	beq.n	8000654 <main+0x1d4>
 800063c:	4b34      	ldr	r3, [pc, #208]	; (8000710 <main+0x290>)
 800063e:	781b      	ldrb	r3, [r3, #0]
 8000640:	2b6a      	cmp	r3, #106	; 0x6a
 8000642:	d007      	beq.n	8000654 <main+0x1d4>
 8000644:	4b32      	ldr	r3, [pc, #200]	; (8000710 <main+0x290>)
 8000646:	781b      	ldrb	r3, [r3, #0]
 8000648:	2b6b      	cmp	r3, #107	; 0x6b
 800064a:	d003      	beq.n	8000654 <main+0x1d4>
 800064c:	4b30      	ldr	r3, [pc, #192]	; (8000710 <main+0x290>)
 800064e:	781b      	ldrb	r3, [r3, #0]
 8000650:	2b6c      	cmp	r3, #108	; 0x6c
 8000652:	d104      	bne.n	800065e <main+0x1de>
			  {
				  rota(message[0]);
 8000654:	4b2e      	ldr	r3, [pc, #184]	; (8000710 <main+0x290>)
 8000656:	781b      	ldrb	r3, [r3, #0]
 8000658:	4618      	mov	r0, r3
 800065a:	f7ff fec1 	bl	80003e0 <rota>
			  }
		  }
	  }
	  maintenant = HAL_GetTick();
 800065e:	f000 fe4b 	bl	80012f8 <HAL_GetTick>
 8000662:	4603      	mov	r3, r0
 8000664:	b29a      	uxth	r2, r3
 8000666:	4b2d      	ldr	r3, [pc, #180]	; (800071c <main+0x29c>)
 8000668:	801a      	strh	r2, [r3, #0]
	  if (maintenant-initial> 500)
 800066a:	4b2c      	ldr	r3, [pc, #176]	; (800071c <main+0x29c>)
 800066c:	881b      	ldrh	r3, [r3, #0]
 800066e:	461a      	mov	r2, r3
 8000670:	4b29      	ldr	r3, [pc, #164]	; (8000718 <main+0x298>)
 8000672:	881b      	ldrh	r3, [r3, #0]
 8000674:	1ad3      	subs	r3, r2, r3
 8000676:	f5b3 7ffa 	cmp.w	r3, #500	; 0x1f4
 800067a:	dd16      	ble.n	80006aa <main+0x22a>
	  {
		  if (initial != 0)
 800067c:	4b26      	ldr	r3, [pc, #152]	; (8000718 <main+0x298>)
 800067e:	881b      	ldrh	r3, [r3, #0]
 8000680:	2b00      	cmp	r3, #0
 8000682:	d012      	beq.n	80006aa <main+0x22a>
		  {
			  //HAL_UART_Transmit(&huart5,(uint8_t *)stop,strlen(stop),5);
			  HAL_UART_Transmit(&huart4,(uint8_t *)stop,strlen(stop),5);
 8000684:	4826      	ldr	r0, [pc, #152]	; (8000720 <main+0x2a0>)
 8000686:	f7ff fda3 	bl	80001d0 <strlen>
 800068a:	4603      	mov	r3, r0
 800068c:	b29a      	uxth	r2, r3
 800068e:	2305      	movs	r3, #5
 8000690:	4923      	ldr	r1, [pc, #140]	; (8000720 <main+0x2a0>)
 8000692:	4824      	ldr	r0, [pc, #144]	; (8000724 <main+0x2a4>)
 8000694:	f003 fe92 	bl	80043bc <HAL_UART_Transmit>
			  initial = 0;
 8000698:	4b1f      	ldr	r3, [pc, #124]	; (8000718 <main+0x298>)
 800069a:	2200      	movs	r2, #0
 800069c:	801a      	strh	r2, [r3, #0]
			  messageprecedent[0]='1';
 800069e:	4b0e      	ldr	r3, [pc, #56]	; (80006d8 <main+0x258>)
 80006a0:	2231      	movs	r2, #49	; 0x31
 80006a2:	701a      	strb	r2, [r3, #0]
		      messageprecedent[1]='\0';
 80006a4:	4b0c      	ldr	r3, [pc, #48]	; (80006d8 <main+0x258>)
 80006a6:	2200      	movs	r2, #0
 80006a8:	705a      	strb	r2, [r3, #1]
		  }
	  }
	  if (distance < 50)
 80006aa:	4b15      	ldr	r3, [pc, #84]	; (8000700 <main+0x280>)
 80006ac:	681b      	ldr	r3, [r3, #0]
 80006ae:	2b31      	cmp	r3, #49	; 0x31
 80006b0:	f63f af17 	bhi.w	80004e2 <main+0x62>
	  {
		  //HAL_UART_Transmit(&huart5,(uint8_t *)stop,strlen(stop),5);
		  HAL_UART_Transmit(&huart4,(uint8_t *)stop,strlen(stop),5);
 80006b4:	481a      	ldr	r0, [pc, #104]	; (8000720 <main+0x2a0>)
 80006b6:	f7ff fd8b 	bl	80001d0 <strlen>
 80006ba:	4603      	mov	r3, r0
 80006bc:	b29a      	uxth	r2, r3
 80006be:	2305      	movs	r3, #5
 80006c0:	4917      	ldr	r1, [pc, #92]	; (8000720 <main+0x2a0>)
 80006c2:	4818      	ldr	r0, [pc, #96]	; (8000724 <main+0x2a4>)
 80006c4:	f003 fe7a 	bl	80043bc <HAL_UART_Transmit>
		  messageprecedent[0]='1';
 80006c8:	4b03      	ldr	r3, [pc, #12]	; (80006d8 <main+0x258>)
 80006ca:	2231      	movs	r2, #49	; 0x31
 80006cc:	701a      	strb	r2, [r3, #0]
		  messageprecedent[1]='\0';
 80006ce:	4b02      	ldr	r3, [pc, #8]	; (80006d8 <main+0x258>)
 80006d0:	2200      	movs	r2, #0
 80006d2:	705a      	strb	r2, [r3, #1]
  {
 80006d4:	e705      	b.n	80004e2 <main+0x62>
 80006d6:	bf00      	nop
 80006d8:	200000b0 	.word	0x200000b0
 80006dc:	20000230 	.word	0x20000230
 80006e0:	20000300 	.word	0x20000300
 80006e4:	48000400 	.word	0x48000400
 80006e8:	20000098 	.word	0x20000098
 80006ec:	20000099 	.word	0x20000099
 80006f0:	200000f8 	.word	0x200000f8
 80006f4:	40000800 	.word	0x40000800
 80006f8:	20000094 	.word	0x20000094
 80006fc:	8d3dcb09 	.word	0x8d3dcb09
 8000700:	2000009c 	.word	0x2000009c
 8000704:	08005684 	.word	0x08005684
 8000708:	2000018c 	.word	0x2000018c
 800070c:	200001ac 	.word	0x200001ac
 8000710:	20000188 	.word	0x20000188
 8000714:	2000034c 	.word	0x2000034c
 8000718:	200000a0 	.word	0x200000a0
 800071c:	200000a2 	.word	0x200000a2
 8000720:	20000000 	.word	0x20000000
 8000724:	2000027c 	.word	0x2000027c

08000728 <SystemClock_Config>:
/**
  * @brief System Clock Configuration
  * @retval None
  */
void SystemClock_Config(void)
{
 8000728:	b580      	push	{r7, lr}
 800072a:	b09e      	sub	sp, #120	; 0x78
 800072c:	af00      	add	r7, sp, #0
  RCC_OscInitTypeDef RCC_OscInitStruct = {0};
 800072e:	f107 0350 	add.w	r3, r7, #80	; 0x50
 8000732:	2228      	movs	r2, #40	; 0x28
 8000734:	2100      	movs	r1, #0
 8000736:	4618      	mov	r0, r3
 8000738:	f004 fb3e 	bl	8004db8 <memset>
  RCC_ClkInitTypeDef RCC_ClkInitStruct = {0};
 800073c:	f107 033c 	add.w	r3, r7, #60	; 0x3c
 8000740:	2200      	movs	r2, #0
 8000742:	601a      	str	r2, [r3, #0]
 8000744:	605a      	str	r2, [r3, #4]
 8000746:	609a      	str	r2, [r3, #8]
 8000748:	60da      	str	r2, [r3, #12]
 800074a:	611a      	str	r2, [r3, #16]
  RCC_PeriphCLKInitTypeDef PeriphClkInit = {0};
 800074c:	463b      	mov	r3, r7
 800074e:	223c      	movs	r2, #60	; 0x3c
 8000750:	2100      	movs	r1, #0
 8000752:	4618      	mov	r0, r3
 8000754:	f004 fb30 	bl	8004db8 <memset>

  /** Initializes the RCC Oscillators according to the specified parameters
  * in the RCC_OscInitTypeDef structure.
  */
  RCC_OscInitStruct.OscillatorType = RCC_OSCILLATORTYPE_HSI;
 8000758:	2302      	movs	r3, #2
 800075a:	653b      	str	r3, [r7, #80]	; 0x50
  RCC_OscInitStruct.HSIState = RCC_HSI_ON;
 800075c:	2301      	movs	r3, #1
 800075e:	663b      	str	r3, [r7, #96]	; 0x60
  RCC_OscInitStruct.HSICalibrationValue = RCC_HSICALIBRATION_DEFAULT;
 8000760:	2310      	movs	r3, #16
 8000762:	667b      	str	r3, [r7, #100]	; 0x64
  RCC_OscInitStruct.PLL.PLLState = RCC_PLL_ON;
 8000764:	2302      	movs	r3, #2
 8000766:	66fb      	str	r3, [r7, #108]	; 0x6c
  RCC_OscInitStruct.PLL.PLLSource = RCC_PLLSOURCE_HSI;
 8000768:	2300      	movs	r3, #0
 800076a:	673b      	str	r3, [r7, #112]	; 0x70
  RCC_OscInitStruct.PLL.PLLMUL = RCC_PLL_MUL12;
 800076c:	f44f 1320 	mov.w	r3, #2621440	; 0x280000
 8000770:	677b      	str	r3, [r7, #116]	; 0x74
  if (HAL_RCC_OscConfig(&RCC_OscInitStruct) != HAL_OK)
 8000772:	f107 0350 	add.w	r3, r7, #80	; 0x50
 8000776:	4618      	mov	r0, r3
 8000778:	f001 f9ac 	bl	8001ad4 <HAL_RCC_OscConfig>
 800077c:	4603      	mov	r3, r0
 800077e:	2b00      	cmp	r3, #0
 8000780:	d001      	beq.n	8000786 <SystemClock_Config+0x5e>
  {
    Error_Handler();
 8000782:	f000 faf7 	bl	8000d74 <Error_Handler>
  }
  /** Initializes the CPU, AHB and APB buses clocks
  */
  RCC_ClkInitStruct.ClockType = RCC_CLOCKTYPE_HCLK|RCC_CLOCKTYPE_SYSCLK
 8000786:	230f      	movs	r3, #15
 8000788:	63fb      	str	r3, [r7, #60]	; 0x3c
                              |RCC_CLOCKTYPE_PCLK1|RCC_CLOCKTYPE_PCLK2;
  RCC_ClkInitStruct.SYSCLKSource = RCC_SYSCLKSOURCE_PLLCLK;
 800078a:	2302      	movs	r3, #2
 800078c:	643b      	str	r3, [r7, #64]	; 0x40
  RCC_ClkInitStruct.AHBCLKDivider = RCC_SYSCLK_DIV1;
 800078e:	2300      	movs	r3, #0
 8000790:	647b      	str	r3, [r7, #68]	; 0x44
  RCC_ClkInitStruct.APB1CLKDivider = RCC_HCLK_DIV2;
 8000792:	f44f 6380 	mov.w	r3, #1024	; 0x400
 8000796:	64bb      	str	r3, [r7, #72]	; 0x48
  RCC_ClkInitStruct.APB2CLKDivider = RCC_HCLK_DIV1;
 8000798:	2300      	movs	r3, #0
 800079a:	64fb      	str	r3, [r7, #76]	; 0x4c

  if (HAL_RCC_ClockConfig(&RCC_ClkInitStruct, FLASH_LATENCY_1) != HAL_OK)
 800079c:	f107 033c 	add.w	r3, r7, #60	; 0x3c
 80007a0:	2101      	movs	r1, #1
 80007a2:	4618      	mov	r0, r3
 80007a4:	f002 f89e 	bl	80028e4 <HAL_RCC_ClockConfig>
 80007a8:	4603      	mov	r3, r0
 80007aa:	2b00      	cmp	r3, #0
 80007ac:	d001      	beq.n	80007b2 <SystemClock_Config+0x8a>
  {
    Error_Handler();
 80007ae:	f000 fae1 	bl	8000d74 <Error_Handler>
  }
  PeriphClkInit.PeriphClockSelection = RCC_PERIPHCLK_UART4|RCC_PERIPHCLK_UART5
 80007b2:	f241 0318 	movw	r3, #4120	; 0x1018
 80007b6:	603b      	str	r3, [r7, #0]
                              |RCC_PERIPHCLK_TIM1;
  PeriphClkInit.Uart4ClockSelection = RCC_UART4CLKSOURCE_PCLK1;
 80007b8:	2300      	movs	r3, #0
 80007ba:	617b      	str	r3, [r7, #20]
  PeriphClkInit.Uart5ClockSelection = RCC_UART5CLKSOURCE_PCLK1;
 80007bc:	2300      	movs	r3, #0
 80007be:	61bb      	str	r3, [r7, #24]
  PeriphClkInit.Tim1ClockSelection = RCC_TIM1CLK_HCLK;
 80007c0:	2300      	movs	r3, #0
 80007c2:	633b      	str	r3, [r7, #48]	; 0x30
  if (HAL_RCCEx_PeriphCLKConfig(&PeriphClkInit) != HAL_OK)
 80007c4:	463b      	mov	r3, r7
 80007c6:	4618      	mov	r0, r3
 80007c8:	f002 fac2 	bl	8002d50 <HAL_RCCEx_PeriphCLKConfig>
 80007cc:	4603      	mov	r3, r0
 80007ce:	2b00      	cmp	r3, #0
 80007d0:	d001      	beq.n	80007d6 <SystemClock_Config+0xae>
  {
    Error_Handler();
 80007d2:	f000 facf 	bl	8000d74 <Error_Handler>
  }
}
 80007d6:	bf00      	nop
 80007d8:	3778      	adds	r7, #120	; 0x78
 80007da:	46bd      	mov	sp, r7
 80007dc:	bd80      	pop	{r7, pc}
	...

080007e0 <MX_TIM1_Init>:
  * @brief TIM1 Initialization Function
  * @param None
  * @retval None
  */
static void MX_TIM1_Init(void)
{
 80007e0:	b580      	push	{r7, lr}
 80007e2:	b09a      	sub	sp, #104	; 0x68
 80007e4:	af00      	add	r7, sp, #0

  /* USER CODE BEGIN TIM1_Init 0 */

  /* USER CODE END TIM1_Init 0 */

  TIM_ClockConfigTypeDef sClockSourceConfig = {0};
 80007e6:	f107 0358 	add.w	r3, r7, #88	; 0x58
 80007ea:	2200      	movs	r2, #0
 80007ec:	601a      	str	r2, [r3, #0]
 80007ee:	605a      	str	r2, [r3, #4]
 80007f0:	609a      	str	r2, [r3, #8]
 80007f2:	60da      	str	r2, [r3, #12]
  TIM_MasterConfigTypeDef sMasterConfig = {0};
 80007f4:	f107 034c 	add.w	r3, r7, #76	; 0x4c
 80007f8:	2200      	movs	r2, #0
 80007fa:	601a      	str	r2, [r3, #0]
 80007fc:	605a      	str	r2, [r3, #4]
 80007fe:	609a      	str	r2, [r3, #8]
  TIM_OC_InitTypeDef sConfigOC = {0};
 8000800:	f107 0330 	add.w	r3, r7, #48	; 0x30
 8000804:	2200      	movs	r2, #0
 8000806:	601a      	str	r2, [r3, #0]
 8000808:	605a      	str	r2, [r3, #4]
 800080a:	609a      	str	r2, [r3, #8]
 800080c:	60da      	str	r2, [r3, #12]
 800080e:	611a      	str	r2, [r3, #16]
 8000810:	615a      	str	r2, [r3, #20]
 8000812:	619a      	str	r2, [r3, #24]
  TIM_BreakDeadTimeConfigTypeDef sBreakDeadTimeConfig = {0};
 8000814:	1d3b      	adds	r3, r7, #4
 8000816:	222c      	movs	r2, #44	; 0x2c
 8000818:	2100      	movs	r1, #0
 800081a:	4618      	mov	r0, r3
 800081c:	f004 facc 	bl	8004db8 <memset>

  /* USER CODE BEGIN TIM1_Init 1 */

  /* USER CODE END TIM1_Init 1 */
  htim1.Instance = TIM1;
 8000820:	4b43      	ldr	r3, [pc, #268]	; (8000930 <MX_TIM1_Init+0x150>)
 8000822:	4a44      	ldr	r2, [pc, #272]	; (8000934 <MX_TIM1_Init+0x154>)
 8000824:	601a      	str	r2, [r3, #0]
  htim1.Init.Prescaler = 48;
 8000826:	4b42      	ldr	r3, [pc, #264]	; (8000930 <MX_TIM1_Init+0x150>)
 8000828:	2230      	movs	r2, #48	; 0x30
 800082a:	605a      	str	r2, [r3, #4]
  htim1.Init.CounterMode = TIM_COUNTERMODE_UP;
 800082c:	4b40      	ldr	r3, [pc, #256]	; (8000930 <MX_TIM1_Init+0x150>)
 800082e:	2200      	movs	r2, #0
 8000830:	609a      	str	r2, [r3, #8]
  htim1.Init.Period = 60000;
 8000832:	4b3f      	ldr	r3, [pc, #252]	; (8000930 <MX_TIM1_Init+0x150>)
 8000834:	f64e 2260 	movw	r2, #60000	; 0xea60
 8000838:	60da      	str	r2, [r3, #12]
  htim1.Init.ClockDivision = TIM_CLOCKDIVISION_DIV1;
 800083a:	4b3d      	ldr	r3, [pc, #244]	; (8000930 <MX_TIM1_Init+0x150>)
 800083c:	2200      	movs	r2, #0
 800083e:	611a      	str	r2, [r3, #16]
  htim1.Init.RepetitionCounter = 0;
 8000840:	4b3b      	ldr	r3, [pc, #236]	; (8000930 <MX_TIM1_Init+0x150>)
 8000842:	2200      	movs	r2, #0
 8000844:	615a      	str	r2, [r3, #20]
  htim1.Init.AutoReloadPreload = TIM_AUTORELOAD_PRELOAD_DISABLE;
 8000846:	4b3a      	ldr	r3, [pc, #232]	; (8000930 <MX_TIM1_Init+0x150>)
 8000848:	2200      	movs	r2, #0
 800084a:	619a      	str	r2, [r3, #24]
  if (HAL_TIM_Base_Init(&htim1) != HAL_OK)
 800084c:	4838      	ldr	r0, [pc, #224]	; (8000930 <MX_TIM1_Init+0x150>)
 800084e:	f002 fc2f 	bl	80030b0 <HAL_TIM_Base_Init>
 8000852:	4603      	mov	r3, r0
 8000854:	2b00      	cmp	r3, #0
 8000856:	d001      	beq.n	800085c <MX_TIM1_Init+0x7c>
  {
    Error_Handler();
 8000858:	f000 fa8c 	bl	8000d74 <Error_Handler>
  }
  sClockSourceConfig.ClockSource = TIM_CLOCKSOURCE_INTERNAL;
 800085c:	f44f 5380 	mov.w	r3, #4096	; 0x1000
 8000860:	65bb      	str	r3, [r7, #88]	; 0x58
  if (HAL_TIM_ConfigClockSource(&htim1, &sClockSourceConfig) != HAL_OK)
 8000862:	f107 0358 	add.w	r3, r7, #88	; 0x58
 8000866:	4619      	mov	r1, r3
 8000868:	4831      	ldr	r0, [pc, #196]	; (8000930 <MX_TIM1_Init+0x150>)
 800086a:	f002 ff77 	bl	800375c <HAL_TIM_ConfigClockSource>
 800086e:	4603      	mov	r3, r0
 8000870:	2b00      	cmp	r3, #0
 8000872:	d001      	beq.n	8000878 <MX_TIM1_Init+0x98>
  {
    Error_Handler();
 8000874:	f000 fa7e 	bl	8000d74 <Error_Handler>
  }
  if (HAL_TIM_PWM_Init(&htim1) != HAL_OK)
 8000878:	482d      	ldr	r0, [pc, #180]	; (8000930 <MX_TIM1_Init+0x150>)
 800087a:	f002 fcfa 	bl	8003272 <HAL_TIM_PWM_Init>
 800087e:	4603      	mov	r3, r0
 8000880:	2b00      	cmp	r3, #0
 8000882:	d001      	beq.n	8000888 <MX_TIM1_Init+0xa8>
  {
    Error_Handler();
 8000884:	f000 fa76 	bl	8000d74 <Error_Handler>
  }
  sMasterConfig.MasterOutputTrigger = TIM_TRGO_RESET;
 8000888:	2300      	movs	r3, #0
 800088a:	64fb      	str	r3, [r7, #76]	; 0x4c
  sMasterConfig.MasterOutputTrigger2 = TIM_TRGO2_RESET;
 800088c:	2300      	movs	r3, #0
 800088e:	653b      	str	r3, [r7, #80]	; 0x50
  sMasterConfig.MasterSlaveMode = TIM_MASTERSLAVEMODE_DISABLE;
 8000890:	2300      	movs	r3, #0
 8000892:	657b      	str	r3, [r7, #84]	; 0x54
  if (HAL_TIMEx_MasterConfigSynchronization(&htim1, &sMasterConfig) != HAL_OK)
 8000894:	f107 034c 	add.w	r3, r7, #76	; 0x4c
 8000898:	4619      	mov	r1, r3
 800089a:	4825      	ldr	r0, [pc, #148]	; (8000930 <MX_TIM1_Init+0x150>)
 800089c:	f003 fc42 	bl	8004124 <HAL_TIMEx_MasterConfigSynchronization>
 80008a0:	4603      	mov	r3, r0
 80008a2:	2b00      	cmp	r3, #0
 80008a4:	d001      	beq.n	80008aa <MX_TIM1_Init+0xca>
  {
    Error_Handler();
 80008a6:	f000 fa65 	bl	8000d74 <Error_Handler>
  }
  sConfigOC.OCMode = TIM_OCMODE_PWM1;
 80008aa:	2360      	movs	r3, #96	; 0x60
 80008ac:	633b      	str	r3, [r7, #48]	; 0x30
  sConfigOC.Pulse = 10;
 80008ae:	230a      	movs	r3, #10
 80008b0:	637b      	str	r3, [r7, #52]	; 0x34
  sConfigOC.OCPolarity = TIM_OCPOLARITY_HIGH;
 80008b2:	2300      	movs	r3, #0
 80008b4:	63bb      	str	r3, [r7, #56]	; 0x38
  sConfigOC.OCNPolarity = TIM_OCNPOLARITY_HIGH;
 80008b6:	2300      	movs	r3, #0
 80008b8:	63fb      	str	r3, [r7, #60]	; 0x3c
  sConfigOC.OCFastMode = TIM_OCFAST_DISABLE;
 80008ba:	2300      	movs	r3, #0
 80008bc:	643b      	str	r3, [r7, #64]	; 0x40
  sConfigOC.OCIdleState = TIM_OCIDLESTATE_RESET;
 80008be:	2300      	movs	r3, #0
 80008c0:	647b      	str	r3, [r7, #68]	; 0x44
  sConfigOC.OCNIdleState = TIM_OCNIDLESTATE_RESET;
 80008c2:	2300      	movs	r3, #0
 80008c4:	64bb      	str	r3, [r7, #72]	; 0x48
  if (HAL_TIM_PWM_ConfigChannel(&htim1, &sConfigOC, TIM_CHANNEL_1) != HAL_OK)
 80008c6:	f107 0330 	add.w	r3, r7, #48	; 0x30
 80008ca:	2200      	movs	r2, #0
 80008cc:	4619      	mov	r1, r3
 80008ce:	4818      	ldr	r0, [pc, #96]	; (8000930 <MX_TIM1_Init+0x150>)
 80008d0:	f002 fe30 	bl	8003534 <HAL_TIM_PWM_ConfigChannel>
 80008d4:	4603      	mov	r3, r0
 80008d6:	2b00      	cmp	r3, #0
 80008d8:	d001      	beq.n	80008de <MX_TIM1_Init+0xfe>
  {
    Error_Handler();
 80008da:	f000 fa4b 	bl	8000d74 <Error_Handler>
  }
  sBreakDeadTimeConfig.OffStateRunMode = TIM_OSSR_DISABLE;
 80008de:	2300      	movs	r3, #0
 80008e0:	607b      	str	r3, [r7, #4]
  sBreakDeadTimeConfig.OffStateIDLEMode = TIM_OSSI_DISABLE;
 80008e2:	2300      	movs	r3, #0
 80008e4:	60bb      	str	r3, [r7, #8]
  sBreakDeadTimeConfig.LockLevel = TIM_LOCKLEVEL_OFF;
 80008e6:	2300      	movs	r3, #0
 80008e8:	60fb      	str	r3, [r7, #12]
  sBreakDeadTimeConfig.DeadTime = 0;
 80008ea:	2300      	movs	r3, #0
 80008ec:	613b      	str	r3, [r7, #16]
  sBreakDeadTimeConfig.BreakState = TIM_BREAK_DISABLE;
 80008ee:	2300      	movs	r3, #0
 80008f0:	617b      	str	r3, [r7, #20]
  sBreakDeadTimeConfig.BreakPolarity = TIM_BREAKPOLARITY_HIGH;
 80008f2:	f44f 5300 	mov.w	r3, #8192	; 0x2000
 80008f6:	61bb      	str	r3, [r7, #24]
  sBreakDeadTimeConfig.BreakFilter = 0;
 80008f8:	2300      	movs	r3, #0
 80008fa:	61fb      	str	r3, [r7, #28]
  sBreakDeadTimeConfig.Break2State = TIM_BREAK2_DISABLE;
 80008fc:	2300      	movs	r3, #0
 80008fe:	623b      	str	r3, [r7, #32]
  sBreakDeadTimeConfig.Break2Polarity = TIM_BREAK2POLARITY_HIGH;
 8000900:	f04f 7300 	mov.w	r3, #33554432	; 0x2000000
 8000904:	627b      	str	r3, [r7, #36]	; 0x24
  sBreakDeadTimeConfig.Break2Filter = 0;
 8000906:	2300      	movs	r3, #0
 8000908:	62bb      	str	r3, [r7, #40]	; 0x28
  sBreakDeadTimeConfig.AutomaticOutput = TIM_AUTOMATICOUTPUT_DISABLE;
 800090a:	2300      	movs	r3, #0
 800090c:	62fb      	str	r3, [r7, #44]	; 0x2c
  if (HAL_TIMEx_ConfigBreakDeadTime(&htim1, &sBreakDeadTimeConfig) != HAL_OK)
 800090e:	1d3b      	adds	r3, r7, #4
 8000910:	4619      	mov	r1, r3
 8000912:	4807      	ldr	r0, [pc, #28]	; (8000930 <MX_TIM1_Init+0x150>)
 8000914:	f003 fc86 	bl	8004224 <HAL_TIMEx_ConfigBreakDeadTime>
 8000918:	4603      	mov	r3, r0
 800091a:	2b00      	cmp	r3, #0
 800091c:	d001      	beq.n	8000922 <MX_TIM1_Init+0x142>
  {
    Error_Handler();
 800091e:	f000 fa29 	bl	8000d74 <Error_Handler>
  }
  /* USER CODE BEGIN TIM1_Init 2 */

  /* USER CODE END TIM1_Init 2 */
  HAL_TIM_MspPostInit(&htim1);
 8000922:	4803      	ldr	r0, [pc, #12]	; (8000930 <MX_TIM1_Init+0x150>)
 8000924:	f000 faf0 	bl	8000f08 <HAL_TIM_MspPostInit>

}
 8000928:	bf00      	nop
 800092a:	3768      	adds	r7, #104	; 0x68
 800092c:	46bd      	mov	sp, r7
 800092e:	bd80      	pop	{r7, pc}
 8000930:	20000230 	.word	0x20000230
 8000934:	40012c00 	.word	0x40012c00

08000938 <MX_TIM2_Init>:
  * @brief TIM2 Initialization Function
  * @param None
  * @retval None
  */
static void MX_TIM2_Init(void)
{
 8000938:	b580      	push	{r7, lr}
 800093a:	b08e      	sub	sp, #56	; 0x38
 800093c:	af00      	add	r7, sp, #0

  /* USER CODE BEGIN TIM2_Init 0 */

  /* USER CODE END TIM2_Init 0 */

  TIM_ClockConfigTypeDef sClockSourceConfig = {0};
 800093e:	f107 0328 	add.w	r3, r7, #40	; 0x28
 8000942:	2200      	movs	r2, #0
 8000944:	601a      	str	r2, [r3, #0]
 8000946:	605a      	str	r2, [r3, #4]
 8000948:	609a      	str	r2, [r3, #8]
 800094a:	60da      	str	r2, [r3, #12]
  TIM_MasterConfigTypeDef sMasterConfig = {0};
 800094c:	f107 031c 	add.w	r3, r7, #28
 8000950:	2200      	movs	r2, #0
 8000952:	601a      	str	r2, [r3, #0]
 8000954:	605a      	str	r2, [r3, #4]
 8000956:	609a      	str	r2, [r3, #8]
  TIM_OC_InitTypeDef sConfigOC = {0};
 8000958:	463b      	mov	r3, r7
 800095a:	2200      	movs	r2, #0
 800095c:	601a      	str	r2, [r3, #0]
 800095e:	605a      	str	r2, [r3, #4]
 8000960:	609a      	str	r2, [r3, #8]
 8000962:	60da      	str	r2, [r3, #12]
 8000964:	611a      	str	r2, [r3, #16]
 8000966:	615a      	str	r2, [r3, #20]
 8000968:	619a      	str	r2, [r3, #24]

  /* USER CODE BEGIN TIM2_Init 1 */

  /* USER CODE END TIM2_Init 1 */
  htim2.Instance = TIM2;
 800096a:	4b33      	ldr	r3, [pc, #204]	; (8000a38 <MX_TIM2_Init+0x100>)
 800096c:	f04f 4280 	mov.w	r2, #1073741824	; 0x40000000
 8000970:	601a      	str	r2, [r3, #0]
  htim2.Init.Prescaler = 48-1;
 8000972:	4b31      	ldr	r3, [pc, #196]	; (8000a38 <MX_TIM2_Init+0x100>)
 8000974:	222f      	movs	r2, #47	; 0x2f
 8000976:	605a      	str	r2, [r3, #4]
  htim2.Init.CounterMode = TIM_COUNTERMODE_UP;
 8000978:	4b2f      	ldr	r3, [pc, #188]	; (8000a38 <MX_TIM2_Init+0x100>)
 800097a:	2200      	movs	r2, #0
 800097c:	609a      	str	r2, [r3, #8]
  htim2.Init.Period = 20000-1;
 800097e:	4b2e      	ldr	r3, [pc, #184]	; (8000a38 <MX_TIM2_Init+0x100>)
 8000980:	f644 621f 	movw	r2, #19999	; 0x4e1f
 8000984:	60da      	str	r2, [r3, #12]
  htim2.Init.ClockDivision = TIM_CLOCKDIVISION_DIV1;
 8000986:	4b2c      	ldr	r3, [pc, #176]	; (8000a38 <MX_TIM2_Init+0x100>)
 8000988:	2200      	movs	r2, #0
 800098a:	611a      	str	r2, [r3, #16]
  htim2.Init.AutoReloadPreload = TIM_AUTORELOAD_PRELOAD_DISABLE;
 800098c:	4b2a      	ldr	r3, [pc, #168]	; (8000a38 <MX_TIM2_Init+0x100>)
 800098e:	2200      	movs	r2, #0
 8000990:	619a      	str	r2, [r3, #24]
  if (HAL_TIM_Base_Init(&htim2) != HAL_OK)
 8000992:	4829      	ldr	r0, [pc, #164]	; (8000a38 <MX_TIM2_Init+0x100>)
 8000994:	f002 fb8c 	bl	80030b0 <HAL_TIM_Base_Init>
 8000998:	4603      	mov	r3, r0
 800099a:	2b00      	cmp	r3, #0
 800099c:	d001      	beq.n	80009a2 <MX_TIM2_Init+0x6a>
  {
    Error_Handler();
 800099e:	f000 f9e9 	bl	8000d74 <Error_Handler>
  }
  sClockSourceConfig.ClockSource = TIM_CLOCKSOURCE_INTERNAL;
 80009a2:	f44f 5380 	mov.w	r3, #4096	; 0x1000
 80009a6:	62bb      	str	r3, [r7, #40]	; 0x28
  if (HAL_TIM_ConfigClockSource(&htim2, &sClockSourceConfig) != HAL_OK)
 80009a8:	f107 0328 	add.w	r3, r7, #40	; 0x28
 80009ac:	4619      	mov	r1, r3
 80009ae:	4822      	ldr	r0, [pc, #136]	; (8000a38 <MX_TIM2_Init+0x100>)
 80009b0:	f002 fed4 	bl	800375c <HAL_TIM_ConfigClockSource>
 80009b4:	4603      	mov	r3, r0
 80009b6:	2b00      	cmp	r3, #0
 80009b8:	d001      	beq.n	80009be <MX_TIM2_Init+0x86>
  {
    Error_Handler();
 80009ba:	f000 f9db 	bl	8000d74 <Error_Handler>
  }
  if (HAL_TIM_PWM_Init(&htim2) != HAL_OK)
 80009be:	481e      	ldr	r0, [pc, #120]	; (8000a38 <MX_TIM2_Init+0x100>)
 80009c0:	f002 fc57 	bl	8003272 <HAL_TIM_PWM_Init>
 80009c4:	4603      	mov	r3, r0
 80009c6:	2b00      	cmp	r3, #0
 80009c8:	d001      	beq.n	80009ce <MX_TIM2_Init+0x96>
  {
    Error_Handler();
 80009ca:	f000 f9d3 	bl	8000d74 <Error_Handler>
  }
  sMasterConfig.MasterOutputTrigger = TIM_TRGO_RESET;
 80009ce:	2300      	movs	r3, #0
 80009d0:	61fb      	str	r3, [r7, #28]
  sMasterConfig.MasterSlaveMode = TIM_MASTERSLAVEMODE_DISABLE;
 80009d2:	2300      	movs	r3, #0
 80009d4:	627b      	str	r3, [r7, #36]	; 0x24
  if (HAL_TIMEx_MasterConfigSynchronization(&htim2, &sMasterConfig) != HAL_OK)
 80009d6:	f107 031c 	add.w	r3, r7, #28
 80009da:	4619      	mov	r1, r3
 80009dc:	4816      	ldr	r0, [pc, #88]	; (8000a38 <MX_TIM2_Init+0x100>)
 80009de:	f003 fba1 	bl	8004124 <HAL_TIMEx_MasterConfigSynchronization>
 80009e2:	4603      	mov	r3, r0
 80009e4:	2b00      	cmp	r3, #0
 80009e6:	d001      	beq.n	80009ec <MX_TIM2_Init+0xb4>
  {
    Error_Handler();
 80009e8:	f000 f9c4 	bl	8000d74 <Error_Handler>
  }
  sConfigOC.OCMode = TIM_OCMODE_PWM1;
 80009ec:	2360      	movs	r3, #96	; 0x60
 80009ee:	603b      	str	r3, [r7, #0]
  sConfigOC.Pulse = 0;
 80009f0:	2300      	movs	r3, #0
 80009f2:	607b      	str	r3, [r7, #4]
  sConfigOC.OCPolarity = TIM_OCPOLARITY_HIGH;
 80009f4:	2300      	movs	r3, #0
 80009f6:	60bb      	str	r3, [r7, #8]
  sConfigOC.OCFastMode = TIM_OCFAST_DISABLE;
 80009f8:	2300      	movs	r3, #0
 80009fa:	613b      	str	r3, [r7, #16]
  if (HAL_TIM_PWM_ConfigChannel(&htim2, &sConfigOC, TIM_CHANNEL_1) != HAL_OK)
 80009fc:	463b      	mov	r3, r7
 80009fe:	2200      	movs	r2, #0
 8000a00:	4619      	mov	r1, r3
 8000a02:	480d      	ldr	r0, [pc, #52]	; (8000a38 <MX_TIM2_Init+0x100>)
 8000a04:	f002 fd96 	bl	8003534 <HAL_TIM_PWM_ConfigChannel>
 8000a08:	4603      	mov	r3, r0
 8000a0a:	2b00      	cmp	r3, #0
 8000a0c:	d001      	beq.n	8000a12 <MX_TIM2_Init+0xda>
  {
    Error_Handler();
 8000a0e:	f000 f9b1 	bl	8000d74 <Error_Handler>
  }
  if (HAL_TIM_PWM_ConfigChannel(&htim2, &sConfigOC, TIM_CHANNEL_2) != HAL_OK)
 8000a12:	463b      	mov	r3, r7
 8000a14:	2204      	movs	r2, #4
 8000a16:	4619      	mov	r1, r3
 8000a18:	4807      	ldr	r0, [pc, #28]	; (8000a38 <MX_TIM2_Init+0x100>)
 8000a1a:	f002 fd8b 	bl	8003534 <HAL_TIM_PWM_ConfigChannel>
 8000a1e:	4603      	mov	r3, r0
 8000a20:	2b00      	cmp	r3, #0
 8000a22:	d001      	beq.n	8000a28 <MX_TIM2_Init+0xf0>
  {
    Error_Handler();
 8000a24:	f000 f9a6 	bl	8000d74 <Error_Handler>
  }
  /* USER CODE BEGIN TIM2_Init 2 */

  /* USER CODE END TIM2_Init 2 */
  HAL_TIM_MspPostInit(&htim2);
 8000a28:	4803      	ldr	r0, [pc, #12]	; (8000a38 <MX_TIM2_Init+0x100>)
 8000a2a:	f000 fa6d 	bl	8000f08 <HAL_TIM_MspPostInit>

}
 8000a2e:	bf00      	nop
 8000a30:	3738      	adds	r7, #56	; 0x38
 8000a32:	46bd      	mov	sp, r7
 8000a34:	bd80      	pop	{r7, pc}
 8000a36:	bf00      	nop
 8000a38:	20000300 	.word	0x20000300

08000a3c <MX_TIM4_Init>:
  * @brief TIM4 Initialization Function
  * @param None
  * @retval None
  */
static void MX_TIM4_Init(void)
{
 8000a3c:	b580      	push	{r7, lr}
 8000a3e:	b088      	sub	sp, #32
 8000a40:	af00      	add	r7, sp, #0

  /* USER CODE BEGIN TIM4_Init 0 */

  /* USER CODE END TIM4_Init 0 */

  TIM_ClockConfigTypeDef sClockSourceConfig = {0};
 8000a42:	f107 0310 	add.w	r3, r7, #16
 8000a46:	2200      	movs	r2, #0
 8000a48:	601a      	str	r2, [r3, #0]
 8000a4a:	605a      	str	r2, [r3, #4]
 8000a4c:	609a      	str	r2, [r3, #8]
 8000a4e:	60da      	str	r2, [r3, #12]
  TIM_MasterConfigTypeDef sMasterConfig = {0};
 8000a50:	1d3b      	adds	r3, r7, #4
 8000a52:	2200      	movs	r2, #0
 8000a54:	601a      	str	r2, [r3, #0]
 8000a56:	605a      	str	r2, [r3, #4]
 8000a58:	609a      	str	r2, [r3, #8]

  /* USER CODE BEGIN TIM4_Init 1 */

  /* USER CODE END TIM4_Init 1 */
  htim4.Instance = TIM4;
 8000a5a:	4b1d      	ldr	r3, [pc, #116]	; (8000ad0 <MX_TIM4_Init+0x94>)
 8000a5c:	4a1d      	ldr	r2, [pc, #116]	; (8000ad4 <MX_TIM4_Init+0x98>)
 8000a5e:	601a      	str	r2, [r3, #0]
  htim4.Init.Prescaler = 48;
 8000a60:	4b1b      	ldr	r3, [pc, #108]	; (8000ad0 <MX_TIM4_Init+0x94>)
 8000a62:	2230      	movs	r2, #48	; 0x30
 8000a64:	605a      	str	r2, [r3, #4]
  htim4.Init.CounterMode = TIM_COUNTERMODE_UP;
 8000a66:	4b1a      	ldr	r3, [pc, #104]	; (8000ad0 <MX_TIM4_Init+0x94>)
 8000a68:	2200      	movs	r2, #0
 8000a6a:	609a      	str	r2, [r3, #8]
  htim4.Init.Period = 65535;
 8000a6c:	4b18      	ldr	r3, [pc, #96]	; (8000ad0 <MX_TIM4_Init+0x94>)
 8000a6e:	f64f 72ff 	movw	r2, #65535	; 0xffff
 8000a72:	60da      	str	r2, [r3, #12]
  htim4.Init.ClockDivision = TIM_CLOCKDIVISION_DIV1;
 8000a74:	4b16      	ldr	r3, [pc, #88]	; (8000ad0 <MX_TIM4_Init+0x94>)
 8000a76:	2200      	movs	r2, #0
 8000a78:	611a      	str	r2, [r3, #16]
  htim4.Init.AutoReloadPreload = TIM_AUTORELOAD_PRELOAD_DISABLE;
 8000a7a:	4b15      	ldr	r3, [pc, #84]	; (8000ad0 <MX_TIM4_Init+0x94>)
 8000a7c:	2200      	movs	r2, #0
 8000a7e:	619a      	str	r2, [r3, #24]
  if (HAL_TIM_Base_Init(&htim4) != HAL_OK)
 8000a80:	4813      	ldr	r0, [pc, #76]	; (8000ad0 <MX_TIM4_Init+0x94>)
 8000a82:	f002 fb15 	bl	80030b0 <HAL_TIM_Base_Init>
 8000a86:	4603      	mov	r3, r0
 8000a88:	2b00      	cmp	r3, #0
 8000a8a:	d001      	beq.n	8000a90 <MX_TIM4_Init+0x54>
  {
    Error_Handler();
 8000a8c:	f000 f972 	bl	8000d74 <Error_Handler>
  }
  sClockSourceConfig.ClockSource = TIM_CLOCKSOURCE_INTERNAL;
 8000a90:	f44f 5380 	mov.w	r3, #4096	; 0x1000
 8000a94:	613b      	str	r3, [r7, #16]
  if (HAL_TIM_ConfigClockSource(&htim4, &sClockSourceConfig) != HAL_OK)
 8000a96:	f107 0310 	add.w	r3, r7, #16
 8000a9a:	4619      	mov	r1, r3
 8000a9c:	480c      	ldr	r0, [pc, #48]	; (8000ad0 <MX_TIM4_Init+0x94>)
 8000a9e:	f002 fe5d 	bl	800375c <HAL_TIM_ConfigClockSource>
 8000aa2:	4603      	mov	r3, r0
 8000aa4:	2b00      	cmp	r3, #0
 8000aa6:	d001      	beq.n	8000aac <MX_TIM4_Init+0x70>
  {
    Error_Handler();
 8000aa8:	f000 f964 	bl	8000d74 <Error_Handler>
  }
  sMasterConfig.MasterOutputTrigger = TIM_TRGO_RESET;
 8000aac:	2300      	movs	r3, #0
 8000aae:	607b      	str	r3, [r7, #4]
  sMasterConfig.MasterSlaveMode = TIM_MASTERSLAVEMODE_DISABLE;
 8000ab0:	2300      	movs	r3, #0
 8000ab2:	60fb      	str	r3, [r7, #12]
  if (HAL_TIMEx_MasterConfigSynchronization(&htim4, &sMasterConfig) != HAL_OK)
 8000ab4:	1d3b      	adds	r3, r7, #4
 8000ab6:	4619      	mov	r1, r3
 8000ab8:	4805      	ldr	r0, [pc, #20]	; (8000ad0 <MX_TIM4_Init+0x94>)
 8000aba:	f003 fb33 	bl	8004124 <HAL_TIMEx_MasterConfigSynchronization>
 8000abe:	4603      	mov	r3, r0
 8000ac0:	2b00      	cmp	r3, #0
 8000ac2:	d001      	beq.n	8000ac8 <MX_TIM4_Init+0x8c>
  {
    Error_Handler();
 8000ac4:	f000 f956 	bl	8000d74 <Error_Handler>
  }
  /* USER CODE BEGIN TIM4_Init 2 */

  /* USER CODE END TIM4_Init 2 */

}
 8000ac8:	bf00      	nop
 8000aca:	3720      	adds	r7, #32
 8000acc:	46bd      	mov	sp, r7
 8000ace:	bd80      	pop	{r7, pc}
 8000ad0:	200000f8 	.word	0x200000f8
 8000ad4:	40000800 	.word	0x40000800

08000ad8 <MX_UART4_Init>:
  * @brief UART4 Initialization Function
  * @param None
  * @retval None
  */
static void MX_UART4_Init(void)
{
 8000ad8:	b580      	push	{r7, lr}
 8000ada:	af00      	add	r7, sp, #0
  /* USER CODE END UART4_Init 0 */

  /* USER CODE BEGIN UART4_Init 1 */

  /* USER CODE END UART4_Init 1 */
  huart4.Instance = UART4;
 8000adc:	4b16      	ldr	r3, [pc, #88]	; (8000b38 <MX_UART4_Init+0x60>)
 8000ade:	4a17      	ldr	r2, [pc, #92]	; (8000b3c <MX_UART4_Init+0x64>)
 8000ae0:	601a      	str	r2, [r3, #0]
  huart4.Init.BaudRate = 19200;
 8000ae2:	4b15      	ldr	r3, [pc, #84]	; (8000b38 <MX_UART4_Init+0x60>)
 8000ae4:	f44f 4296 	mov.w	r2, #19200	; 0x4b00
 8000ae8:	605a      	str	r2, [r3, #4]
  huart4.Init.WordLength = UART_WORDLENGTH_8B;
 8000aea:	4b13      	ldr	r3, [pc, #76]	; (8000b38 <MX_UART4_Init+0x60>)
 8000aec:	2200      	movs	r2, #0
 8000aee:	609a      	str	r2, [r3, #8]
  huart4.Init.StopBits = UART_STOPBITS_1;
 8000af0:	4b11      	ldr	r3, [pc, #68]	; (8000b38 <MX_UART4_Init+0x60>)
 8000af2:	2200      	movs	r2, #0
 8000af4:	60da      	str	r2, [r3, #12]
  huart4.Init.Parity = UART_PARITY_NONE;
 8000af6:	4b10      	ldr	r3, [pc, #64]	; (8000b38 <MX_UART4_Init+0x60>)
 8000af8:	2200      	movs	r2, #0
 8000afa:	611a      	str	r2, [r3, #16]
  huart4.Init.Mode = UART_MODE_TX_RX;
 8000afc:	4b0e      	ldr	r3, [pc, #56]	; (8000b38 <MX_UART4_Init+0x60>)
 8000afe:	220c      	movs	r2, #12
 8000b00:	615a      	str	r2, [r3, #20]
  huart4.Init.HwFlowCtl = UART_HWCONTROL_NONE;
 8000b02:	4b0d      	ldr	r3, [pc, #52]	; (8000b38 <MX_UART4_Init+0x60>)
 8000b04:	2200      	movs	r2, #0
 8000b06:	619a      	str	r2, [r3, #24]
  huart4.Init.OverSampling = UART_OVERSAMPLING_16;
 8000b08:	4b0b      	ldr	r3, [pc, #44]	; (8000b38 <MX_UART4_Init+0x60>)
 8000b0a:	2200      	movs	r2, #0
 8000b0c:	61da      	str	r2, [r3, #28]
  huart4.Init.OneBitSampling = UART_ONE_BIT_SAMPLE_DISABLE;
 8000b0e:	4b0a      	ldr	r3, [pc, #40]	; (8000b38 <MX_UART4_Init+0x60>)
 8000b10:	2200      	movs	r2, #0
 8000b12:	621a      	str	r2, [r3, #32]
  huart4.AdvancedInit.AdvFeatureInit = UART_ADVFEATURE_RXOVERRUNDISABLE_INIT;
 8000b14:	4b08      	ldr	r3, [pc, #32]	; (8000b38 <MX_UART4_Init+0x60>)
 8000b16:	2210      	movs	r2, #16
 8000b18:	625a      	str	r2, [r3, #36]	; 0x24
  huart4.AdvancedInit.OverrunDisable = UART_ADVFEATURE_OVERRUN_DISABLE;
 8000b1a:	4b07      	ldr	r3, [pc, #28]	; (8000b38 <MX_UART4_Init+0x60>)
 8000b1c:	f44f 5280 	mov.w	r2, #4096	; 0x1000
 8000b20:	639a      	str	r2, [r3, #56]	; 0x38
  if (HAL_UART_Init(&huart4) != HAL_OK)
 8000b22:	4805      	ldr	r0, [pc, #20]	; (8000b38 <MX_UART4_Init+0x60>)
 8000b24:	f003 fbfc 	bl	8004320 <HAL_UART_Init>
 8000b28:	4603      	mov	r3, r0
 8000b2a:	2b00      	cmp	r3, #0
 8000b2c:	d001      	beq.n	8000b32 <MX_UART4_Init+0x5a>
  {
    Error_Handler();
 8000b2e:	f000 f921 	bl	8000d74 <Error_Handler>
  }
  /* USER CODE BEGIN UART4_Init 2 */

  /* USER CODE END UART4_Init 2 */

}
 8000b32:	bf00      	nop
 8000b34:	bd80      	pop	{r7, pc}
 8000b36:	bf00      	nop
 8000b38:	2000027c 	.word	0x2000027c
 8000b3c:	40004c00 	.word	0x40004c00

08000b40 <MX_UART5_Init>:
  * @brief UART5 Initialization Function
  * @param None
  * @retval None
  */
static void MX_UART5_Init(void)
{
 8000b40:	b580      	push	{r7, lr}
 8000b42:	af00      	add	r7, sp, #0
  /* USER CODE END UART5_Init 0 */

  /* USER CODE BEGIN UART5_Init 1 */

  /* USER CODE END UART5_Init 1 */
  huart5.Instance = UART5;
 8000b44:	4b16      	ldr	r3, [pc, #88]	; (8000ba0 <MX_UART5_Init+0x60>)
 8000b46:	4a17      	ldr	r2, [pc, #92]	; (8000ba4 <MX_UART5_Init+0x64>)
 8000b48:	601a      	str	r2, [r3, #0]
  huart5.Init.BaudRate = 19200;
 8000b4a:	4b15      	ldr	r3, [pc, #84]	; (8000ba0 <MX_UART5_Init+0x60>)
 8000b4c:	f44f 4296 	mov.w	r2, #19200	; 0x4b00
 8000b50:	605a      	str	r2, [r3, #4]
  huart5.Init.WordLength = UART_WORDLENGTH_8B;
 8000b52:	4b13      	ldr	r3, [pc, #76]	; (8000ba0 <MX_UART5_Init+0x60>)
 8000b54:	2200      	movs	r2, #0
 8000b56:	609a      	str	r2, [r3, #8]
  huart5.Init.StopBits = UART_STOPBITS_1;
 8000b58:	4b11      	ldr	r3, [pc, #68]	; (8000ba0 <MX_UART5_Init+0x60>)
 8000b5a:	2200      	movs	r2, #0
 8000b5c:	60da      	str	r2, [r3, #12]
  huart5.Init.Parity = UART_PARITY_NONE;
 8000b5e:	4b10      	ldr	r3, [pc, #64]	; (8000ba0 <MX_UART5_Init+0x60>)
 8000b60:	2200      	movs	r2, #0
 8000b62:	611a      	str	r2, [r3, #16]
  huart5.Init.Mode = UART_MODE_TX_RX;
 8000b64:	4b0e      	ldr	r3, [pc, #56]	; (8000ba0 <MX_UART5_Init+0x60>)
 8000b66:	220c      	movs	r2, #12
 8000b68:	615a      	str	r2, [r3, #20]
  huart5.Init.HwFlowCtl = UART_HWCONTROL_NONE;
 8000b6a:	4b0d      	ldr	r3, [pc, #52]	; (8000ba0 <MX_UART5_Init+0x60>)
 8000b6c:	2200      	movs	r2, #0
 8000b6e:	619a      	str	r2, [r3, #24]
  huart5.Init.OverSampling = UART_OVERSAMPLING_16;
 8000b70:	4b0b      	ldr	r3, [pc, #44]	; (8000ba0 <MX_UART5_Init+0x60>)
 8000b72:	2200      	movs	r2, #0
 8000b74:	61da      	str	r2, [r3, #28]
  huart5.Init.OneBitSampling = UART_ONE_BIT_SAMPLE_DISABLE;
 8000b76:	4b0a      	ldr	r3, [pc, #40]	; (8000ba0 <MX_UART5_Init+0x60>)
 8000b78:	2200      	movs	r2, #0
 8000b7a:	621a      	str	r2, [r3, #32]
  huart5.AdvancedInit.AdvFeatureInit = UART_ADVFEATURE_RXOVERRUNDISABLE_INIT;
 8000b7c:	4b08      	ldr	r3, [pc, #32]	; (8000ba0 <MX_UART5_Init+0x60>)
 8000b7e:	2210      	movs	r2, #16
 8000b80:	625a      	str	r2, [r3, #36]	; 0x24
  huart5.AdvancedInit.OverrunDisable = UART_ADVFEATURE_OVERRUN_DISABLE;
 8000b82:	4b07      	ldr	r3, [pc, #28]	; (8000ba0 <MX_UART5_Init+0x60>)
 8000b84:	f44f 5280 	mov.w	r2, #4096	; 0x1000
 8000b88:	639a      	str	r2, [r3, #56]	; 0x38
  if (HAL_UART_Init(&huart5) != HAL_OK)
 8000b8a:	4805      	ldr	r0, [pc, #20]	; (8000ba0 <MX_UART5_Init+0x60>)
 8000b8c:	f003 fbc8 	bl	8004320 <HAL_UART_Init>
 8000b90:	4603      	mov	r3, r0
 8000b92:	2b00      	cmp	r3, #0
 8000b94:	d001      	beq.n	8000b9a <MX_UART5_Init+0x5a>
  {
    Error_Handler();
 8000b96:	f000 f8ed 	bl	8000d74 <Error_Handler>
  }
  /* USER CODE BEGIN UART5_Init 2 */

  /* USER CODE END UART5_Init 2 */

}
 8000b9a:	bf00      	nop
 8000b9c:	bd80      	pop	{r7, pc}
 8000b9e:	bf00      	nop
 8000ba0:	200001ac 	.word	0x200001ac
 8000ba4:	40005000 	.word	0x40005000

08000ba8 <MX_DMA_Init>:

/**
  * Enable DMA controller clock
  */
static void MX_DMA_Init(void)
{
 8000ba8:	b580      	push	{r7, lr}
 8000baa:	b082      	sub	sp, #8
 8000bac:	af00      	add	r7, sp, #0

  /* DMA controller clock enable */
  __HAL_RCC_DMA1_CLK_ENABLE();
 8000bae:	4b10      	ldr	r3, [pc, #64]	; (8000bf0 <MX_DMA_Init+0x48>)
 8000bb0:	695b      	ldr	r3, [r3, #20]
 8000bb2:	4a0f      	ldr	r2, [pc, #60]	; (8000bf0 <MX_DMA_Init+0x48>)
 8000bb4:	f043 0301 	orr.w	r3, r3, #1
 8000bb8:	6153      	str	r3, [r2, #20]
 8000bba:	4b0d      	ldr	r3, [pc, #52]	; (8000bf0 <MX_DMA_Init+0x48>)
 8000bbc:	695b      	ldr	r3, [r3, #20]
 8000bbe:	f003 0301 	and.w	r3, r3, #1
 8000bc2:	607b      	str	r3, [r7, #4]
 8000bc4:	687b      	ldr	r3, [r7, #4]

  /* DMA interrupt init */
  /* DMA1_Channel5_IRQn interrupt configuration */
  HAL_NVIC_SetPriority(DMA1_Channel5_IRQn, 0, 0);
 8000bc6:	2200      	movs	r2, #0
 8000bc8:	2100      	movs	r1, #0
 8000bca:	200f      	movs	r0, #15
 8000bcc:	f000 fc7b 	bl	80014c6 <HAL_NVIC_SetPriority>
  HAL_NVIC_EnableIRQ(DMA1_Channel5_IRQn);
 8000bd0:	200f      	movs	r0, #15
 8000bd2:	f000 fc94 	bl	80014fe <HAL_NVIC_EnableIRQ>
  /* DMA1_Channel7_IRQn interrupt configuration */
  HAL_NVIC_SetPriority(DMA1_Channel7_IRQn, 0, 0);
 8000bd6:	2200      	movs	r2, #0
 8000bd8:	2100      	movs	r1, #0
 8000bda:	2011      	movs	r0, #17
 8000bdc:	f000 fc73 	bl	80014c6 <HAL_NVIC_SetPriority>
  HAL_NVIC_EnableIRQ(DMA1_Channel7_IRQn);
 8000be0:	2011      	movs	r0, #17
 8000be2:	f000 fc8c 	bl	80014fe <HAL_NVIC_EnableIRQ>

}
 8000be6:	bf00      	nop
 8000be8:	3708      	adds	r7, #8
 8000bea:	46bd      	mov	sp, r7
 8000bec:	bd80      	pop	{r7, pc}
 8000bee:	bf00      	nop
 8000bf0:	40021000 	.word	0x40021000

08000bf4 <MX_GPIO_Init>:
  * @brief GPIO Initialization Function
  * @param None
  * @retval None
  */
static void MX_GPIO_Init(void)
{
 8000bf4:	b580      	push	{r7, lr}
 8000bf6:	b08c      	sub	sp, #48	; 0x30
 8000bf8:	af00      	add	r7, sp, #0
  GPIO_InitTypeDef GPIO_InitStruct = {0};
 8000bfa:	f107 031c 	add.w	r3, r7, #28
 8000bfe:	2200      	movs	r2, #0
 8000c00:	601a      	str	r2, [r3, #0]
 8000c02:	605a      	str	r2, [r3, #4]
 8000c04:	609a      	str	r2, [r3, #8]
 8000c06:	60da      	str	r2, [r3, #12]
 8000c08:	611a      	str	r2, [r3, #16]

  /* GPIO Ports Clock Enable */
  __HAL_RCC_GPIOE_CLK_ENABLE();
 8000c0a:	4b57      	ldr	r3, [pc, #348]	; (8000d68 <MX_GPIO_Init+0x174>)
 8000c0c:	695b      	ldr	r3, [r3, #20]
 8000c0e:	4a56      	ldr	r2, [pc, #344]	; (8000d68 <MX_GPIO_Init+0x174>)
 8000c10:	f443 1300 	orr.w	r3, r3, #2097152	; 0x200000
 8000c14:	6153      	str	r3, [r2, #20]
 8000c16:	4b54      	ldr	r3, [pc, #336]	; (8000d68 <MX_GPIO_Init+0x174>)
 8000c18:	695b      	ldr	r3, [r3, #20]
 8000c1a:	f403 1300 	and.w	r3, r3, #2097152	; 0x200000
 8000c1e:	61bb      	str	r3, [r7, #24]
 8000c20:	69bb      	ldr	r3, [r7, #24]
  __HAL_RCC_GPIOC_CLK_ENABLE();
 8000c22:	4b51      	ldr	r3, [pc, #324]	; (8000d68 <MX_GPIO_Init+0x174>)
 8000c24:	695b      	ldr	r3, [r3, #20]
 8000c26:	4a50      	ldr	r2, [pc, #320]	; (8000d68 <MX_GPIO_Init+0x174>)
 8000c28:	f443 2300 	orr.w	r3, r3, #524288	; 0x80000
 8000c2c:	6153      	str	r3, [r2, #20]
 8000c2e:	4b4e      	ldr	r3, [pc, #312]	; (8000d68 <MX_GPIO_Init+0x174>)
 8000c30:	695b      	ldr	r3, [r3, #20]
 8000c32:	f403 2300 	and.w	r3, r3, #524288	; 0x80000
 8000c36:	617b      	str	r3, [r7, #20]
 8000c38:	697b      	ldr	r3, [r7, #20]
  __HAL_RCC_GPIOF_CLK_ENABLE();
 8000c3a:	4b4b      	ldr	r3, [pc, #300]	; (8000d68 <MX_GPIO_Init+0x174>)
 8000c3c:	695b      	ldr	r3, [r3, #20]
 8000c3e:	4a4a      	ldr	r2, [pc, #296]	; (8000d68 <MX_GPIO_Init+0x174>)
 8000c40:	f443 0380 	orr.w	r3, r3, #4194304	; 0x400000
 8000c44:	6153      	str	r3, [r2, #20]
 8000c46:	4b48      	ldr	r3, [pc, #288]	; (8000d68 <MX_GPIO_Init+0x174>)
 8000c48:	695b      	ldr	r3, [r3, #20]
 8000c4a:	f403 0380 	and.w	r3, r3, #4194304	; 0x400000
 8000c4e:	613b      	str	r3, [r7, #16]
 8000c50:	693b      	ldr	r3, [r7, #16]
  __HAL_RCC_GPIOA_CLK_ENABLE();
 8000c52:	4b45      	ldr	r3, [pc, #276]	; (8000d68 <MX_GPIO_Init+0x174>)
 8000c54:	695b      	ldr	r3, [r3, #20]
 8000c56:	4a44      	ldr	r2, [pc, #272]	; (8000d68 <MX_GPIO_Init+0x174>)
 8000c58:	f443 3300 	orr.w	r3, r3, #131072	; 0x20000
 8000c5c:	6153      	str	r3, [r2, #20]
 8000c5e:	4b42      	ldr	r3, [pc, #264]	; (8000d68 <MX_GPIO_Init+0x174>)
 8000c60:	695b      	ldr	r3, [r3, #20]
 8000c62:	f403 3300 	and.w	r3, r3, #131072	; 0x20000
 8000c66:	60fb      	str	r3, [r7, #12]
 8000c68:	68fb      	ldr	r3, [r7, #12]
  __HAL_RCC_GPIOB_CLK_ENABLE();
 8000c6a:	4b3f      	ldr	r3, [pc, #252]	; (8000d68 <MX_GPIO_Init+0x174>)
 8000c6c:	695b      	ldr	r3, [r3, #20]
 8000c6e:	4a3e      	ldr	r2, [pc, #248]	; (8000d68 <MX_GPIO_Init+0x174>)
 8000c70:	f443 2380 	orr.w	r3, r3, #262144	; 0x40000
 8000c74:	6153      	str	r3, [r2, #20]
 8000c76:	4b3c      	ldr	r3, [pc, #240]	; (8000d68 <MX_GPIO_Init+0x174>)
 8000c78:	695b      	ldr	r3, [r3, #20]
 8000c7a:	f403 2380 	and.w	r3, r3, #262144	; 0x40000
 8000c7e:	60bb      	str	r3, [r7, #8]
 8000c80:	68bb      	ldr	r3, [r7, #8]
  __HAL_RCC_GPIOD_CLK_ENABLE();
 8000c82:	4b39      	ldr	r3, [pc, #228]	; (8000d68 <MX_GPIO_Init+0x174>)
 8000c84:	695b      	ldr	r3, [r3, #20]
 8000c86:	4a38      	ldr	r2, [pc, #224]	; (8000d68 <MX_GPIO_Init+0x174>)
 8000c88:	f443 1380 	orr.w	r3, r3, #1048576	; 0x100000
 8000c8c:	6153      	str	r3, [r2, #20]
 8000c8e:	4b36      	ldr	r3, [pc, #216]	; (8000d68 <MX_GPIO_Init+0x174>)
 8000c90:	695b      	ldr	r3, [r3, #20]
 8000c92:	f403 1380 	and.w	r3, r3, #1048576	; 0x100000
 8000c96:	607b      	str	r3, [r7, #4]
 8000c98:	687b      	ldr	r3, [r7, #4]

  /*Configure GPIO pin Output Level */
  HAL_GPIO_WritePin(GPIOE, CS_I2C_SPI_Pin|LD4_Pin|LD3_Pin|LD7_Pin
 8000c9a:	2200      	movs	r2, #0
 8000c9c:	f64b 3108 	movw	r1, #47880	; 0xbb08
 8000ca0:	4832      	ldr	r0, [pc, #200]	; (8000d6c <MX_GPIO_Init+0x178>)
 8000ca2:	f000 feff 	bl	8001aa4 <HAL_GPIO_WritePin>
                          |LD9_Pin|LD10_Pin|LD6_Pin, GPIO_PIN_RESET);

  /*Configure GPIO pins : DRDY_Pin MEMS_INT3_Pin MEMS_INT4_Pin MEMS_INT1_Pin
                           MEMS_INT2_Pin */
  GPIO_InitStruct.Pin = DRDY_Pin|MEMS_INT3_Pin|MEMS_INT4_Pin|MEMS_INT1_Pin
 8000ca6:	2337      	movs	r3, #55	; 0x37
 8000ca8:	61fb      	str	r3, [r7, #28]
                          |MEMS_INT2_Pin;
  GPIO_InitStruct.Mode = GPIO_MODE_EVT_RISING;
 8000caa:	f44f 1390 	mov.w	r3, #1179648	; 0x120000
 8000cae:	623b      	str	r3, [r7, #32]
  GPIO_InitStruct.Pull = GPIO_NOPULL;
 8000cb0:	2300      	movs	r3, #0
 8000cb2:	627b      	str	r3, [r7, #36]	; 0x24
  HAL_GPIO_Init(GPIOE, &GPIO_InitStruct);
 8000cb4:	f107 031c 	add.w	r3, r7, #28
 8000cb8:	4619      	mov	r1, r3
 8000cba:	482c      	ldr	r0, [pc, #176]	; (8000d6c <MX_GPIO_Init+0x178>)
 8000cbc:	f000 fd60 	bl	8001780 <HAL_GPIO_Init>

  /*Configure GPIO pins : CS_I2C_SPI_Pin LD4_Pin LD3_Pin LD7_Pin
                           LD9_Pin LD10_Pin LD6_Pin */
  GPIO_InitStruct.Pin = CS_I2C_SPI_Pin|LD4_Pin|LD3_Pin|LD7_Pin
 8000cc0:	f64b 3308 	movw	r3, #47880	; 0xbb08
 8000cc4:	61fb      	str	r3, [r7, #28]
                          |LD9_Pin|LD10_Pin|LD6_Pin;
  GPIO_InitStruct.Mode = GPIO_MODE_OUTPUT_PP;
 8000cc6:	2301      	movs	r3, #1
 8000cc8:	623b      	str	r3, [r7, #32]
  GPIO_InitStruct.Pull = GPIO_NOPULL;
 8000cca:	2300      	movs	r3, #0
 8000ccc:	627b      	str	r3, [r7, #36]	; 0x24
  GPIO_InitStruct.Speed = GPIO_SPEED_FREQ_LOW;
 8000cce:	2300      	movs	r3, #0
 8000cd0:	62bb      	str	r3, [r7, #40]	; 0x28
  HAL_GPIO_Init(GPIOE, &GPIO_InitStruct);
 8000cd2:	f107 031c 	add.w	r3, r7, #28
 8000cd6:	4619      	mov	r1, r3
 8000cd8:	4824      	ldr	r0, [pc, #144]	; (8000d6c <MX_GPIO_Init+0x178>)
 8000cda:	f000 fd51 	bl	8001780 <HAL_GPIO_Init>

  /*Configure GPIO pins : SPI1_SCK_Pin SPI1_MISO_Pin SPI1_MISOA7_Pin */
  GPIO_InitStruct.Pin = SPI1_SCK_Pin|SPI1_MISO_Pin|SPI1_MISOA7_Pin;
 8000cde:	23e0      	movs	r3, #224	; 0xe0
 8000ce0:	61fb      	str	r3, [r7, #28]
  GPIO_InitStruct.Mode = GPIO_MODE_AF_PP;
 8000ce2:	2302      	movs	r3, #2
 8000ce4:	623b      	str	r3, [r7, #32]
  GPIO_InitStruct.Pull = GPIO_NOPULL;
 8000ce6:	2300      	movs	r3, #0
 8000ce8:	627b      	str	r3, [r7, #36]	; 0x24
  GPIO_InitStruct.Speed = GPIO_SPEED_FREQ_LOW;
 8000cea:	2300      	movs	r3, #0
 8000cec:	62bb      	str	r3, [r7, #40]	; 0x28
  GPIO_InitStruct.Alternate = GPIO_AF5_SPI1;
 8000cee:	2305      	movs	r3, #5
 8000cf0:	62fb      	str	r3, [r7, #44]	; 0x2c
  HAL_GPIO_Init(GPIOA, &GPIO_InitStruct);
 8000cf2:	f107 031c 	add.w	r3, r7, #28
 8000cf6:	4619      	mov	r1, r3
 8000cf8:	f04f 4090 	mov.w	r0, #1207959552	; 0x48000000
 8000cfc:	f000 fd40 	bl	8001780 <HAL_GPIO_Init>

  /*Configure GPIO pin : PB10 */
  GPIO_InitStruct.Pin = GPIO_PIN_10;
 8000d00:	f44f 6380 	mov.w	r3, #1024	; 0x400
 8000d04:	61fb      	str	r3, [r7, #28]
  GPIO_InitStruct.Mode = GPIO_MODE_INPUT;
 8000d06:	2300      	movs	r3, #0
 8000d08:	623b      	str	r3, [r7, #32]
  GPIO_InitStruct.Pull = GPIO_NOPULL;
 8000d0a:	2300      	movs	r3, #0
 8000d0c:	627b      	str	r3, [r7, #36]	; 0x24
  HAL_GPIO_Init(GPIOB, &GPIO_InitStruct);
 8000d0e:	f107 031c 	add.w	r3, r7, #28
 8000d12:	4619      	mov	r1, r3
 8000d14:	4816      	ldr	r0, [pc, #88]	; (8000d70 <MX_GPIO_Init+0x17c>)
 8000d16:	f000 fd33 	bl	8001780 <HAL_GPIO_Init>

  /*Configure GPIO pins : DM_Pin DP_Pin */
  GPIO_InitStruct.Pin = DM_Pin|DP_Pin;
 8000d1a:	f44f 53c0 	mov.w	r3, #6144	; 0x1800
 8000d1e:	61fb      	str	r3, [r7, #28]
  GPIO_InitStruct.Mode = GPIO_MODE_AF_PP;
 8000d20:	2302      	movs	r3, #2
 8000d22:	623b      	str	r3, [r7, #32]
  GPIO_InitStruct.Pull = GPIO_NOPULL;
 8000d24:	2300      	movs	r3, #0
 8000d26:	627b      	str	r3, [r7, #36]	; 0x24
  GPIO_InitStruct.Speed = GPIO_SPEED_FREQ_HIGH;
 8000d28:	2303      	movs	r3, #3
 8000d2a:	62bb      	str	r3, [r7, #40]	; 0x28
  GPIO_InitStruct.Alternate = GPIO_AF14_USB;
 8000d2c:	230e      	movs	r3, #14
 8000d2e:	62fb      	str	r3, [r7, #44]	; 0x2c
  HAL_GPIO_Init(GPIOA, &GPIO_InitStruct);
 8000d30:	f107 031c 	add.w	r3, r7, #28
 8000d34:	4619      	mov	r1, r3
 8000d36:	f04f 4090 	mov.w	r0, #1207959552	; 0x48000000
 8000d3a:	f000 fd21 	bl	8001780 <HAL_GPIO_Init>

  /*Configure GPIO pins : I2C1_SCL_Pin I2C1_SDA_Pin */
  GPIO_InitStruct.Pin = I2C1_SCL_Pin|I2C1_SDA_Pin;
 8000d3e:	23c0      	movs	r3, #192	; 0xc0
 8000d40:	61fb      	str	r3, [r7, #28]
  GPIO_InitStruct.Mode = GPIO_MODE_AF_OD;
 8000d42:	2312      	movs	r3, #18
 8000d44:	623b      	str	r3, [r7, #32]
  GPIO_InitStruct.Pull = GPIO_PULLUP;
 8000d46:	2301      	movs	r3, #1
 8000d48:	627b      	str	r3, [r7, #36]	; 0x24
  GPIO_InitStruct.Speed = GPIO_SPEED_FREQ_LOW;
 8000d4a:	2300      	movs	r3, #0
 8000d4c:	62bb      	str	r3, [r7, #40]	; 0x28
  GPIO_InitStruct.Alternate = GPIO_AF4_I2C1;
 8000d4e:	2304      	movs	r3, #4
 8000d50:	62fb      	str	r3, [r7, #44]	; 0x2c
  HAL_GPIO_Init(GPIOB, &GPIO_InitStruct);
 8000d52:	f107 031c 	add.w	r3, r7, #28
 8000d56:	4619      	mov	r1, r3
 8000d58:	4805      	ldr	r0, [pc, #20]	; (8000d70 <MX_GPIO_Init+0x17c>)
 8000d5a:	f000 fd11 	bl	8001780 <HAL_GPIO_Init>

}
 8000d5e:	bf00      	nop
 8000d60:	3730      	adds	r7, #48	; 0x30
 8000d62:	46bd      	mov	sp, r7
 8000d64:	bd80      	pop	{r7, pc}
 8000d66:	bf00      	nop
 8000d68:	40021000 	.word	0x40021000
 8000d6c:	48001000 	.word	0x48001000
 8000d70:	48000400 	.word	0x48000400

08000d74 <Error_Handler>:
/**
  * @brief  This function is executed in case of error occurrence.
  * @retval None
  */
void Error_Handler(void)
{
 8000d74:	b480      	push	{r7}
 8000d76:	af00      	add	r7, sp, #0
  \details Disables IRQ interrupts by setting the I-bit in the CPSR.
           Can only be executed in Privileged modes.
 */
__STATIC_FORCEINLINE void __disable_irq(void)
{
  __ASM volatile ("cpsid i" : : : "memory");
 8000d78:	b672      	cpsid	i
  /* USER CODE BEGIN Error_Handler_Debug */
  /* User can add his own implementation to report the HAL error return state */
  __disable_irq();
  while (1)
 8000d7a:	e7fe      	b.n	8000d7a <Error_Handler+0x6>

08000d7c <HAL_MspInit>:
void HAL_TIM_MspPostInit(TIM_HandleTypeDef *htim);
                                        /**
  * Initializes the Global MSP.
  */
void HAL_MspInit(void)
{
 8000d7c:	b580      	push	{r7, lr}
 8000d7e:	b082      	sub	sp, #8
 8000d80:	af00      	add	r7, sp, #0
  /* USER CODE BEGIN MspInit 0 */

  /* USER CODE END MspInit 0 */

  __HAL_RCC_SYSCFG_CLK_ENABLE();
 8000d82:	4b0f      	ldr	r3, [pc, #60]	; (8000dc0 <HAL_MspInit+0x44>)
 8000d84:	699b      	ldr	r3, [r3, #24]
 8000d86:	4a0e      	ldr	r2, [pc, #56]	; (8000dc0 <HAL_MspInit+0x44>)
 8000d88:	f043 0301 	orr.w	r3, r3, #1
 8000d8c:	6193      	str	r3, [r2, #24]
 8000d8e:	4b0c      	ldr	r3, [pc, #48]	; (8000dc0 <HAL_MspInit+0x44>)
 8000d90:	699b      	ldr	r3, [r3, #24]
 8000d92:	f003 0301 	and.w	r3, r3, #1
 8000d96:	607b      	str	r3, [r7, #4]
 8000d98:	687b      	ldr	r3, [r7, #4]
  __HAL_RCC_PWR_CLK_ENABLE();
 8000d9a:	4b09      	ldr	r3, [pc, #36]	; (8000dc0 <HAL_MspInit+0x44>)
 8000d9c:	69db      	ldr	r3, [r3, #28]
 8000d9e:	4a08      	ldr	r2, [pc, #32]	; (8000dc0 <HAL_MspInit+0x44>)
 8000da0:	f043 5380 	orr.w	r3, r3, #268435456	; 0x10000000
 8000da4:	61d3      	str	r3, [r2, #28]
 8000da6:	4b06      	ldr	r3, [pc, #24]	; (8000dc0 <HAL_MspInit+0x44>)
 8000da8:	69db      	ldr	r3, [r3, #28]
 8000daa:	f003 5380 	and.w	r3, r3, #268435456	; 0x10000000
 8000dae:	603b      	str	r3, [r7, #0]
 8000db0:	683b      	ldr	r3, [r7, #0]

  HAL_NVIC_SetPriorityGrouping(NVIC_PRIORITYGROUP_0);
 8000db2:	2007      	movs	r0, #7
 8000db4:	f000 fb7c 	bl	80014b0 <HAL_NVIC_SetPriorityGrouping>
  /* System interrupt init*/

  /* USER CODE BEGIN MspInit 1 */

  /* USER CODE END MspInit 1 */
}
 8000db8:	bf00      	nop
 8000dba:	3708      	adds	r7, #8
 8000dbc:	46bd      	mov	sp, r7
 8000dbe:	bd80      	pop	{r7, pc}
 8000dc0:	40021000 	.word	0x40021000

08000dc4 <HAL_TIM_Base_MspInit>:
* This function configures the hardware resources used in this example
* @param htim_base: TIM_Base handle pointer
* @retval None
*/
void HAL_TIM_Base_MspInit(TIM_HandleTypeDef* htim_base)
{
 8000dc4:	b580      	push	{r7, lr}
 8000dc6:	b086      	sub	sp, #24
 8000dc8:	af00      	add	r7, sp, #0
 8000dca:	6078      	str	r0, [r7, #4]
  if(htim_base->Instance==TIM1)
 8000dcc:	687b      	ldr	r3, [r7, #4]
 8000dce:	681b      	ldr	r3, [r3, #0]
 8000dd0:	4a46      	ldr	r2, [pc, #280]	; (8000eec <HAL_TIM_Base_MspInit+0x128>)
 8000dd2:	4293      	cmp	r3, r2
 8000dd4:	d10c      	bne.n	8000df0 <HAL_TIM_Base_MspInit+0x2c>
  {
  /* USER CODE BEGIN TIM1_MspInit 0 */

  /* USER CODE END TIM1_MspInit 0 */
    /* Peripheral clock enable */
    __HAL_RCC_TIM1_CLK_ENABLE();
 8000dd6:	4b46      	ldr	r3, [pc, #280]	; (8000ef0 <HAL_TIM_Base_MspInit+0x12c>)
 8000dd8:	699b      	ldr	r3, [r3, #24]
 8000dda:	4a45      	ldr	r2, [pc, #276]	; (8000ef0 <HAL_TIM_Base_MspInit+0x12c>)
 8000ddc:	f443 6300 	orr.w	r3, r3, #2048	; 0x800
 8000de0:	6193      	str	r3, [r2, #24]
 8000de2:	4b43      	ldr	r3, [pc, #268]	; (8000ef0 <HAL_TIM_Base_MspInit+0x12c>)
 8000de4:	699b      	ldr	r3, [r3, #24]
 8000de6:	f403 6300 	and.w	r3, r3, #2048	; 0x800
 8000dea:	617b      	str	r3, [r7, #20]
 8000dec:	697b      	ldr	r3, [r7, #20]
  /* USER CODE BEGIN TIM4_MspInit 1 */

  /* USER CODE END TIM4_MspInit 1 */
  }

}
 8000dee:	e078      	b.n	8000ee2 <HAL_TIM_Base_MspInit+0x11e>
  else if(htim_base->Instance==TIM2)
 8000df0:	687b      	ldr	r3, [r7, #4]
 8000df2:	681b      	ldr	r3, [r3, #0]
 8000df4:	f1b3 4f80 	cmp.w	r3, #1073741824	; 0x40000000
 8000df8:	d162      	bne.n	8000ec0 <HAL_TIM_Base_MspInit+0xfc>
    __HAL_RCC_TIM2_CLK_ENABLE();
 8000dfa:	4b3d      	ldr	r3, [pc, #244]	; (8000ef0 <HAL_TIM_Base_MspInit+0x12c>)
 8000dfc:	69db      	ldr	r3, [r3, #28]
 8000dfe:	4a3c      	ldr	r2, [pc, #240]	; (8000ef0 <HAL_TIM_Base_MspInit+0x12c>)
 8000e00:	f043 0301 	orr.w	r3, r3, #1
 8000e04:	61d3      	str	r3, [r2, #28]
 8000e06:	4b3a      	ldr	r3, [pc, #232]	; (8000ef0 <HAL_TIM_Base_MspInit+0x12c>)
 8000e08:	69db      	ldr	r3, [r3, #28]
 8000e0a:	f003 0301 	and.w	r3, r3, #1
 8000e0e:	613b      	str	r3, [r7, #16]
 8000e10:	693b      	ldr	r3, [r7, #16]
    hdma_tim2_ch1.Instance = DMA1_Channel5;
 8000e12:	4b38      	ldr	r3, [pc, #224]	; (8000ef4 <HAL_TIM_Base_MspInit+0x130>)
 8000e14:	4a38      	ldr	r2, [pc, #224]	; (8000ef8 <HAL_TIM_Base_MspInit+0x134>)
 8000e16:	601a      	str	r2, [r3, #0]
    hdma_tim2_ch1.Init.Direction = DMA_MEMORY_TO_PERIPH;
 8000e18:	4b36      	ldr	r3, [pc, #216]	; (8000ef4 <HAL_TIM_Base_MspInit+0x130>)
 8000e1a:	2210      	movs	r2, #16
 8000e1c:	605a      	str	r2, [r3, #4]
    hdma_tim2_ch1.Init.PeriphInc = DMA_PINC_DISABLE;
 8000e1e:	4b35      	ldr	r3, [pc, #212]	; (8000ef4 <HAL_TIM_Base_MspInit+0x130>)
 8000e20:	2200      	movs	r2, #0
 8000e22:	609a      	str	r2, [r3, #8]
    hdma_tim2_ch1.Init.MemInc = DMA_MINC_ENABLE;
 8000e24:	4b33      	ldr	r3, [pc, #204]	; (8000ef4 <HAL_TIM_Base_MspInit+0x130>)
 8000e26:	2280      	movs	r2, #128	; 0x80
 8000e28:	60da      	str	r2, [r3, #12]
    hdma_tim2_ch1.Init.PeriphDataAlignment = DMA_PDATAALIGN_WORD;
 8000e2a:	4b32      	ldr	r3, [pc, #200]	; (8000ef4 <HAL_TIM_Base_MspInit+0x130>)
 8000e2c:	f44f 7200 	mov.w	r2, #512	; 0x200
 8000e30:	611a      	str	r2, [r3, #16]
    hdma_tim2_ch1.Init.MemDataAlignment = DMA_MDATAALIGN_WORD;
 8000e32:	4b30      	ldr	r3, [pc, #192]	; (8000ef4 <HAL_TIM_Base_MspInit+0x130>)
 8000e34:	f44f 6200 	mov.w	r2, #2048	; 0x800
 8000e38:	615a      	str	r2, [r3, #20]
    hdma_tim2_ch1.Init.Mode = DMA_NORMAL;
 8000e3a:	4b2e      	ldr	r3, [pc, #184]	; (8000ef4 <HAL_TIM_Base_MspInit+0x130>)
 8000e3c:	2200      	movs	r2, #0
 8000e3e:	619a      	str	r2, [r3, #24]
    hdma_tim2_ch1.Init.Priority = DMA_PRIORITY_LOW;
 8000e40:	4b2c      	ldr	r3, [pc, #176]	; (8000ef4 <HAL_TIM_Base_MspInit+0x130>)
 8000e42:	2200      	movs	r2, #0
 8000e44:	61da      	str	r2, [r3, #28]
    if (HAL_DMA_Init(&hdma_tim2_ch1) != HAL_OK)
 8000e46:	482b      	ldr	r0, [pc, #172]	; (8000ef4 <HAL_TIM_Base_MspInit+0x130>)
 8000e48:	f000 fb73 	bl	8001532 <HAL_DMA_Init>
 8000e4c:	4603      	mov	r3, r0
 8000e4e:	2b00      	cmp	r3, #0
 8000e50:	d001      	beq.n	8000e56 <HAL_TIM_Base_MspInit+0x92>
      Error_Handler();
 8000e52:	f7ff ff8f 	bl	8000d74 <Error_Handler>
    __HAL_LINKDMA(htim_base,hdma[TIM_DMA_ID_CC1],hdma_tim2_ch1);
 8000e56:	687b      	ldr	r3, [r7, #4]
 8000e58:	4a26      	ldr	r2, [pc, #152]	; (8000ef4 <HAL_TIM_Base_MspInit+0x130>)
 8000e5a:	625a      	str	r2, [r3, #36]	; 0x24
 8000e5c:	4a25      	ldr	r2, [pc, #148]	; (8000ef4 <HAL_TIM_Base_MspInit+0x130>)
 8000e5e:	687b      	ldr	r3, [r7, #4]
 8000e60:	6253      	str	r3, [r2, #36]	; 0x24
    hdma_tim2_ch2_ch4.Instance = DMA1_Channel7;
 8000e62:	4b26      	ldr	r3, [pc, #152]	; (8000efc <HAL_TIM_Base_MspInit+0x138>)
 8000e64:	4a26      	ldr	r2, [pc, #152]	; (8000f00 <HAL_TIM_Base_MspInit+0x13c>)
 8000e66:	601a      	str	r2, [r3, #0]
    hdma_tim2_ch2_ch4.Init.Direction = DMA_MEMORY_TO_PERIPH;
 8000e68:	4b24      	ldr	r3, [pc, #144]	; (8000efc <HAL_TIM_Base_MspInit+0x138>)
 8000e6a:	2210      	movs	r2, #16
 8000e6c:	605a      	str	r2, [r3, #4]
    hdma_tim2_ch2_ch4.Init.PeriphInc = DMA_PINC_DISABLE;
 8000e6e:	4b23      	ldr	r3, [pc, #140]	; (8000efc <HAL_TIM_Base_MspInit+0x138>)
 8000e70:	2200      	movs	r2, #0
 8000e72:	609a      	str	r2, [r3, #8]
    hdma_tim2_ch2_ch4.Init.MemInc = DMA_MINC_ENABLE;
 8000e74:	4b21      	ldr	r3, [pc, #132]	; (8000efc <HAL_TIM_Base_MspInit+0x138>)
 8000e76:	2280      	movs	r2, #128	; 0x80
 8000e78:	60da      	str	r2, [r3, #12]
    hdma_tim2_ch2_ch4.Init.PeriphDataAlignment = DMA_PDATAALIGN_WORD;
 8000e7a:	4b20      	ldr	r3, [pc, #128]	; (8000efc <HAL_TIM_Base_MspInit+0x138>)
 8000e7c:	f44f 7200 	mov.w	r2, #512	; 0x200
 8000e80:	611a      	str	r2, [r3, #16]
    hdma_tim2_ch2_ch4.Init.MemDataAlignment = DMA_MDATAALIGN_WORD;
 8000e82:	4b1e      	ldr	r3, [pc, #120]	; (8000efc <HAL_TIM_Base_MspInit+0x138>)
 8000e84:	f44f 6200 	mov.w	r2, #2048	; 0x800
 8000e88:	615a      	str	r2, [r3, #20]
    hdma_tim2_ch2_ch4.Init.Mode = DMA_NORMAL;
 8000e8a:	4b1c      	ldr	r3, [pc, #112]	; (8000efc <HAL_TIM_Base_MspInit+0x138>)
 8000e8c:	2200      	movs	r2, #0
 8000e8e:	619a      	str	r2, [r3, #24]
    hdma_tim2_ch2_ch4.Init.Priority = DMA_PRIORITY_LOW;
 8000e90:	4b1a      	ldr	r3, [pc, #104]	; (8000efc <HAL_TIM_Base_MspInit+0x138>)
 8000e92:	2200      	movs	r2, #0
 8000e94:	61da      	str	r2, [r3, #28]
    if (HAL_DMA_Init(&hdma_tim2_ch2_ch4) != HAL_OK)
 8000e96:	4819      	ldr	r0, [pc, #100]	; (8000efc <HAL_TIM_Base_MspInit+0x138>)
 8000e98:	f000 fb4b 	bl	8001532 <HAL_DMA_Init>
 8000e9c:	4603      	mov	r3, r0
 8000e9e:	2b00      	cmp	r3, #0
 8000ea0:	d001      	beq.n	8000ea6 <HAL_TIM_Base_MspInit+0xe2>
      Error_Handler();
 8000ea2:	f7ff ff67 	bl	8000d74 <Error_Handler>
    __HAL_LINKDMA(htim_base,hdma[TIM_DMA_ID_CC2],hdma_tim2_ch2_ch4);
 8000ea6:	687b      	ldr	r3, [r7, #4]
 8000ea8:	4a14      	ldr	r2, [pc, #80]	; (8000efc <HAL_TIM_Base_MspInit+0x138>)
 8000eaa:	629a      	str	r2, [r3, #40]	; 0x28
 8000eac:	4a13      	ldr	r2, [pc, #76]	; (8000efc <HAL_TIM_Base_MspInit+0x138>)
 8000eae:	687b      	ldr	r3, [r7, #4]
 8000eb0:	6253      	str	r3, [r2, #36]	; 0x24
    __HAL_LINKDMA(htim_base,hdma[TIM_DMA_ID_CC4],hdma_tim2_ch2_ch4);
 8000eb2:	687b      	ldr	r3, [r7, #4]
 8000eb4:	4a11      	ldr	r2, [pc, #68]	; (8000efc <HAL_TIM_Base_MspInit+0x138>)
 8000eb6:	631a      	str	r2, [r3, #48]	; 0x30
 8000eb8:	4a10      	ldr	r2, [pc, #64]	; (8000efc <HAL_TIM_Base_MspInit+0x138>)
 8000eba:	687b      	ldr	r3, [r7, #4]
 8000ebc:	6253      	str	r3, [r2, #36]	; 0x24
}
 8000ebe:	e010      	b.n	8000ee2 <HAL_TIM_Base_MspInit+0x11e>
  else if(htim_base->Instance==TIM4)
 8000ec0:	687b      	ldr	r3, [r7, #4]
 8000ec2:	681b      	ldr	r3, [r3, #0]
 8000ec4:	4a0f      	ldr	r2, [pc, #60]	; (8000f04 <HAL_TIM_Base_MspInit+0x140>)
 8000ec6:	4293      	cmp	r3, r2
 8000ec8:	d10b      	bne.n	8000ee2 <HAL_TIM_Base_MspInit+0x11e>
    __HAL_RCC_TIM4_CLK_ENABLE();
 8000eca:	4b09      	ldr	r3, [pc, #36]	; (8000ef0 <HAL_TIM_Base_MspInit+0x12c>)
 8000ecc:	69db      	ldr	r3, [r3, #28]
 8000ece:	4a08      	ldr	r2, [pc, #32]	; (8000ef0 <HAL_TIM_Base_MspInit+0x12c>)
 8000ed0:	f043 0304 	orr.w	r3, r3, #4
 8000ed4:	61d3      	str	r3, [r2, #28]
 8000ed6:	4b06      	ldr	r3, [pc, #24]	; (8000ef0 <HAL_TIM_Base_MspInit+0x12c>)
 8000ed8:	69db      	ldr	r3, [r3, #28]
 8000eda:	f003 0304 	and.w	r3, r3, #4
 8000ede:	60fb      	str	r3, [r7, #12]
 8000ee0:	68fb      	ldr	r3, [r7, #12]
}
 8000ee2:	bf00      	nop
 8000ee4:	3718      	adds	r7, #24
 8000ee6:	46bd      	mov	sp, r7
 8000ee8:	bd80      	pop	{r7, pc}
 8000eea:	bf00      	nop
 8000eec:	40012c00 	.word	0x40012c00
 8000ef0:	40021000 	.word	0x40021000
 8000ef4:	200000b4 	.word	0x200000b4
 8000ef8:	40020058 	.word	0x40020058
 8000efc:	20000144 	.word	0x20000144
 8000f00:	40020080 	.word	0x40020080
 8000f04:	40000800 	.word	0x40000800

08000f08 <HAL_TIM_MspPostInit>:

void HAL_TIM_MspPostInit(TIM_HandleTypeDef* htim)
{
 8000f08:	b580      	push	{r7, lr}
 8000f0a:	b08a      	sub	sp, #40	; 0x28
 8000f0c:	af00      	add	r7, sp, #0
 8000f0e:	6078      	str	r0, [r7, #4]
  GPIO_InitTypeDef GPIO_InitStruct = {0};
 8000f10:	f107 0314 	add.w	r3, r7, #20
 8000f14:	2200      	movs	r2, #0
 8000f16:	601a      	str	r2, [r3, #0]
 8000f18:	605a      	str	r2, [r3, #4]
 8000f1a:	609a      	str	r2, [r3, #8]
 8000f1c:	60da      	str	r2, [r3, #12]
 8000f1e:	611a      	str	r2, [r3, #16]
  if(htim->Instance==TIM1)
 8000f20:	687b      	ldr	r3, [r7, #4]
 8000f22:	681b      	ldr	r3, [r3, #0]
 8000f24:	4a23      	ldr	r2, [pc, #140]	; (8000fb4 <HAL_TIM_MspPostInit+0xac>)
 8000f26:	4293      	cmp	r3, r2
 8000f28:	d11e      	bne.n	8000f68 <HAL_TIM_MspPostInit+0x60>
  {
  /* USER CODE BEGIN TIM1_MspPostInit 0 */

  /* USER CODE END TIM1_MspPostInit 0 */
    __HAL_RCC_GPIOA_CLK_ENABLE();
 8000f2a:	4b23      	ldr	r3, [pc, #140]	; (8000fb8 <HAL_TIM_MspPostInit+0xb0>)
 8000f2c:	695b      	ldr	r3, [r3, #20]
 8000f2e:	4a22      	ldr	r2, [pc, #136]	; (8000fb8 <HAL_TIM_MspPostInit+0xb0>)
 8000f30:	f443 3300 	orr.w	r3, r3, #131072	; 0x20000
 8000f34:	6153      	str	r3, [r2, #20]
 8000f36:	4b20      	ldr	r3, [pc, #128]	; (8000fb8 <HAL_TIM_MspPostInit+0xb0>)
 8000f38:	695b      	ldr	r3, [r3, #20]
 8000f3a:	f403 3300 	and.w	r3, r3, #131072	; 0x20000
 8000f3e:	613b      	str	r3, [r7, #16]
 8000f40:	693b      	ldr	r3, [r7, #16]
    /**TIM1 GPIO Configuration
    PA8     ------> TIM1_CH1
    */
    GPIO_InitStruct.Pin = GPIO_PIN_8;
 8000f42:	f44f 7380 	mov.w	r3, #256	; 0x100
 8000f46:	617b      	str	r3, [r7, #20]
    GPIO_InitStruct.Mode = GPIO_MODE_AF_PP;
 8000f48:	2302      	movs	r3, #2
 8000f4a:	61bb      	str	r3, [r7, #24]
    GPIO_InitStruct.Pull = GPIO_NOPULL;
 8000f4c:	2300      	movs	r3, #0
 8000f4e:	61fb      	str	r3, [r7, #28]
    GPIO_InitStruct.Speed = GPIO_SPEED_FREQ_LOW;
 8000f50:	2300      	movs	r3, #0
 8000f52:	623b      	str	r3, [r7, #32]
    GPIO_InitStruct.Alternate = GPIO_AF6_TIM1;
 8000f54:	2306      	movs	r3, #6
 8000f56:	627b      	str	r3, [r7, #36]	; 0x24
    HAL_GPIO_Init(GPIOA, &GPIO_InitStruct);
 8000f58:	f107 0314 	add.w	r3, r7, #20
 8000f5c:	4619      	mov	r1, r3
 8000f5e:	f04f 4090 	mov.w	r0, #1207959552	; 0x48000000
 8000f62:	f000 fc0d 	bl	8001780 <HAL_GPIO_Init>
  /* USER CODE BEGIN TIM2_MspPostInit 1 */

  /* USER CODE END TIM2_MspPostInit 1 */
  }

}
 8000f66:	e021      	b.n	8000fac <HAL_TIM_MspPostInit+0xa4>
  else if(htim->Instance==TIM2)
 8000f68:	687b      	ldr	r3, [r7, #4]
 8000f6a:	681b      	ldr	r3, [r3, #0]
 8000f6c:	f1b3 4f80 	cmp.w	r3, #1073741824	; 0x40000000
 8000f70:	d11c      	bne.n	8000fac <HAL_TIM_MspPostInit+0xa4>
    __HAL_RCC_GPIOA_CLK_ENABLE();
 8000f72:	4b11      	ldr	r3, [pc, #68]	; (8000fb8 <HAL_TIM_MspPostInit+0xb0>)
 8000f74:	695b      	ldr	r3, [r3, #20]
 8000f76:	4a10      	ldr	r2, [pc, #64]	; (8000fb8 <HAL_TIM_MspPostInit+0xb0>)
 8000f78:	f443 3300 	orr.w	r3, r3, #131072	; 0x20000
 8000f7c:	6153      	str	r3, [r2, #20]
 8000f7e:	4b0e      	ldr	r3, [pc, #56]	; (8000fb8 <HAL_TIM_MspPostInit+0xb0>)
 8000f80:	695b      	ldr	r3, [r3, #20]
 8000f82:	f403 3300 	and.w	r3, r3, #131072	; 0x20000
 8000f86:	60fb      	str	r3, [r7, #12]
 8000f88:	68fb      	ldr	r3, [r7, #12]
    GPIO_InitStruct.Pin = GPIO_PIN_0|GPIO_PIN_1;
 8000f8a:	2303      	movs	r3, #3
 8000f8c:	617b      	str	r3, [r7, #20]
    GPIO_InitStruct.Mode = GPIO_MODE_AF_PP;
 8000f8e:	2302      	movs	r3, #2
 8000f90:	61bb      	str	r3, [r7, #24]
    GPIO_InitStruct.Pull = GPIO_NOPULL;
 8000f92:	2300      	movs	r3, #0
 8000f94:	61fb      	str	r3, [r7, #28]
    GPIO_InitStruct.Speed = GPIO_SPEED_FREQ_LOW;
 8000f96:	2300      	movs	r3, #0
 8000f98:	623b      	str	r3, [r7, #32]
    GPIO_InitStruct.Alternate = GPIO_AF1_TIM2;
 8000f9a:	2301      	movs	r3, #1
 8000f9c:	627b      	str	r3, [r7, #36]	; 0x24
    HAL_GPIO_Init(GPIOA, &GPIO_InitStruct);
 8000f9e:	f107 0314 	add.w	r3, r7, #20
 8000fa2:	4619      	mov	r1, r3
 8000fa4:	f04f 4090 	mov.w	r0, #1207959552	; 0x48000000
 8000fa8:	f000 fbea 	bl	8001780 <HAL_GPIO_Init>
}
 8000fac:	bf00      	nop
 8000fae:	3728      	adds	r7, #40	; 0x28
 8000fb0:	46bd      	mov	sp, r7
 8000fb2:	bd80      	pop	{r7, pc}
 8000fb4:	40012c00 	.word	0x40012c00
 8000fb8:	40021000 	.word	0x40021000

08000fbc <HAL_UART_MspInit>:
* This function configures the hardware resources used in this example
* @param huart: UART handle pointer
* @retval None
*/
void HAL_UART_MspInit(UART_HandleTypeDef* huart)
{
 8000fbc:	b580      	push	{r7, lr}
 8000fbe:	b08c      	sub	sp, #48	; 0x30
 8000fc0:	af00      	add	r7, sp, #0
 8000fc2:	6078      	str	r0, [r7, #4]
  GPIO_InitTypeDef GPIO_InitStruct = {0};
 8000fc4:	f107 031c 	add.w	r3, r7, #28
 8000fc8:	2200      	movs	r2, #0
 8000fca:	601a      	str	r2, [r3, #0]
 8000fcc:	605a      	str	r2, [r3, #4]
 8000fce:	609a      	str	r2, [r3, #8]
 8000fd0:	60da      	str	r2, [r3, #12]
 8000fd2:	611a      	str	r2, [r3, #16]
  if(huart->Instance==UART4)
 8000fd4:	687b      	ldr	r3, [r7, #4]
 8000fd6:	681b      	ldr	r3, [r3, #0]
 8000fd8:	4a3d      	ldr	r2, [pc, #244]	; (80010d0 <HAL_UART_MspInit+0x114>)
 8000fda:	4293      	cmp	r3, r2
 8000fdc:	d129      	bne.n	8001032 <HAL_UART_MspInit+0x76>
  {
  /* USER CODE BEGIN UART4_MspInit 0 */

  /* USER CODE END UART4_MspInit 0 */
    /* Peripheral clock enable */
    __HAL_RCC_UART4_CLK_ENABLE();
 8000fde:	4b3d      	ldr	r3, [pc, #244]	; (80010d4 <HAL_UART_MspInit+0x118>)
 8000fe0:	69db      	ldr	r3, [r3, #28]
 8000fe2:	4a3c      	ldr	r2, [pc, #240]	; (80010d4 <HAL_UART_MspInit+0x118>)
 8000fe4:	f443 2300 	orr.w	r3, r3, #524288	; 0x80000
 8000fe8:	61d3      	str	r3, [r2, #28]
 8000fea:	4b3a      	ldr	r3, [pc, #232]	; (80010d4 <HAL_UART_MspInit+0x118>)
 8000fec:	69db      	ldr	r3, [r3, #28]
 8000fee:	f403 2300 	and.w	r3, r3, #524288	; 0x80000
 8000ff2:	61bb      	str	r3, [r7, #24]
 8000ff4:	69bb      	ldr	r3, [r7, #24]

    __HAL_RCC_GPIOC_CLK_ENABLE();
 8000ff6:	4b37      	ldr	r3, [pc, #220]	; (80010d4 <HAL_UART_MspInit+0x118>)
 8000ff8:	695b      	ldr	r3, [r3, #20]
 8000ffa:	4a36      	ldr	r2, [pc, #216]	; (80010d4 <HAL_UART_MspInit+0x118>)
 8000ffc:	f443 2300 	orr.w	r3, r3, #524288	; 0x80000
 8001000:	6153      	str	r3, [r2, #20]
 8001002:	4b34      	ldr	r3, [pc, #208]	; (80010d4 <HAL_UART_MspInit+0x118>)
 8001004:	695b      	ldr	r3, [r3, #20]
 8001006:	f403 2300 	and.w	r3, r3, #524288	; 0x80000
 800100a:	617b      	str	r3, [r7, #20]
 800100c:	697b      	ldr	r3, [r7, #20]
    /**UART4 GPIO Configuration
    PC10     ------> UART4_TX
    PC11     ------> UART4_RX
    */
    GPIO_InitStruct.Pin = GPIO_PIN_10|GPIO_PIN_11;
 800100e:	f44f 6340 	mov.w	r3, #3072	; 0xc00
 8001012:	61fb      	str	r3, [r7, #28]
    GPIO_InitStruct.Mode = GPIO_MODE_AF_PP;
 8001014:	2302      	movs	r3, #2
 8001016:	623b      	str	r3, [r7, #32]
    GPIO_InitStruct.Pull = GPIO_NOPULL;
 8001018:	2300      	movs	r3, #0
 800101a:	627b      	str	r3, [r7, #36]	; 0x24
    GPIO_InitStruct.Speed = GPIO_SPEED_FREQ_HIGH;
 800101c:	2303      	movs	r3, #3
 800101e:	62bb      	str	r3, [r7, #40]	; 0x28
    GPIO_InitStruct.Alternate = GPIO_AF5_UART4;
 8001020:	2305      	movs	r3, #5
 8001022:	62fb      	str	r3, [r7, #44]	; 0x2c
    HAL_GPIO_Init(GPIOC, &GPIO_InitStruct);
 8001024:	f107 031c 	add.w	r3, r7, #28
 8001028:	4619      	mov	r1, r3
 800102a:	482b      	ldr	r0, [pc, #172]	; (80010d8 <HAL_UART_MspInit+0x11c>)
 800102c:	f000 fba8 	bl	8001780 <HAL_GPIO_Init>
  /* USER CODE BEGIN UART5_MspInit 1 */

  /* USER CODE END UART5_MspInit 1 */
  }

}
 8001030:	e049      	b.n	80010c6 <HAL_UART_MspInit+0x10a>
  else if(huart->Instance==UART5)
 8001032:	687b      	ldr	r3, [r7, #4]
 8001034:	681b      	ldr	r3, [r3, #0]
 8001036:	4a29      	ldr	r2, [pc, #164]	; (80010dc <HAL_UART_MspInit+0x120>)
 8001038:	4293      	cmp	r3, r2
 800103a:	d144      	bne.n	80010c6 <HAL_UART_MspInit+0x10a>
    __HAL_RCC_UART5_CLK_ENABLE();
 800103c:	4b25      	ldr	r3, [pc, #148]	; (80010d4 <HAL_UART_MspInit+0x118>)
 800103e:	69db      	ldr	r3, [r3, #28]
 8001040:	4a24      	ldr	r2, [pc, #144]	; (80010d4 <HAL_UART_MspInit+0x118>)
 8001042:	f443 1380 	orr.w	r3, r3, #1048576	; 0x100000
 8001046:	61d3      	str	r3, [r2, #28]
 8001048:	4b22      	ldr	r3, [pc, #136]	; (80010d4 <HAL_UART_MspInit+0x118>)
 800104a:	69db      	ldr	r3, [r3, #28]
 800104c:	f403 1380 	and.w	r3, r3, #1048576	; 0x100000
 8001050:	613b      	str	r3, [r7, #16]
 8001052:	693b      	ldr	r3, [r7, #16]
    __HAL_RCC_GPIOC_CLK_ENABLE();
 8001054:	4b1f      	ldr	r3, [pc, #124]	; (80010d4 <HAL_UART_MspInit+0x118>)
 8001056:	695b      	ldr	r3, [r3, #20]
 8001058:	4a1e      	ldr	r2, [pc, #120]	; (80010d4 <HAL_UART_MspInit+0x118>)
 800105a:	f443 2300 	orr.w	r3, r3, #524288	; 0x80000
 800105e:	6153      	str	r3, [r2, #20]
 8001060:	4b1c      	ldr	r3, [pc, #112]	; (80010d4 <HAL_UART_MspInit+0x118>)
 8001062:	695b      	ldr	r3, [r3, #20]
 8001064:	f403 2300 	and.w	r3, r3, #524288	; 0x80000
 8001068:	60fb      	str	r3, [r7, #12]
 800106a:	68fb      	ldr	r3, [r7, #12]
    __HAL_RCC_GPIOD_CLK_ENABLE();
 800106c:	4b19      	ldr	r3, [pc, #100]	; (80010d4 <HAL_UART_MspInit+0x118>)
 800106e:	695b      	ldr	r3, [r3, #20]
 8001070:	4a18      	ldr	r2, [pc, #96]	; (80010d4 <HAL_UART_MspInit+0x118>)
 8001072:	f443 1380 	orr.w	r3, r3, #1048576	; 0x100000
 8001076:	6153      	str	r3, [r2, #20]
 8001078:	4b16      	ldr	r3, [pc, #88]	; (80010d4 <HAL_UART_MspInit+0x118>)
 800107a:	695b      	ldr	r3, [r3, #20]
 800107c:	f403 1380 	and.w	r3, r3, #1048576	; 0x100000
 8001080:	60bb      	str	r3, [r7, #8]
 8001082:	68bb      	ldr	r3, [r7, #8]
    GPIO_InitStruct.Pin = GPIO_PIN_12;
 8001084:	f44f 5380 	mov.w	r3, #4096	; 0x1000
 8001088:	61fb      	str	r3, [r7, #28]
    GPIO_InitStruct.Mode = GPIO_MODE_AF_PP;
 800108a:	2302      	movs	r3, #2
 800108c:	623b      	str	r3, [r7, #32]
    GPIO_InitStruct.Pull = GPIO_NOPULL;
 800108e:	2300      	movs	r3, #0
 8001090:	627b      	str	r3, [r7, #36]	; 0x24
    GPIO_InitStruct.Speed = GPIO_SPEED_FREQ_HIGH;
 8001092:	2303      	movs	r3, #3
 8001094:	62bb      	str	r3, [r7, #40]	; 0x28
    GPIO_InitStruct.Alternate = GPIO_AF5_UART5;
 8001096:	2305      	movs	r3, #5
 8001098:	62fb      	str	r3, [r7, #44]	; 0x2c
    HAL_GPIO_Init(GPIOC, &GPIO_InitStruct);
 800109a:	f107 031c 	add.w	r3, r7, #28
 800109e:	4619      	mov	r1, r3
 80010a0:	480d      	ldr	r0, [pc, #52]	; (80010d8 <HAL_UART_MspInit+0x11c>)
 80010a2:	f000 fb6d 	bl	8001780 <HAL_GPIO_Init>
    GPIO_InitStruct.Pin = GPIO_PIN_2;
 80010a6:	2304      	movs	r3, #4
 80010a8:	61fb      	str	r3, [r7, #28]
    GPIO_InitStruct.Mode = GPIO_MODE_AF_PP;
 80010aa:	2302      	movs	r3, #2
 80010ac:	623b      	str	r3, [r7, #32]
    GPIO_InitStruct.Pull = GPIO_NOPULL;
 80010ae:	2300      	movs	r3, #0
 80010b0:	627b      	str	r3, [r7, #36]	; 0x24
    GPIO_InitStruct.Speed = GPIO_SPEED_FREQ_HIGH;
 80010b2:	2303      	movs	r3, #3
 80010b4:	62bb      	str	r3, [r7, #40]	; 0x28
    GPIO_InitStruct.Alternate = GPIO_AF5_UART5;
 80010b6:	2305      	movs	r3, #5
 80010b8:	62fb      	str	r3, [r7, #44]	; 0x2c
    HAL_GPIO_Init(GPIOD, &GPIO_InitStruct);
 80010ba:	f107 031c 	add.w	r3, r7, #28
 80010be:	4619      	mov	r1, r3
 80010c0:	4807      	ldr	r0, [pc, #28]	; (80010e0 <HAL_UART_MspInit+0x124>)
 80010c2:	f000 fb5d 	bl	8001780 <HAL_GPIO_Init>
}
 80010c6:	bf00      	nop
 80010c8:	3730      	adds	r7, #48	; 0x30
 80010ca:	46bd      	mov	sp, r7
 80010cc:	bd80      	pop	{r7, pc}
 80010ce:	bf00      	nop
 80010d0:	40004c00 	.word	0x40004c00
 80010d4:	40021000 	.word	0x40021000
 80010d8:	48000800 	.word	0x48000800
 80010dc:	40005000 	.word	0x40005000
 80010e0:	48000c00 	.word	0x48000c00

080010e4 <NMI_Handler>:
/******************************************************************************/
/**
  * @brief This function handles Non maskable interrupt.
  */
void NMI_Handler(void)
{
 80010e4:	b480      	push	{r7}
 80010e6:	af00      	add	r7, sp, #0
  /* USER CODE BEGIN NonMaskableInt_IRQn 0 */

  /* USER CODE END NonMaskableInt_IRQn 0 */
  /* USER CODE BEGIN NonMaskableInt_IRQn 1 */
  while (1)
 80010e8:	e7fe      	b.n	80010e8 <NMI_Handler+0x4>

080010ea <HardFault_Handler>:

/**
  * @brief This function handles Hard fault interrupt.
  */
void HardFault_Handler(void)
{
 80010ea:	b480      	push	{r7}
 80010ec:	af00      	add	r7, sp, #0
  /* USER CODE BEGIN HardFault_IRQn 0 */

  /* USER CODE END HardFault_IRQn 0 */
  while (1)
 80010ee:	e7fe      	b.n	80010ee <HardFault_Handler+0x4>

080010f0 <MemManage_Handler>:

/**
  * @brief This function handles Memory management fault.
  */
void MemManage_Handler(void)
{
 80010f0:	b480      	push	{r7}
 80010f2:	af00      	add	r7, sp, #0
  /* USER CODE BEGIN MemoryManagement_IRQn 0 */

  /* USER CODE END MemoryManagement_IRQn 0 */
  while (1)
 80010f4:	e7fe      	b.n	80010f4 <MemManage_Handler+0x4>

080010f6 <BusFault_Handler>:

/**
  * @brief This function handles Pre-fetch fault, memory access fault.
  */
void BusFault_Handler(void)
{
 80010f6:	b480      	push	{r7}
 80010f8:	af00      	add	r7, sp, #0
  /* USER CODE BEGIN BusFault_IRQn 0 */

  /* USER CODE END BusFault_IRQn 0 */
  while (1)
 80010fa:	e7fe      	b.n	80010fa <BusFault_Handler+0x4>

080010fc <UsageFault_Handler>:

/**
  * @brief This function handles Undefined instruction or illegal state.
  */
void UsageFault_Handler(void)
{
 80010fc:	b480      	push	{r7}
 80010fe:	af00      	add	r7, sp, #0
  /* USER CODE BEGIN UsageFault_IRQn 0 */

  /* USER CODE END UsageFault_IRQn 0 */
  while (1)
 8001100:	e7fe      	b.n	8001100 <UsageFault_Handler+0x4>

08001102 <SVC_Handler>:

/**
  * @brief This function handles System service call via SWI instruction.
  */
void SVC_Handler(void)
{
 8001102:	b480      	push	{r7}
 8001104:	af00      	add	r7, sp, #0

  /* USER CODE END SVCall_IRQn 0 */
  /* USER CODE BEGIN SVCall_IRQn 1 */

  /* USER CODE END SVCall_IRQn 1 */
}
 8001106:	bf00      	nop
 8001108:	46bd      	mov	sp, r7
 800110a:	f85d 7b04 	ldr.w	r7, [sp], #4
 800110e:	4770      	bx	lr

08001110 <DebugMon_Handler>:

/**
  * @brief This function handles Debug monitor.
  */
void DebugMon_Handler(void)
{
 8001110:	b480      	push	{r7}
 8001112:	af00      	add	r7, sp, #0

  /* USER CODE END DebugMonitor_IRQn 0 */
  /* USER CODE BEGIN DebugMonitor_IRQn 1 */

  /* USER CODE END DebugMonitor_IRQn 1 */
}
 8001114:	bf00      	nop
 8001116:	46bd      	mov	sp, r7
 8001118:	f85d 7b04 	ldr.w	r7, [sp], #4
 800111c:	4770      	bx	lr

0800111e <PendSV_Handler>:

/**
  * @brief This function handles Pendable request for system service.
  */
void PendSV_Handler(void)
{
 800111e:	b480      	push	{r7}
 8001120:	af00      	add	r7, sp, #0

  /* USER CODE END PendSV_IRQn 0 */
  /* USER CODE BEGIN PendSV_IRQn 1 */

  /* USER CODE END PendSV_IRQn 1 */
}
 8001122:	bf00      	nop
 8001124:	46bd      	mov	sp, r7
 8001126:	f85d 7b04 	ldr.w	r7, [sp], #4
 800112a:	4770      	bx	lr

0800112c <SysTick_Handler>:

/**
  * @brief This function handles System tick timer.
  */
void SysTick_Handler(void)
{
 800112c:	b580      	push	{r7, lr}
 800112e:	af00      	add	r7, sp, #0
  /* USER CODE BEGIN SysTick_IRQn 0 */

  /* USER CODE END SysTick_IRQn 0 */
  HAL_IncTick();
 8001130:	f000 f8ce 	bl	80012d0 <HAL_IncTick>
  /* USER CODE BEGIN SysTick_IRQn 1 */

  /* USER CODE END SysTick_IRQn 1 */
}
 8001134:	bf00      	nop
 8001136:	bd80      	pop	{r7, pc}

08001138 <DMA1_Channel5_IRQHandler>:

/**
  * @brief This function handles DMA1 channel5 global interrupt.
  */
void DMA1_Channel5_IRQHandler(void)
{
 8001138:	b580      	push	{r7, lr}
 800113a:	af00      	add	r7, sp, #0
  /* USER CODE BEGIN DMA1_Channel5_IRQn 0 */

  /* USER CODE END DMA1_Channel5_IRQn 0 */
  HAL_DMA_IRQHandler(&hdma_tim2_ch1);
 800113c:	4802      	ldr	r0, [pc, #8]	; (8001148 <DMA1_Channel5_IRQHandler+0x10>)
 800113e:	f000 fa3f 	bl	80015c0 <HAL_DMA_IRQHandler>
  /* USER CODE BEGIN DMA1_Channel5_IRQn 1 */

  /* USER CODE END DMA1_Channel5_IRQn 1 */
}
 8001142:	bf00      	nop
 8001144:	bd80      	pop	{r7, pc}
 8001146:	bf00      	nop
 8001148:	200000b4 	.word	0x200000b4

0800114c <DMA1_Channel7_IRQHandler>:

/**
  * @brief This function handles DMA1 channel7 global interrupt.
  */
void DMA1_Channel7_IRQHandler(void)
{
 800114c:	b580      	push	{r7, lr}
 800114e:	af00      	add	r7, sp, #0
  /* USER CODE BEGIN DMA1_Channel7_IRQn 0 */

  /* USER CODE END DMA1_Channel7_IRQn 0 */
  HAL_DMA_IRQHandler(&hdma_tim2_ch2_ch4);
 8001150:	4802      	ldr	r0, [pc, #8]	; (800115c <DMA1_Channel7_IRQHandler+0x10>)
 8001152:	f000 fa35 	bl	80015c0 <HAL_DMA_IRQHandler>
  /* USER CODE BEGIN DMA1_Channel7_IRQn 1 */

  /* USER CODE END DMA1_Channel7_IRQn 1 */
}
 8001156:	bf00      	nop
 8001158:	bd80      	pop	{r7, pc}
 800115a:	bf00      	nop
 800115c:	20000144 	.word	0x20000144

08001160 <_sbrk>:
 *
 * @param incr Memory size
 * @return Pointer to allocated memory
 */
void *_sbrk(ptrdiff_t incr)
{
 8001160:	b580      	push	{r7, lr}
 8001162:	b086      	sub	sp, #24
 8001164:	af00      	add	r7, sp, #0
 8001166:	6078      	str	r0, [r7, #4]
  extern uint8_t _end; /* Symbol defined in the linker script */
  extern uint8_t _estack; /* Symbol defined in the linker script */
  extern uint32_t _Min_Stack_Size; /* Symbol defined in the linker script */
  const uint32_t stack_limit = (uint32_t)&_estack - (uint32_t)&_Min_Stack_Size;
 8001168:	4a14      	ldr	r2, [pc, #80]	; (80011bc <_sbrk+0x5c>)
 800116a:	4b15      	ldr	r3, [pc, #84]	; (80011c0 <_sbrk+0x60>)
 800116c:	1ad3      	subs	r3, r2, r3
 800116e:	617b      	str	r3, [r7, #20]
  const uint8_t *max_heap = (uint8_t *)stack_limit;
 8001170:	697b      	ldr	r3, [r7, #20]
 8001172:	613b      	str	r3, [r7, #16]
  uint8_t *prev_heap_end;

  /* Initialize heap end at first call */
  if (NULL == __sbrk_heap_end)
 8001174:	4b13      	ldr	r3, [pc, #76]	; (80011c4 <_sbrk+0x64>)
 8001176:	681b      	ldr	r3, [r3, #0]
 8001178:	2b00      	cmp	r3, #0
 800117a:	d102      	bne.n	8001182 <_sbrk+0x22>
  {
    __sbrk_heap_end = &_end;
 800117c:	4b11      	ldr	r3, [pc, #68]	; (80011c4 <_sbrk+0x64>)
 800117e:	4a12      	ldr	r2, [pc, #72]	; (80011c8 <_sbrk+0x68>)
 8001180:	601a      	str	r2, [r3, #0]
  }

  /* Protect heap from growing into the reserved MSP stack */
  if (__sbrk_heap_end + incr > max_heap)
 8001182:	4b10      	ldr	r3, [pc, #64]	; (80011c4 <_sbrk+0x64>)
 8001184:	681a      	ldr	r2, [r3, #0]
 8001186:	687b      	ldr	r3, [r7, #4]
 8001188:	4413      	add	r3, r2
 800118a:	693a      	ldr	r2, [r7, #16]
 800118c:	429a      	cmp	r2, r3
 800118e:	d207      	bcs.n	80011a0 <_sbrk+0x40>
  {
    errno = ENOMEM;
 8001190:	f003 fde8 	bl	8004d64 <__errno>
 8001194:	4602      	mov	r2, r0
 8001196:	230c      	movs	r3, #12
 8001198:	6013      	str	r3, [r2, #0]
    return (void *)-1;
 800119a:	f04f 33ff 	mov.w	r3, #4294967295
 800119e:	e009      	b.n	80011b4 <_sbrk+0x54>
  }

  prev_heap_end = __sbrk_heap_end;
 80011a0:	4b08      	ldr	r3, [pc, #32]	; (80011c4 <_sbrk+0x64>)
 80011a2:	681b      	ldr	r3, [r3, #0]
 80011a4:	60fb      	str	r3, [r7, #12]
  __sbrk_heap_end += incr;
 80011a6:	4b07      	ldr	r3, [pc, #28]	; (80011c4 <_sbrk+0x64>)
 80011a8:	681a      	ldr	r2, [r3, #0]
 80011aa:	687b      	ldr	r3, [r7, #4]
 80011ac:	4413      	add	r3, r2
 80011ae:	4a05      	ldr	r2, [pc, #20]	; (80011c4 <_sbrk+0x64>)
 80011b0:	6013      	str	r3, [r2, #0]

  return (void *)prev_heap_end;
 80011b2:	68fb      	ldr	r3, [r7, #12]
}
 80011b4:	4618      	mov	r0, r3
 80011b6:	3718      	adds	r7, #24
 80011b8:	46bd      	mov	sp, r7
 80011ba:	bd80      	pop	{r7, pc}
 80011bc:	2000a000 	.word	0x2000a000
 80011c0:	00000400 	.word	0x00000400
 80011c4:	200000a4 	.word	0x200000a4
 80011c8:	20000360 	.word	0x20000360

080011cc <SystemInit>:
  * @brief  Setup the microcontroller system
  * @param  None
  * @retval None
  */
void SystemInit(void)
{
 80011cc:	b480      	push	{r7}
 80011ce:	af00      	add	r7, sp, #0
/* FPU settings --------------------------------------------------------------*/
#if (__FPU_PRESENT == 1) && (__FPU_USED == 1)
  SCB->CPACR |= ((3UL << 10*2)|(3UL << 11*2));  /* set CP10 and CP11 Full Access */
 80011d0:	4b06      	ldr	r3, [pc, #24]	; (80011ec <SystemInit+0x20>)
 80011d2:	f8d3 3088 	ldr.w	r3, [r3, #136]	; 0x88
 80011d6:	4a05      	ldr	r2, [pc, #20]	; (80011ec <SystemInit+0x20>)
 80011d8:	f443 0370 	orr.w	r3, r3, #15728640	; 0xf00000
 80011dc:	f8c2 3088 	str.w	r3, [r2, #136]	; 0x88

  /* Configure the Vector Table location -------------------------------------*/
#if defined(USER_VECT_TAB_ADDRESS)
  SCB->VTOR = VECT_TAB_BASE_ADDRESS | VECT_TAB_OFFSET; /* Vector Table Relocation in Internal SRAM */
#endif /* USER_VECT_TAB_ADDRESS */
}
 80011e0:	bf00      	nop
 80011e2:	46bd      	mov	sp, r7
 80011e4:	f85d 7b04 	ldr.w	r7, [sp], #4
 80011e8:	4770      	bx	lr
 80011ea:	bf00      	nop
 80011ec:	e000ed00 	.word	0xe000ed00

080011f0 <Reset_Handler>:

    .section	.text.Reset_Handler
	.weak	Reset_Handler
	.type	Reset_Handler, %function
Reset_Handler:
  ldr   sp, =_estack    /* Atollic update: set stack pointer */
 80011f0:	f8df d034 	ldr.w	sp, [pc, #52]	; 8001228 <LoopForever+0x2>

/* Copy the data segment initializers from flash to SRAM */
  ldr r0, =_sdata
 80011f4:	480d      	ldr	r0, [pc, #52]	; (800122c <LoopForever+0x6>)
  ldr r1, =_edata
 80011f6:	490e      	ldr	r1, [pc, #56]	; (8001230 <LoopForever+0xa>)
  ldr r2, =_sidata
 80011f8:	4a0e      	ldr	r2, [pc, #56]	; (8001234 <LoopForever+0xe>)
  movs r3, #0
 80011fa:	2300      	movs	r3, #0
  b LoopCopyDataInit
 80011fc:	e002      	b.n	8001204 <LoopCopyDataInit>

080011fe <CopyDataInit>:

CopyDataInit:
  ldr r4, [r2, r3]
 80011fe:	58d4      	ldr	r4, [r2, r3]
  str r4, [r0, r3]
 8001200:	50c4      	str	r4, [r0, r3]
  adds r3, r3, #4
 8001202:	3304      	adds	r3, #4

08001204 <LoopCopyDataInit>:

LoopCopyDataInit:
  adds r4, r0, r3
 8001204:	18c4      	adds	r4, r0, r3
  cmp r4, r1
 8001206:	428c      	cmp	r4, r1
  bcc CopyDataInit
 8001208:	d3f9      	bcc.n	80011fe <CopyDataInit>
  
/* Zero fill the bss segment. */
  ldr r2, =_sbss
 800120a:	4a0b      	ldr	r2, [pc, #44]	; (8001238 <LoopForever+0x12>)
  ldr r4, =_ebss
 800120c:	4c0b      	ldr	r4, [pc, #44]	; (800123c <LoopForever+0x16>)
  movs r3, #0
 800120e:	2300      	movs	r3, #0
  b LoopFillZerobss
 8001210:	e001      	b.n	8001216 <LoopFillZerobss>

08001212 <FillZerobss>:

FillZerobss:
  str  r3, [r2]
 8001212:	6013      	str	r3, [r2, #0]
  adds r2, r2, #4
 8001214:	3204      	adds	r2, #4

08001216 <LoopFillZerobss>:

LoopFillZerobss:
  cmp r2, r4
 8001216:	42a2      	cmp	r2, r4
  bcc FillZerobss
 8001218:	d3fb      	bcc.n	8001212 <FillZerobss>

/* Call the clock system intitialization function.*/
    bl  SystemInit
 800121a:	f7ff ffd7 	bl	80011cc <SystemInit>
/* Call static constructors */
    bl __libc_init_array
 800121e:	f003 fda7 	bl	8004d70 <__libc_init_array>
/* Call the application's entry point.*/
	bl	main
 8001222:	f7ff f92d 	bl	8000480 <main>

08001226 <LoopForever>:

LoopForever:
    b LoopForever
 8001226:	e7fe      	b.n	8001226 <LoopForever>
  ldr   sp, =_estack    /* Atollic update: set stack pointer */
 8001228:	2000a000 	.word	0x2000a000
  ldr r0, =_sdata
 800122c:	20000000 	.word	0x20000000
  ldr r1, =_edata
 8001230:	20000078 	.word	0x20000078
  ldr r2, =_sidata
 8001234:	08005700 	.word	0x08005700
  ldr r2, =_sbss
 8001238:	20000078 	.word	0x20000078
  ldr r4, =_ebss
 800123c:	2000035c 	.word	0x2000035c

08001240 <ADC1_2_IRQHandler>:
 * @retval : None
*/
    .section	.text.Default_Handler,"ax",%progbits
Default_Handler:
Infinite_Loop:
	b	Infinite_Loop
 8001240:	e7fe      	b.n	8001240 <ADC1_2_IRQHandler>
	...

08001244 <HAL_Init>:
  *         In the default implementation,Systick is used as source of time base.
  *       The tick variable is incremented each 1ms in its ISR.
  * @retval HAL status
  */
HAL_StatusTypeDef HAL_Init(void)
{
 8001244:	b580      	push	{r7, lr}
 8001246:	af00      	add	r7, sp, #0
  /* Configure Flash prefetch */
#if (PREFETCH_ENABLE != 0U)
  __HAL_FLASH_PREFETCH_BUFFER_ENABLE();
 8001248:	4b08      	ldr	r3, [pc, #32]	; (800126c <HAL_Init+0x28>)
 800124a:	681b      	ldr	r3, [r3, #0]
 800124c:	4a07      	ldr	r2, [pc, #28]	; (800126c <HAL_Init+0x28>)
 800124e:	f043 0310 	orr.w	r3, r3, #16
 8001252:	6013      	str	r3, [r2, #0]
#endif /* PREFETCH_ENABLE */

  /* Set Interrupt Group Priority */
  HAL_NVIC_SetPriorityGrouping(NVIC_PRIORITYGROUP_4);
 8001254:	2003      	movs	r0, #3
 8001256:	f000 f92b 	bl	80014b0 <HAL_NVIC_SetPriorityGrouping>

  /* Enable systick and configure 1ms tick (default clock after Reset is HSI) */
  HAL_InitTick(TICK_INT_PRIORITY);
 800125a:	2000      	movs	r0, #0
 800125c:	f000 f808 	bl	8001270 <HAL_InitTick>

  /* Init the low level hardware */
  HAL_MspInit();
 8001260:	f7ff fd8c 	bl	8000d7c <HAL_MspInit>

  /* Return function status */
  return HAL_OK;
 8001264:	2300      	movs	r3, #0
}
 8001266:	4618      	mov	r0, r3
 8001268:	bd80      	pop	{r7, pc}
 800126a:	bf00      	nop
 800126c:	40022000 	.word	0x40022000

08001270 <HAL_InitTick>:
  *         implementation  in user file.
  * @param TickPriority Tick interrupt priority.
  * @retval HAL status
  */
__weak HAL_StatusTypeDef HAL_InitTick(uint32_t TickPriority)
{
 8001270:	b580      	push	{r7, lr}
 8001272:	b082      	sub	sp, #8
 8001274:	af00      	add	r7, sp, #0
 8001276:	6078      	str	r0, [r7, #4]
  /* Configure the SysTick to have interrupt in 1ms time basis*/
  if (HAL_SYSTICK_Config(SystemCoreClock / (1000U / uwTickFreq)) > 0U)
 8001278:	4b12      	ldr	r3, [pc, #72]	; (80012c4 <HAL_InitTick+0x54>)
 800127a:	681a      	ldr	r2, [r3, #0]
 800127c:	4b12      	ldr	r3, [pc, #72]	; (80012c8 <HAL_InitTick+0x58>)
 800127e:	781b      	ldrb	r3, [r3, #0]
 8001280:	4619      	mov	r1, r3
 8001282:	f44f 737a 	mov.w	r3, #1000	; 0x3e8
 8001286:	fbb3 f3f1 	udiv	r3, r3, r1
 800128a:	fbb2 f3f3 	udiv	r3, r2, r3
 800128e:	4618      	mov	r0, r3
 8001290:	f000 f943 	bl	800151a <HAL_SYSTICK_Config>
 8001294:	4603      	mov	r3, r0
 8001296:	2b00      	cmp	r3, #0
 8001298:	d001      	beq.n	800129e <HAL_InitTick+0x2e>
  {
    return HAL_ERROR;
 800129a:	2301      	movs	r3, #1
 800129c:	e00e      	b.n	80012bc <HAL_InitTick+0x4c>
  }

  /* Configure the SysTick IRQ priority */
  if (TickPriority < (1UL << __NVIC_PRIO_BITS))
 800129e:	687b      	ldr	r3, [r7, #4]
 80012a0:	2b0f      	cmp	r3, #15
 80012a2:	d80a      	bhi.n	80012ba <HAL_InitTick+0x4a>
  {
    HAL_NVIC_SetPriority(SysTick_IRQn, TickPriority, 0U);
 80012a4:	2200      	movs	r2, #0
 80012a6:	6879      	ldr	r1, [r7, #4]
 80012a8:	f04f 30ff 	mov.w	r0, #4294967295
 80012ac:	f000 f90b 	bl	80014c6 <HAL_NVIC_SetPriority>
    uwTickPrio = TickPriority;
 80012b0:	4a06      	ldr	r2, [pc, #24]	; (80012cc <HAL_InitTick+0x5c>)
 80012b2:	687b      	ldr	r3, [r7, #4]
 80012b4:	6013      	str	r3, [r2, #0]
  else
  {
    return HAL_ERROR;
  }
   /* Return function status */
  return HAL_OK;
 80012b6:	2300      	movs	r3, #0
 80012b8:	e000      	b.n	80012bc <HAL_InitTick+0x4c>
    return HAL_ERROR;
 80012ba:	2301      	movs	r3, #1
}
 80012bc:	4618      	mov	r0, r3
 80012be:	3708      	adds	r7, #8
 80012c0:	46bd      	mov	sp, r7
 80012c2:	bd80      	pop	{r7, pc}
 80012c4:	20000008 	.word	0x20000008
 80012c8:	20000010 	.word	0x20000010
 80012cc:	2000000c 	.word	0x2000000c

080012d0 <HAL_IncTick>:
  * @note This function is declared as __weak to be overwritten in case of other 
  *         implementations  in user file.
  * @retval None
  */
__weak void HAL_IncTick(void)
{
 80012d0:	b480      	push	{r7}
 80012d2:	af00      	add	r7, sp, #0
  uwTick += uwTickFreq;
 80012d4:	4b06      	ldr	r3, [pc, #24]	; (80012f0 <HAL_IncTick+0x20>)
 80012d6:	781b      	ldrb	r3, [r3, #0]
 80012d8:	461a      	mov	r2, r3
 80012da:	4b06      	ldr	r3, [pc, #24]	; (80012f4 <HAL_IncTick+0x24>)
 80012dc:	681b      	ldr	r3, [r3, #0]
 80012de:	4413      	add	r3, r2
 80012e0:	4a04      	ldr	r2, [pc, #16]	; (80012f4 <HAL_IncTick+0x24>)
 80012e2:	6013      	str	r3, [r2, #0]
}
 80012e4:	bf00      	nop
 80012e6:	46bd      	mov	sp, r7
 80012e8:	f85d 7b04 	ldr.w	r7, [sp], #4
 80012ec:	4770      	bx	lr
 80012ee:	bf00      	nop
 80012f0:	20000010 	.word	0x20000010
 80012f4:	20000354 	.word	0x20000354

080012f8 <HAL_GetTick>:
  * @note   The function is declared as __Weak  to be overwritten  in case of other 
  *         implementations  in user file.
  * @retval tick value
  */
__weak uint32_t HAL_GetTick(void)
{
 80012f8:	b480      	push	{r7}
 80012fa:	af00      	add	r7, sp, #0
  return uwTick;  
 80012fc:	4b03      	ldr	r3, [pc, #12]	; (800130c <HAL_GetTick+0x14>)
 80012fe:	681b      	ldr	r3, [r3, #0]
}
 8001300:	4618      	mov	r0, r3
 8001302:	46bd      	mov	sp, r7
 8001304:	f85d 7b04 	ldr.w	r7, [sp], #4
 8001308:	4770      	bx	lr
 800130a:	bf00      	nop
 800130c:	20000354 	.word	0x20000354

08001310 <__NVIC_SetPriorityGrouping>:
           In case of a conflict between priority grouping and available
           priority bits (__NVIC_PRIO_BITS), the smallest possible priority group is set.
  \param [in]      PriorityGroup  Priority grouping field.
 */
__STATIC_INLINE void __NVIC_SetPriorityGrouping(uint32_t PriorityGroup)
{
 8001310:	b480      	push	{r7}
 8001312:	b085      	sub	sp, #20
 8001314:	af00      	add	r7, sp, #0
 8001316:	6078      	str	r0, [r7, #4]
  uint32_t reg_value;
  uint32_t PriorityGroupTmp = (PriorityGroup & (uint32_t)0x07UL);             /* only values 0..7 are used          */
 8001318:	687b      	ldr	r3, [r7, #4]
 800131a:	f003 0307 	and.w	r3, r3, #7
 800131e:	60fb      	str	r3, [r7, #12]

  reg_value  =  SCB->AIRCR;                                                   /* read old register configuration    */
 8001320:	4b0c      	ldr	r3, [pc, #48]	; (8001354 <__NVIC_SetPriorityGrouping+0x44>)
 8001322:	68db      	ldr	r3, [r3, #12]
 8001324:	60bb      	str	r3, [r7, #8]
  reg_value &= ~((uint32_t)(SCB_AIRCR_VECTKEY_Msk | SCB_AIRCR_PRIGROUP_Msk)); /* clear bits to change               */
 8001326:	68ba      	ldr	r2, [r7, #8]
 8001328:	f64f 03ff 	movw	r3, #63743	; 0xf8ff
 800132c:	4013      	ands	r3, r2
 800132e:	60bb      	str	r3, [r7, #8]
  reg_value  =  (reg_value                                   |
                ((uint32_t)0x5FAUL << SCB_AIRCR_VECTKEY_Pos) |
                (PriorityGroupTmp << SCB_AIRCR_PRIGROUP_Pos)  );              /* Insert write key and priority group */
 8001330:	68fb      	ldr	r3, [r7, #12]
 8001332:	021a      	lsls	r2, r3, #8
                ((uint32_t)0x5FAUL << SCB_AIRCR_VECTKEY_Pos) |
 8001334:	68bb      	ldr	r3, [r7, #8]
 8001336:	4313      	orrs	r3, r2
  reg_value  =  (reg_value                                   |
 8001338:	f043 63bf 	orr.w	r3, r3, #100139008	; 0x5f80000
 800133c:	f443 3300 	orr.w	r3, r3, #131072	; 0x20000
 8001340:	60bb      	str	r3, [r7, #8]
  SCB->AIRCR =  reg_value;
 8001342:	4a04      	ldr	r2, [pc, #16]	; (8001354 <__NVIC_SetPriorityGrouping+0x44>)
 8001344:	68bb      	ldr	r3, [r7, #8]
 8001346:	60d3      	str	r3, [r2, #12]
}
 8001348:	bf00      	nop
 800134a:	3714      	adds	r7, #20
 800134c:	46bd      	mov	sp, r7
 800134e:	f85d 7b04 	ldr.w	r7, [sp], #4
 8001352:	4770      	bx	lr
 8001354:	e000ed00 	.word	0xe000ed00

08001358 <__NVIC_GetPriorityGrouping>:
  \brief   Get Priority Grouping
  \details Reads the priority grouping field from the NVIC Interrupt Controller.
  \return                Priority grouping field (SCB->AIRCR [10:8] PRIGROUP field).
 */
__STATIC_INLINE uint32_t __NVIC_GetPriorityGrouping(void)
{
 8001358:	b480      	push	{r7}
 800135a:	af00      	add	r7, sp, #0
  return ((uint32_t)((SCB->AIRCR & SCB_AIRCR_PRIGROUP_Msk) >> SCB_AIRCR_PRIGROUP_Pos));
 800135c:	4b04      	ldr	r3, [pc, #16]	; (8001370 <__NVIC_GetPriorityGrouping+0x18>)
 800135e:	68db      	ldr	r3, [r3, #12]
 8001360:	0a1b      	lsrs	r3, r3, #8
 8001362:	f003 0307 	and.w	r3, r3, #7
}
 8001366:	4618      	mov	r0, r3
 8001368:	46bd      	mov	sp, r7
 800136a:	f85d 7b04 	ldr.w	r7, [sp], #4
 800136e:	4770      	bx	lr
 8001370:	e000ed00 	.word	0xe000ed00

08001374 <__NVIC_EnableIRQ>:
  \details Enables a device specific interrupt in the NVIC interrupt controller.
  \param [in]      IRQn  Device specific interrupt number.
  \note    IRQn must not be negative.
 */
__STATIC_INLINE void __NVIC_EnableIRQ(IRQn_Type IRQn)
{
 8001374:	b480      	push	{r7}
 8001376:	b083      	sub	sp, #12
 8001378:	af00      	add	r7, sp, #0
 800137a:	4603      	mov	r3, r0
 800137c:	71fb      	strb	r3, [r7, #7]
  if ((int32_t)(IRQn) >= 0)
 800137e:	f997 3007 	ldrsb.w	r3, [r7, #7]
 8001382:	2b00      	cmp	r3, #0
 8001384:	db0b      	blt.n	800139e <__NVIC_EnableIRQ+0x2a>
  {
    NVIC->ISER[(((uint32_t)IRQn) >> 5UL)] = (uint32_t)(1UL << (((uint32_t)IRQn) & 0x1FUL));
 8001386:	79fb      	ldrb	r3, [r7, #7]
 8001388:	f003 021f 	and.w	r2, r3, #31
 800138c:	4907      	ldr	r1, [pc, #28]	; (80013ac <__NVIC_EnableIRQ+0x38>)
 800138e:	f997 3007 	ldrsb.w	r3, [r7, #7]
 8001392:	095b      	lsrs	r3, r3, #5
 8001394:	2001      	movs	r0, #1
 8001396:	fa00 f202 	lsl.w	r2, r0, r2
 800139a:	f841 2023 	str.w	r2, [r1, r3, lsl #2]
  }
}
 800139e:	bf00      	nop
 80013a0:	370c      	adds	r7, #12
 80013a2:	46bd      	mov	sp, r7
 80013a4:	f85d 7b04 	ldr.w	r7, [sp], #4
 80013a8:	4770      	bx	lr
 80013aa:	bf00      	nop
 80013ac:	e000e100 	.word	0xe000e100

080013b0 <__NVIC_SetPriority>:
  \param [in]      IRQn  Interrupt number.
  \param [in]  priority  Priority to set.
  \note    The priority cannot be set for every processor exception.
 */
__STATIC_INLINE void __NVIC_SetPriority(IRQn_Type IRQn, uint32_t priority)
{
 80013b0:	b480      	push	{r7}
 80013b2:	b083      	sub	sp, #12
 80013b4:	af00      	add	r7, sp, #0
 80013b6:	4603      	mov	r3, r0
 80013b8:	6039      	str	r1, [r7, #0]
 80013ba:	71fb      	strb	r3, [r7, #7]
  if ((int32_t)(IRQn) >= 0)
 80013bc:	f997 3007 	ldrsb.w	r3, [r7, #7]
 80013c0:	2b00      	cmp	r3, #0
 80013c2:	db0a      	blt.n	80013da <__NVIC_SetPriority+0x2a>
  {
    NVIC->IP[((uint32_t)IRQn)]               = (uint8_t)((priority << (8U - __NVIC_PRIO_BITS)) & (uint32_t)0xFFUL);
 80013c4:	683b      	ldr	r3, [r7, #0]
 80013c6:	b2da      	uxtb	r2, r3
 80013c8:	490c      	ldr	r1, [pc, #48]	; (80013fc <__NVIC_SetPriority+0x4c>)
 80013ca:	f997 3007 	ldrsb.w	r3, [r7, #7]
 80013ce:	0112      	lsls	r2, r2, #4
 80013d0:	b2d2      	uxtb	r2, r2
 80013d2:	440b      	add	r3, r1
 80013d4:	f883 2300 	strb.w	r2, [r3, #768]	; 0x300
  }
  else
  {
    SCB->SHP[(((uint32_t)IRQn) & 0xFUL)-4UL] = (uint8_t)((priority << (8U - __NVIC_PRIO_BITS)) & (uint32_t)0xFFUL);
  }
}
 80013d8:	e00a      	b.n	80013f0 <__NVIC_SetPriority+0x40>
    SCB->SHP[(((uint32_t)IRQn) & 0xFUL)-4UL] = (uint8_t)((priority << (8U - __NVIC_PRIO_BITS)) & (uint32_t)0xFFUL);
 80013da:	683b      	ldr	r3, [r7, #0]
 80013dc:	b2da      	uxtb	r2, r3
 80013de:	4908      	ldr	r1, [pc, #32]	; (8001400 <__NVIC_SetPriority+0x50>)
 80013e0:	79fb      	ldrb	r3, [r7, #7]
 80013e2:	f003 030f 	and.w	r3, r3, #15
 80013e6:	3b04      	subs	r3, #4
 80013e8:	0112      	lsls	r2, r2, #4
 80013ea:	b2d2      	uxtb	r2, r2
 80013ec:	440b      	add	r3, r1
 80013ee:	761a      	strb	r2, [r3, #24]
}
 80013f0:	bf00      	nop
 80013f2:	370c      	adds	r7, #12
 80013f4:	46bd      	mov	sp, r7
 80013f6:	f85d 7b04 	ldr.w	r7, [sp], #4
 80013fa:	4770      	bx	lr
 80013fc:	e000e100 	.word	0xe000e100
 8001400:	e000ed00 	.word	0xe000ed00

08001404 <NVIC_EncodePriority>:
  \param [in]   PreemptPriority  Preemptive priority value (starting from 0).
  \param [in]       SubPriority  Subpriority value (starting from 0).
  \return                        Encoded priority. Value can be used in the function \ref NVIC_SetPriority().
 */
__STATIC_INLINE uint32_t NVIC_EncodePriority (uint32_t PriorityGroup, uint32_t PreemptPriority, uint32_t SubPriority)
{
 8001404:	b480      	push	{r7}
 8001406:	b089      	sub	sp, #36	; 0x24
 8001408:	af00      	add	r7, sp, #0
 800140a:	60f8      	str	r0, [r7, #12]
 800140c:	60b9      	str	r1, [r7, #8]
 800140e:	607a      	str	r2, [r7, #4]
  uint32_t PriorityGroupTmp = (PriorityGroup & (uint32_t)0x07UL);   /* only values 0..7 are used          */
 8001410:	68fb      	ldr	r3, [r7, #12]
 8001412:	f003 0307 	and.w	r3, r3, #7
 8001416:	61fb      	str	r3, [r7, #28]
  uint32_t PreemptPriorityBits;
  uint32_t SubPriorityBits;

  PreemptPriorityBits = ((7UL - PriorityGroupTmp) > (uint32_t)(__NVIC_PRIO_BITS)) ? (uint32_t)(__NVIC_PRIO_BITS) : (uint32_t)(7UL - PriorityGroupTmp);
 8001418:	69fb      	ldr	r3, [r7, #28]
 800141a:	f1c3 0307 	rsb	r3, r3, #7
 800141e:	2b04      	cmp	r3, #4
 8001420:	bf28      	it	cs
 8001422:	2304      	movcs	r3, #4
 8001424:	61bb      	str	r3, [r7, #24]
  SubPriorityBits     = ((PriorityGroupTmp + (uint32_t)(__NVIC_PRIO_BITS)) < (uint32_t)7UL) ? (uint32_t)0UL : (uint32_t)((PriorityGroupTmp - 7UL) + (uint32_t)(__NVIC_PRIO_BITS));
 8001426:	69fb      	ldr	r3, [r7, #28]
 8001428:	3304      	adds	r3, #4
 800142a:	2b06      	cmp	r3, #6
 800142c:	d902      	bls.n	8001434 <NVIC_EncodePriority+0x30>
 800142e:	69fb      	ldr	r3, [r7, #28]
 8001430:	3b03      	subs	r3, #3
 8001432:	e000      	b.n	8001436 <NVIC_EncodePriority+0x32>
 8001434:	2300      	movs	r3, #0
 8001436:	617b      	str	r3, [r7, #20]

  return (
           ((PreemptPriority & (uint32_t)((1UL << (PreemptPriorityBits)) - 1UL)) << SubPriorityBits) |
 8001438:	f04f 32ff 	mov.w	r2, #4294967295
 800143c:	69bb      	ldr	r3, [r7, #24]
 800143e:	fa02 f303 	lsl.w	r3, r2, r3
 8001442:	43da      	mvns	r2, r3
 8001444:	68bb      	ldr	r3, [r7, #8]
 8001446:	401a      	ands	r2, r3
 8001448:	697b      	ldr	r3, [r7, #20]
 800144a:	409a      	lsls	r2, r3
           ((SubPriority     & (uint32_t)((1UL << (SubPriorityBits    )) - 1UL)))
 800144c:	f04f 31ff 	mov.w	r1, #4294967295
 8001450:	697b      	ldr	r3, [r7, #20]
 8001452:	fa01 f303 	lsl.w	r3, r1, r3
 8001456:	43d9      	mvns	r1, r3
 8001458:	687b      	ldr	r3, [r7, #4]
 800145a:	400b      	ands	r3, r1
           ((PreemptPriority & (uint32_t)((1UL << (PreemptPriorityBits)) - 1UL)) << SubPriorityBits) |
 800145c:	4313      	orrs	r3, r2
         );
}
 800145e:	4618      	mov	r0, r3
 8001460:	3724      	adds	r7, #36	; 0x24
 8001462:	46bd      	mov	sp, r7
 8001464:	f85d 7b04 	ldr.w	r7, [sp], #4
 8001468:	4770      	bx	lr
	...

0800146c <SysTick_Config>:
  \note    When the variable <b>__Vendor_SysTickConfig</b> is set to 1, then the
           function <b>SysTick_Config</b> is not included. In this case, the file <b><i>device</i>.h</b>
           must contain a vendor-specific implementation of this function.
 */
__STATIC_INLINE uint32_t SysTick_Config(uint32_t ticks)
{
 800146c:	b580      	push	{r7, lr}
 800146e:	b082      	sub	sp, #8
 8001470:	af00      	add	r7, sp, #0
 8001472:	6078      	str	r0, [r7, #4]
  if ((ticks - 1UL) > SysTick_LOAD_RELOAD_Msk)
 8001474:	687b      	ldr	r3, [r7, #4]
 8001476:	3b01      	subs	r3, #1
 8001478:	f1b3 7f80 	cmp.w	r3, #16777216	; 0x1000000
 800147c:	d301      	bcc.n	8001482 <SysTick_Config+0x16>
  {
    return (1UL);                                                   /* Reload value impossible */
 800147e:	2301      	movs	r3, #1
 8001480:	e00f      	b.n	80014a2 <SysTick_Config+0x36>
  }

  SysTick->LOAD  = (uint32_t)(ticks - 1UL);                         /* set reload register */
 8001482:	4a0a      	ldr	r2, [pc, #40]	; (80014ac <SysTick_Config+0x40>)
 8001484:	687b      	ldr	r3, [r7, #4]
 8001486:	3b01      	subs	r3, #1
 8001488:	6053      	str	r3, [r2, #4]
  NVIC_SetPriority (SysTick_IRQn, (1UL << __NVIC_PRIO_BITS) - 1UL); /* set Priority for Systick Interrupt */
 800148a:	210f      	movs	r1, #15
 800148c:	f04f 30ff 	mov.w	r0, #4294967295
 8001490:	f7ff ff8e 	bl	80013b0 <__NVIC_SetPriority>
  SysTick->VAL   = 0UL;                                             /* Load the SysTick Counter Value */
 8001494:	4b05      	ldr	r3, [pc, #20]	; (80014ac <SysTick_Config+0x40>)
 8001496:	2200      	movs	r2, #0
 8001498:	609a      	str	r2, [r3, #8]
  SysTick->CTRL  = SysTick_CTRL_CLKSOURCE_Msk |
 800149a:	4b04      	ldr	r3, [pc, #16]	; (80014ac <SysTick_Config+0x40>)
 800149c:	2207      	movs	r2, #7
 800149e:	601a      	str	r2, [r3, #0]
                   SysTick_CTRL_TICKINT_Msk   |
                   SysTick_CTRL_ENABLE_Msk;                         /* Enable SysTick IRQ and SysTick Timer */
  return (0UL);                                                     /* Function successful */
 80014a0:	2300      	movs	r3, #0
}
 80014a2:	4618      	mov	r0, r3
 80014a4:	3708      	adds	r7, #8
 80014a6:	46bd      	mov	sp, r7
 80014a8:	bd80      	pop	{r7, pc}
 80014aa:	bf00      	nop
 80014ac:	e000e010 	.word	0xe000e010

080014b0 <HAL_NVIC_SetPriorityGrouping>:
  * @note   When the NVIC_PriorityGroup_0 is selected, IRQ pre-emption is no more possible.
  *         The pending IRQ priority will be managed only by the subpriority.
  * @retval None
  */
void HAL_NVIC_SetPriorityGrouping(uint32_t PriorityGroup)
{
 80014b0:	b580      	push	{r7, lr}
 80014b2:	b082      	sub	sp, #8
 80014b4:	af00      	add	r7, sp, #0
 80014b6:	6078      	str	r0, [r7, #4]
  /* Check the parameters */
  assert_param(IS_NVIC_PRIORITY_GROUP(PriorityGroup));

  /* Set the PRIGROUP[10:8] bits according to the PriorityGroup parameter value */
  NVIC_SetPriorityGrouping(PriorityGroup);
 80014b8:	6878      	ldr	r0, [r7, #4]
 80014ba:	f7ff ff29 	bl	8001310 <__NVIC_SetPriorityGrouping>
}
 80014be:	bf00      	nop
 80014c0:	3708      	adds	r7, #8
 80014c2:	46bd      	mov	sp, r7
 80014c4:	bd80      	pop	{r7, pc}

080014c6 <HAL_NVIC_SetPriority>:
  *         This parameter can be a value between 0 and 15 as described in the table CORTEX_NVIC_Priority_Table
  *         A lower priority value indicates a higher priority.
  * @retval None
  */
void HAL_NVIC_SetPriority(IRQn_Type IRQn, uint32_t PreemptPriority, uint32_t SubPriority)
{
 80014c6:	b580      	push	{r7, lr}
 80014c8:	b086      	sub	sp, #24
 80014ca:	af00      	add	r7, sp, #0
 80014cc:	4603      	mov	r3, r0
 80014ce:	60b9      	str	r1, [r7, #8]
 80014d0:	607a      	str	r2, [r7, #4]
 80014d2:	73fb      	strb	r3, [r7, #15]
  uint32_t prioritygroup = 0x00U;
 80014d4:	2300      	movs	r3, #0
 80014d6:	617b      	str	r3, [r7, #20]
  
  /* Check the parameters */
  assert_param(IS_NVIC_SUB_PRIORITY(SubPriority));
  assert_param(IS_NVIC_PREEMPTION_PRIORITY(PreemptPriority));
  
  prioritygroup = NVIC_GetPriorityGrouping();
 80014d8:	f7ff ff3e 	bl	8001358 <__NVIC_GetPriorityGrouping>
 80014dc:	6178      	str	r0, [r7, #20]
  
  NVIC_SetPriority(IRQn, NVIC_EncodePriority(prioritygroup, PreemptPriority, SubPriority));
 80014de:	687a      	ldr	r2, [r7, #4]
 80014e0:	68b9      	ldr	r1, [r7, #8]
 80014e2:	6978      	ldr	r0, [r7, #20]
 80014e4:	f7ff ff8e 	bl	8001404 <NVIC_EncodePriority>
 80014e8:	4602      	mov	r2, r0
 80014ea:	f997 300f 	ldrsb.w	r3, [r7, #15]
 80014ee:	4611      	mov	r1, r2
 80014f0:	4618      	mov	r0, r3
 80014f2:	f7ff ff5d 	bl	80013b0 <__NVIC_SetPriority>
}
 80014f6:	bf00      	nop
 80014f8:	3718      	adds	r7, #24
 80014fa:	46bd      	mov	sp, r7
 80014fc:	bd80      	pop	{r7, pc}

080014fe <HAL_NVIC_EnableIRQ>:
  *         This parameter can be an enumerator of IRQn_Type enumeration
  *         (For the complete STM32 Devices IRQ Channels list, please refer to the appropriate CMSIS device file (stm32f3xxxx.h))
  * @retval None
  */
void HAL_NVIC_EnableIRQ(IRQn_Type IRQn)
{
 80014fe:	b580      	push	{r7, lr}
 8001500:	b082      	sub	sp, #8
 8001502:	af00      	add	r7, sp, #0
 8001504:	4603      	mov	r3, r0
 8001506:	71fb      	strb	r3, [r7, #7]
  /* Check the parameters */
  assert_param(IS_NVIC_DEVICE_IRQ(IRQn));
  
  /* Enable interrupt */
  NVIC_EnableIRQ(IRQn);
 8001508:	f997 3007 	ldrsb.w	r3, [r7, #7]
 800150c:	4618      	mov	r0, r3
 800150e:	f7ff ff31 	bl	8001374 <__NVIC_EnableIRQ>
}
 8001512:	bf00      	nop
 8001514:	3708      	adds	r7, #8
 8001516:	46bd      	mov	sp, r7
 8001518:	bd80      	pop	{r7, pc}

0800151a <HAL_SYSTICK_Config>:
  * @param  TicksNumb Specifies the ticks Number of ticks between two interrupts.
  * @retval status:  - 0  Function succeeded.
  *                  - 1  Function failed.
  */
uint32_t HAL_SYSTICK_Config(uint32_t TicksNumb)
{
 800151a:	b580      	push	{r7, lr}
 800151c:	b082      	sub	sp, #8
 800151e:	af00      	add	r7, sp, #0
 8001520:	6078      	str	r0, [r7, #4]
   return SysTick_Config(TicksNumb);
 8001522:	6878      	ldr	r0, [r7, #4]
 8001524:	f7ff ffa2 	bl	800146c <SysTick_Config>
 8001528:	4603      	mov	r3, r0
}
 800152a:	4618      	mov	r0, r3
 800152c:	3708      	adds	r7, #8
 800152e:	46bd      	mov	sp, r7
 8001530:	bd80      	pop	{r7, pc}

08001532 <HAL_DMA_Init>:
  * @param  hdma Pointer to a DMA_HandleTypeDef structure that contains
  *               the configuration information for the specified DMA Channel.  
  * @retval HAL status
  */
HAL_StatusTypeDef HAL_DMA_Init(DMA_HandleTypeDef *hdma)
{ 
 8001532:	b580      	push	{r7, lr}
 8001534:	b084      	sub	sp, #16
 8001536:	af00      	add	r7, sp, #0
 8001538:	6078      	str	r0, [r7, #4]
  uint32_t tmp = 0U;
 800153a:	2300      	movs	r3, #0
 800153c:	60fb      	str	r3, [r7, #12]
  
  /* Check the DMA handle allocation */
  if(NULL == hdma)
 800153e:	687b      	ldr	r3, [r7, #4]
 8001540:	2b00      	cmp	r3, #0
 8001542:	d101      	bne.n	8001548 <HAL_DMA_Init+0x16>
  {
    return HAL_ERROR;
 8001544:	2301      	movs	r3, #1
 8001546:	e037      	b.n	80015b8 <HAL_DMA_Init+0x86>
  assert_param(IS_DMA_MEMORY_DATA_SIZE(hdma->Init.MemDataAlignment));
  assert_param(IS_DMA_MODE(hdma->Init.Mode));
  assert_param(IS_DMA_PRIORITY(hdma->Init.Priority));
  
  /* Change DMA peripheral state */
  hdma->State = HAL_DMA_STATE_BUSY;
 8001548:	687b      	ldr	r3, [r7, #4]
 800154a:	2202      	movs	r2, #2
 800154c:	f883 2021 	strb.w	r2, [r3, #33]	; 0x21

  /* Get the CR register value */
  tmp = hdma->Instance->CCR;
 8001550:	687b      	ldr	r3, [r7, #4]
 8001552:	681b      	ldr	r3, [r3, #0]
 8001554:	681b      	ldr	r3, [r3, #0]
 8001556:	60fb      	str	r3, [r7, #12]
  
  /* Clear PL, MSIZE, PSIZE, MINC, PINC, CIRC, DIR bits */
  tmp &= ((uint32_t)~(DMA_CCR_PL    | DMA_CCR_MSIZE  | DMA_CCR_PSIZE  | \
 8001558:	68fb      	ldr	r3, [r7, #12]
 800155a:	f423 537f 	bic.w	r3, r3, #16320	; 0x3fc0
 800155e:	f023 0330 	bic.w	r3, r3, #48	; 0x30
 8001562:	60fb      	str	r3, [r7, #12]
                      DMA_CCR_MINC  | DMA_CCR_PINC   | DMA_CCR_CIRC   | \
                      DMA_CCR_DIR));
  
  /* Prepare the DMA Channel configuration */
  tmp |=  hdma->Init.Direction        |
 8001564:	687b      	ldr	r3, [r7, #4]
 8001566:	685a      	ldr	r2, [r3, #4]
          hdma->Init.PeriphInc           | hdma->Init.MemInc           |
 8001568:	687b      	ldr	r3, [r7, #4]
 800156a:	689b      	ldr	r3, [r3, #8]
  tmp |=  hdma->Init.Direction        |
 800156c:	431a      	orrs	r2, r3
          hdma->Init.PeriphInc           | hdma->Init.MemInc           |
 800156e:	687b      	ldr	r3, [r7, #4]
 8001570:	68db      	ldr	r3, [r3, #12]
 8001572:	431a      	orrs	r2, r3
          hdma->Init.PeriphDataAlignment | hdma->Init.MemDataAlignment |
 8001574:	687b      	ldr	r3, [r7, #4]
 8001576:	691b      	ldr	r3, [r3, #16]
          hdma->Init.PeriphInc           | hdma->Init.MemInc           |
 8001578:	431a      	orrs	r2, r3
          hdma->Init.PeriphDataAlignment | hdma->Init.MemDataAlignment |
 800157a:	687b      	ldr	r3, [r7, #4]
 800157c:	695b      	ldr	r3, [r3, #20]
 800157e:	431a      	orrs	r2, r3
          hdma->Init.Mode                | hdma->Init.Priority;
 8001580:	687b      	ldr	r3, [r7, #4]
 8001582:	699b      	ldr	r3, [r3, #24]
          hdma->Init.PeriphDataAlignment | hdma->Init.MemDataAlignment |
 8001584:	431a      	orrs	r2, r3
          hdma->Init.Mode                | hdma->Init.Priority;
 8001586:	687b      	ldr	r3, [r7, #4]
 8001588:	69db      	ldr	r3, [r3, #28]
 800158a:	4313      	orrs	r3, r2
  tmp |=  hdma->Init.Direction        |
 800158c:	68fa      	ldr	r2, [r7, #12]
 800158e:	4313      	orrs	r3, r2
 8001590:	60fb      	str	r3, [r7, #12]

  /* Write to DMA Channel CR register */
  hdma->Instance->CCR = tmp;  
 8001592:	687b      	ldr	r3, [r7, #4]
 8001594:	681b      	ldr	r3, [r3, #0]
 8001596:	68fa      	ldr	r2, [r7, #12]
 8001598:	601a      	str	r2, [r3, #0]
  
  /* Initialize DmaBaseAddress and ChannelIndex parameters used 
     by HAL_DMA_IRQHandler() and HAL_DMA_PollForTransfer() */
  DMA_CalcBaseAndBitshift(hdma);
 800159a:	6878      	ldr	r0, [r7, #4]
 800159c:	f000 f8b4 	bl	8001708 <DMA_CalcBaseAndBitshift>
  
  /* Initialise the error code */
  hdma->ErrorCode = HAL_DMA_ERROR_NONE;
 80015a0:	687b      	ldr	r3, [r7, #4]
 80015a2:	2200      	movs	r2, #0
 80015a4:	639a      	str	r2, [r3, #56]	; 0x38

  /* Initialize the DMA state*/
  hdma->State = HAL_DMA_STATE_READY;
 80015a6:	687b      	ldr	r3, [r7, #4]
 80015a8:	2201      	movs	r2, #1
 80015aa:	f883 2021 	strb.w	r2, [r3, #33]	; 0x21
  
  /* Allocate lock resource and initialize it */
  hdma->Lock = HAL_UNLOCKED;
 80015ae:	687b      	ldr	r3, [r7, #4]
 80015b0:	2200      	movs	r2, #0
 80015b2:	f883 2020 	strb.w	r2, [r3, #32]
  
  return HAL_OK;
 80015b6:	2300      	movs	r3, #0
}  
 80015b8:	4618      	mov	r0, r3
 80015ba:	3710      	adds	r7, #16
 80015bc:	46bd      	mov	sp, r7
 80015be:	bd80      	pop	{r7, pc}

080015c0 <HAL_DMA_IRQHandler>:
  * @param  hdma pointer to a DMA_HandleTypeDef structure that contains
  *               the configuration information for the specified DMA Channel.  
  * @retval None
  */
void HAL_DMA_IRQHandler(DMA_HandleTypeDef *hdma)
{
 80015c0:	b580      	push	{r7, lr}
 80015c2:	b084      	sub	sp, #16
 80015c4:	af00      	add	r7, sp, #0
 80015c6:	6078      	str	r0, [r7, #4]
	uint32_t flag_it = hdma->DmaBaseAddress->ISR;
 80015c8:	687b      	ldr	r3, [r7, #4]
 80015ca:	6bdb      	ldr	r3, [r3, #60]	; 0x3c
 80015cc:	681b      	ldr	r3, [r3, #0]
 80015ce:	60fb      	str	r3, [r7, #12]
  uint32_t source_it = hdma->Instance->CCR;
 80015d0:	687b      	ldr	r3, [r7, #4]
 80015d2:	681b      	ldr	r3, [r3, #0]
 80015d4:	681b      	ldr	r3, [r3, #0]
 80015d6:	60bb      	str	r3, [r7, #8]
          
  /* Half Transfer Complete Interrupt management ******************************/
  if ((RESET != (flag_it & (DMA_FLAG_HT1 << hdma->ChannelIndex))) && (RESET != (source_it & DMA_IT_HT)))
 80015d8:	687b      	ldr	r3, [r7, #4]
 80015da:	6c1b      	ldr	r3, [r3, #64]	; 0x40
 80015dc:	2204      	movs	r2, #4
 80015de:	409a      	lsls	r2, r3
 80015e0:	68fb      	ldr	r3, [r7, #12]
 80015e2:	4013      	ands	r3, r2
 80015e4:	2b00      	cmp	r3, #0
 80015e6:	d024      	beq.n	8001632 <HAL_DMA_IRQHandler+0x72>
 80015e8:	68bb      	ldr	r3, [r7, #8]
 80015ea:	f003 0304 	and.w	r3, r3, #4
 80015ee:	2b00      	cmp	r3, #0
 80015f0:	d01f      	beq.n	8001632 <HAL_DMA_IRQHandler+0x72>
  {
  	/* Disable the half transfer interrupt if the DMA mode is not CIRCULAR */
  	if((hdma->Instance->CCR & DMA_CCR_CIRC) == 0U)
 80015f2:	687b      	ldr	r3, [r7, #4]
 80015f4:	681b      	ldr	r3, [r3, #0]
 80015f6:	681b      	ldr	r3, [r3, #0]
 80015f8:	f003 0320 	and.w	r3, r3, #32
 80015fc:	2b00      	cmp	r3, #0
 80015fe:	d107      	bne.n	8001610 <HAL_DMA_IRQHandler+0x50>
  	{
  		/* Disable the half transfer interrupt */
  		hdma->Instance->CCR &= ~DMA_IT_HT;
 8001600:	687b      	ldr	r3, [r7, #4]
 8001602:	681b      	ldr	r3, [r3, #0]
 8001604:	681a      	ldr	r2, [r3, #0]
 8001606:	687b      	ldr	r3, [r7, #4]
 8001608:	681b      	ldr	r3, [r3, #0]
 800160a:	f022 0204 	bic.w	r2, r2, #4
 800160e:	601a      	str	r2, [r3, #0]
  	}
  	
  	/* Clear the half transfer complete flag */
  	hdma->DmaBaseAddress->IFCR = DMA_FLAG_HT1 << hdma->ChannelIndex;
 8001610:	687b      	ldr	r3, [r7, #4]
 8001612:	6c1a      	ldr	r2, [r3, #64]	; 0x40
 8001614:	687b      	ldr	r3, [r7, #4]
 8001616:	6bdb      	ldr	r3, [r3, #60]	; 0x3c
 8001618:	2104      	movs	r1, #4
 800161a:	fa01 f202 	lsl.w	r2, r1, r2
 800161e:	605a      	str	r2, [r3, #4]
  	
  	/* DMA peripheral state is not updated in Half Transfer */
  	/* State is updated only in Transfer Complete case */
  	
  	if(hdma->XferHalfCpltCallback != NULL)
 8001620:	687b      	ldr	r3, [r7, #4]
 8001622:	6adb      	ldr	r3, [r3, #44]	; 0x2c
 8001624:	2b00      	cmp	r3, #0
 8001626:	d06a      	beq.n	80016fe <HAL_DMA_IRQHandler+0x13e>
  	{
  		/* Half transfer callback */
  		hdma->XferHalfCpltCallback(hdma);
 8001628:	687b      	ldr	r3, [r7, #4]
 800162a:	6adb      	ldr	r3, [r3, #44]	; 0x2c
 800162c:	6878      	ldr	r0, [r7, #4]
 800162e:	4798      	blx	r3
  	if(hdma->XferHalfCpltCallback != NULL)
 8001630:	e065      	b.n	80016fe <HAL_DMA_IRQHandler+0x13e>
  	}
  }
  
  /* Transfer Complete Interrupt management ***********************************/
  else if ((RESET != (flag_it & (DMA_FLAG_TC1 << hdma->ChannelIndex))) && (RESET != (source_it & DMA_IT_TC)))
 8001632:	687b      	ldr	r3, [r7, #4]
 8001634:	6c1b      	ldr	r3, [r3, #64]	; 0x40
 8001636:	2202      	movs	r2, #2
 8001638:	409a      	lsls	r2, r3
 800163a:	68fb      	ldr	r3, [r7, #12]
 800163c:	4013      	ands	r3, r2
 800163e:	2b00      	cmp	r3, #0
 8001640:	d02c      	beq.n	800169c <HAL_DMA_IRQHandler+0xdc>
 8001642:	68bb      	ldr	r3, [r7, #8]
 8001644:	f003 0302 	and.w	r3, r3, #2
 8001648:	2b00      	cmp	r3, #0
 800164a:	d027      	beq.n	800169c <HAL_DMA_IRQHandler+0xdc>
  {
  	if((hdma->Instance->CCR & DMA_CCR_CIRC) == 0U)
 800164c:	687b      	ldr	r3, [r7, #4]
 800164e:	681b      	ldr	r3, [r3, #0]
 8001650:	681b      	ldr	r3, [r3, #0]
 8001652:	f003 0320 	and.w	r3, r3, #32
 8001656:	2b00      	cmp	r3, #0
 8001658:	d10b      	bne.n	8001672 <HAL_DMA_IRQHandler+0xb2>
  	{
  		/* Disable the transfer complete  & transfer error interrupts */
  		/* if the DMA mode is not CIRCULAR */
  		hdma->Instance->CCR &= ~(DMA_IT_TC | DMA_IT_TE);
 800165a:	687b      	ldr	r3, [r7, #4]
 800165c:	681b      	ldr	r3, [r3, #0]
 800165e:	681a      	ldr	r2, [r3, #0]
 8001660:	687b      	ldr	r3, [r7, #4]
 8001662:	681b      	ldr	r3, [r3, #0]
 8001664:	f022 020a 	bic.w	r2, r2, #10
 8001668:	601a      	str	r2, [r3, #0]
  		
  		/* Change the DMA state */
  		hdma->State = HAL_DMA_STATE_READY;
 800166a:	687b      	ldr	r3, [r7, #4]
 800166c:	2201      	movs	r2, #1
 800166e:	f883 2021 	strb.w	r2, [r3, #33]	; 0x21
  	}
  	
  	/* Clear the transfer complete flag */
  	hdma->DmaBaseAddress->IFCR = DMA_FLAG_TC1 << hdma->ChannelIndex;
 8001672:	687b      	ldr	r3, [r7, #4]
 8001674:	6c1a      	ldr	r2, [r3, #64]	; 0x40
 8001676:	687b      	ldr	r3, [r7, #4]
 8001678:	6bdb      	ldr	r3, [r3, #60]	; 0x3c
 800167a:	2102      	movs	r1, #2
 800167c:	fa01 f202 	lsl.w	r2, r1, r2
 8001680:	605a      	str	r2, [r3, #4]
  	
  	/* Process Unlocked */
  	__HAL_UNLOCK(hdma);
 8001682:	687b      	ldr	r3, [r7, #4]
 8001684:	2200      	movs	r2, #0
 8001686:	f883 2020 	strb.w	r2, [r3, #32]
  	
  	if(hdma->XferCpltCallback != NULL)
 800168a:	687b      	ldr	r3, [r7, #4]
 800168c:	6a9b      	ldr	r3, [r3, #40]	; 0x28
 800168e:	2b00      	cmp	r3, #0
 8001690:	d035      	beq.n	80016fe <HAL_DMA_IRQHandler+0x13e>
  	{
  		/* Transfer complete callback */
  		hdma->XferCpltCallback(hdma);
 8001692:	687b      	ldr	r3, [r7, #4]
 8001694:	6a9b      	ldr	r3, [r3, #40]	; 0x28
 8001696:	6878      	ldr	r0, [r7, #4]
 8001698:	4798      	blx	r3
  	if(hdma->XferCpltCallback != NULL)
 800169a:	e030      	b.n	80016fe <HAL_DMA_IRQHandler+0x13e>
  	}
  }
  
  /* Transfer Error Interrupt management ***************************************/
  else if (( RESET != (flag_it & (DMA_FLAG_TE1 << hdma->ChannelIndex))) && (RESET != (source_it & DMA_IT_TE)))
 800169c:	687b      	ldr	r3, [r7, #4]
 800169e:	6c1b      	ldr	r3, [r3, #64]	; 0x40
 80016a0:	2208      	movs	r2, #8
 80016a2:	409a      	lsls	r2, r3
 80016a4:	68fb      	ldr	r3, [r7, #12]
 80016a6:	4013      	ands	r3, r2
 80016a8:	2b00      	cmp	r3, #0
 80016aa:	d028      	beq.n	80016fe <HAL_DMA_IRQHandler+0x13e>
 80016ac:	68bb      	ldr	r3, [r7, #8]
 80016ae:	f003 0308 	and.w	r3, r3, #8
 80016b2:	2b00      	cmp	r3, #0
 80016b4:	d023      	beq.n	80016fe <HAL_DMA_IRQHandler+0x13e>
  {
  	/* When a DMA transfer error occurs */
    /* A hardware clear of its EN bits is performed */
    /* Then, disable all DMA interrupts */
    hdma->Instance->CCR &= ~(DMA_IT_TC | DMA_IT_HT | DMA_IT_TE);
 80016b6:	687b      	ldr	r3, [r7, #4]
 80016b8:	681b      	ldr	r3, [r3, #0]
 80016ba:	681a      	ldr	r2, [r3, #0]
 80016bc:	687b      	ldr	r3, [r7, #4]
 80016be:	681b      	ldr	r3, [r3, #0]
 80016c0:	f022 020e 	bic.w	r2, r2, #14
 80016c4:	601a      	str	r2, [r3, #0]
    
    /* Clear all flags */
    hdma->DmaBaseAddress->IFCR = DMA_FLAG_GL1 << hdma->ChannelIndex;
 80016c6:	687b      	ldr	r3, [r7, #4]
 80016c8:	6c1a      	ldr	r2, [r3, #64]	; 0x40
 80016ca:	687b      	ldr	r3, [r7, #4]
 80016cc:	6bdb      	ldr	r3, [r3, #60]	; 0x3c
 80016ce:	2101      	movs	r1, #1
 80016d0:	fa01 f202 	lsl.w	r2, r1, r2
 80016d4:	605a      	str	r2, [r3, #4]
    
    /* Update error code */
    hdma->ErrorCode = HAL_DMA_ERROR_TE;
 80016d6:	687b      	ldr	r3, [r7, #4]
 80016d8:	2201      	movs	r2, #1
 80016da:	639a      	str	r2, [r3, #56]	; 0x38
    
    /* Change the DMA state */
    hdma->State = HAL_DMA_STATE_READY;    
 80016dc:	687b      	ldr	r3, [r7, #4]
 80016de:	2201      	movs	r2, #1
 80016e0:	f883 2021 	strb.w	r2, [r3, #33]	; 0x21
    
    /* Process Unlocked */
    __HAL_UNLOCK(hdma); 
 80016e4:	687b      	ldr	r3, [r7, #4]
 80016e6:	2200      	movs	r2, #0
 80016e8:	f883 2020 	strb.w	r2, [r3, #32]
    
    if(hdma->XferErrorCallback != NULL)
 80016ec:	687b      	ldr	r3, [r7, #4]
 80016ee:	6b1b      	ldr	r3, [r3, #48]	; 0x30
 80016f0:	2b00      	cmp	r3, #0
 80016f2:	d004      	beq.n	80016fe <HAL_DMA_IRQHandler+0x13e>
    {
    	/* Transfer error callback */
    	hdma->XferErrorCallback(hdma);
 80016f4:	687b      	ldr	r3, [r7, #4]
 80016f6:	6b1b      	ldr	r3, [r3, #48]	; 0x30
 80016f8:	6878      	ldr	r0, [r7, #4]
 80016fa:	4798      	blx	r3
    }
  }
}  
 80016fc:	e7ff      	b.n	80016fe <HAL_DMA_IRQHandler+0x13e>
 80016fe:	bf00      	nop
 8001700:	3710      	adds	r7, #16
 8001702:	46bd      	mov	sp, r7
 8001704:	bd80      	pop	{r7, pc}
	...

08001708 <DMA_CalcBaseAndBitshift>:
  * @param  hdma       pointer to a DMA_HandleTypeDef structure that contains
  *                     the configuration information for the specified DMA Stream. 
  * @retval None
  */
static void DMA_CalcBaseAndBitshift(DMA_HandleTypeDef *hdma)
{
 8001708:	b480      	push	{r7}
 800170a:	b083      	sub	sp, #12
 800170c:	af00      	add	r7, sp, #0
 800170e:	6078      	str	r0, [r7, #4]
#if defined (DMA2)
  /* calculation of the channel index */
  if ((uint32_t)(hdma->Instance) < (uint32_t)(DMA2_Channel1))
 8001710:	687b      	ldr	r3, [r7, #4]
 8001712:	681b      	ldr	r3, [r3, #0]
 8001714:	461a      	mov	r2, r3
 8001716:	4b14      	ldr	r3, [pc, #80]	; (8001768 <DMA_CalcBaseAndBitshift+0x60>)
 8001718:	429a      	cmp	r2, r3
 800171a:	d80f      	bhi.n	800173c <DMA_CalcBaseAndBitshift+0x34>
  {
    /* DMA1 */
    hdma->ChannelIndex = (((uint32_t)hdma->Instance - (uint32_t)DMA1_Channel1) / ((uint32_t)DMA1_Channel2 - (uint32_t)DMA1_Channel1)) << 2U;
 800171c:	687b      	ldr	r3, [r7, #4]
 800171e:	681b      	ldr	r3, [r3, #0]
 8001720:	461a      	mov	r2, r3
 8001722:	4b12      	ldr	r3, [pc, #72]	; (800176c <DMA_CalcBaseAndBitshift+0x64>)
 8001724:	4413      	add	r3, r2
 8001726:	4a12      	ldr	r2, [pc, #72]	; (8001770 <DMA_CalcBaseAndBitshift+0x68>)
 8001728:	fba2 2303 	umull	r2, r3, r2, r3
 800172c:	091b      	lsrs	r3, r3, #4
 800172e:	009a      	lsls	r2, r3, #2
 8001730:	687b      	ldr	r3, [r7, #4]
 8001732:	641a      	str	r2, [r3, #64]	; 0x40
    hdma->DmaBaseAddress = DMA1;
 8001734:	687b      	ldr	r3, [r7, #4]
 8001736:	4a0f      	ldr	r2, [pc, #60]	; (8001774 <DMA_CalcBaseAndBitshift+0x6c>)
 8001738:	63da      	str	r2, [r3, #60]	; 0x3c
  /* calculation of the channel index */
  /* DMA1 */
  hdma->ChannelIndex = (((uint32_t)hdma->Instance - (uint32_t)DMA1_Channel1) / ((uint32_t)DMA1_Channel2 - (uint32_t)DMA1_Channel1)) << 2U;
  hdma->DmaBaseAddress = DMA1;
#endif
}
 800173a:	e00e      	b.n	800175a <DMA_CalcBaseAndBitshift+0x52>
    hdma->ChannelIndex = (((uint32_t)hdma->Instance - (uint32_t)DMA2_Channel1) / ((uint32_t)DMA2_Channel2 - (uint32_t)DMA2_Channel1)) << 2U;
 800173c:	687b      	ldr	r3, [r7, #4]
 800173e:	681b      	ldr	r3, [r3, #0]
 8001740:	461a      	mov	r2, r3
 8001742:	4b0d      	ldr	r3, [pc, #52]	; (8001778 <DMA_CalcBaseAndBitshift+0x70>)
 8001744:	4413      	add	r3, r2
 8001746:	4a0a      	ldr	r2, [pc, #40]	; (8001770 <DMA_CalcBaseAndBitshift+0x68>)
 8001748:	fba2 2303 	umull	r2, r3, r2, r3
 800174c:	091b      	lsrs	r3, r3, #4
 800174e:	009a      	lsls	r2, r3, #2
 8001750:	687b      	ldr	r3, [r7, #4]
 8001752:	641a      	str	r2, [r3, #64]	; 0x40
    hdma->DmaBaseAddress = DMA2;
 8001754:	687b      	ldr	r3, [r7, #4]
 8001756:	4a09      	ldr	r2, [pc, #36]	; (800177c <DMA_CalcBaseAndBitshift+0x74>)
 8001758:	63da      	str	r2, [r3, #60]	; 0x3c
}
 800175a:	bf00      	nop
 800175c:	370c      	adds	r7, #12
 800175e:	46bd      	mov	sp, r7
 8001760:	f85d 7b04 	ldr.w	r7, [sp], #4
 8001764:	4770      	bx	lr
 8001766:	bf00      	nop
 8001768:	40020407 	.word	0x40020407
 800176c:	bffdfff8 	.word	0xbffdfff8
 8001770:	cccccccd 	.word	0xcccccccd
 8001774:	40020000 	.word	0x40020000
 8001778:	bffdfbf8 	.word	0xbffdfbf8
 800177c:	40020400 	.word	0x40020400

08001780 <HAL_GPIO_Init>:
  * @param  GPIO_Init pointer to a GPIO_InitTypeDef structure that contains
  *         the configuration information for the specified GPIO peripheral.
  * @retval None
  */
void HAL_GPIO_Init(GPIO_TypeDef  *GPIOx, GPIO_InitTypeDef *GPIO_Init)
{
 8001780:	b480      	push	{r7}
 8001782:	b087      	sub	sp, #28
 8001784:	af00      	add	r7, sp, #0
 8001786:	6078      	str	r0, [r7, #4]
 8001788:	6039      	str	r1, [r7, #0]
  uint32_t position = 0x00u;
 800178a:	2300      	movs	r3, #0
 800178c:	617b      	str	r3, [r7, #20]
  assert_param(IS_GPIO_ALL_INSTANCE(GPIOx));
  assert_param(IS_GPIO_PIN(GPIO_Init->Pin));
  assert_param(IS_GPIO_MODE(GPIO_Init->Mode));

  /* Configure the port pins */
  while (((GPIO_Init->Pin) >> position) != 0x00u)
 800178e:	e154      	b.n	8001a3a <HAL_GPIO_Init+0x2ba>
  {
    /* Get current io position */
    iocurrent = (GPIO_Init->Pin) & (1uL << position);
 8001790:	683b      	ldr	r3, [r7, #0]
 8001792:	681a      	ldr	r2, [r3, #0]
 8001794:	2101      	movs	r1, #1
 8001796:	697b      	ldr	r3, [r7, #20]
 8001798:	fa01 f303 	lsl.w	r3, r1, r3
 800179c:	4013      	ands	r3, r2
 800179e:	60fb      	str	r3, [r7, #12]

    if (iocurrent != 0x00u)
 80017a0:	68fb      	ldr	r3, [r7, #12]
 80017a2:	2b00      	cmp	r3, #0
 80017a4:	f000 8146 	beq.w	8001a34 <HAL_GPIO_Init+0x2b4>
    {
      /*--------------------- GPIO Mode Configuration ------------------------*/
      /* In case of Output or Alternate function mode selection */
      if(((GPIO_Init->Mode & GPIO_MODE) == MODE_OUTPUT) || ((GPIO_Init->Mode & GPIO_MODE) == MODE_AF))
 80017a8:	683b      	ldr	r3, [r7, #0]
 80017aa:	685b      	ldr	r3, [r3, #4]
 80017ac:	f003 0303 	and.w	r3, r3, #3
 80017b0:	2b01      	cmp	r3, #1
 80017b2:	d005      	beq.n	80017c0 <HAL_GPIO_Init+0x40>
 80017b4:	683b      	ldr	r3, [r7, #0]
 80017b6:	685b      	ldr	r3, [r3, #4]
 80017b8:	f003 0303 	and.w	r3, r3, #3
 80017bc:	2b02      	cmp	r3, #2
 80017be:	d130      	bne.n	8001822 <HAL_GPIO_Init+0xa2>
      {
        /* Check the Speed parameter */
        assert_param(IS_GPIO_SPEED(GPIO_Init->Speed));
        /* Configure the IO Speed */
        temp = GPIOx->OSPEEDR;
 80017c0:	687b      	ldr	r3, [r7, #4]
 80017c2:	689b      	ldr	r3, [r3, #8]
 80017c4:	613b      	str	r3, [r7, #16]
        temp &= ~(GPIO_OSPEEDER_OSPEEDR0 << (position * 2u));
 80017c6:	697b      	ldr	r3, [r7, #20]
 80017c8:	005b      	lsls	r3, r3, #1
 80017ca:	2203      	movs	r2, #3
 80017cc:	fa02 f303 	lsl.w	r3, r2, r3
 80017d0:	43db      	mvns	r3, r3
 80017d2:	693a      	ldr	r2, [r7, #16]
 80017d4:	4013      	ands	r3, r2
 80017d6:	613b      	str	r3, [r7, #16]
        temp |= (GPIO_Init->Speed << (position * 2u));
 80017d8:	683b      	ldr	r3, [r7, #0]
 80017da:	68da      	ldr	r2, [r3, #12]
 80017dc:	697b      	ldr	r3, [r7, #20]
 80017de:	005b      	lsls	r3, r3, #1
 80017e0:	fa02 f303 	lsl.w	r3, r2, r3
 80017e4:	693a      	ldr	r2, [r7, #16]
 80017e6:	4313      	orrs	r3, r2
 80017e8:	613b      	str	r3, [r7, #16]
        GPIOx->OSPEEDR = temp;
 80017ea:	687b      	ldr	r3, [r7, #4]
 80017ec:	693a      	ldr	r2, [r7, #16]
 80017ee:	609a      	str	r2, [r3, #8]

        /* Configure the IO Output Type */
        temp = GPIOx->OTYPER;
 80017f0:	687b      	ldr	r3, [r7, #4]
 80017f2:	685b      	ldr	r3, [r3, #4]
 80017f4:	613b      	str	r3, [r7, #16]
        temp &= ~(GPIO_OTYPER_OT_0 << position) ;
 80017f6:	2201      	movs	r2, #1
 80017f8:	697b      	ldr	r3, [r7, #20]
 80017fa:	fa02 f303 	lsl.w	r3, r2, r3
 80017fe:	43db      	mvns	r3, r3
 8001800:	693a      	ldr	r2, [r7, #16]
 8001802:	4013      	ands	r3, r2
 8001804:	613b      	str	r3, [r7, #16]
        temp |= (((GPIO_Init->Mode & OUTPUT_TYPE) >> OUTPUT_TYPE_Pos) << position);
 8001806:	683b      	ldr	r3, [r7, #0]
 8001808:	685b      	ldr	r3, [r3, #4]
 800180a:	091b      	lsrs	r3, r3, #4
 800180c:	f003 0201 	and.w	r2, r3, #1
 8001810:	697b      	ldr	r3, [r7, #20]
 8001812:	fa02 f303 	lsl.w	r3, r2, r3
 8001816:	693a      	ldr	r2, [r7, #16]
 8001818:	4313      	orrs	r3, r2
 800181a:	613b      	str	r3, [r7, #16]
        GPIOx->OTYPER = temp;
 800181c:	687b      	ldr	r3, [r7, #4]
 800181e:	693a      	ldr	r2, [r7, #16]
 8001820:	605a      	str	r2, [r3, #4]
      }

      if((GPIO_Init->Mode & GPIO_MODE) != MODE_ANALOG)
 8001822:	683b      	ldr	r3, [r7, #0]
 8001824:	685b      	ldr	r3, [r3, #4]
 8001826:	f003 0303 	and.w	r3, r3, #3
 800182a:	2b03      	cmp	r3, #3
 800182c:	d017      	beq.n	800185e <HAL_GPIO_Init+0xde>
      {
        /* Check the Pull parameter */
        assert_param(IS_GPIO_PULL(GPIO_Init->Pull));

        /* Activate the Pull-up or Pull down resistor for the current IO */
        temp = GPIOx->PUPDR;
 800182e:	687b      	ldr	r3, [r7, #4]
 8001830:	68db      	ldr	r3, [r3, #12]
 8001832:	613b      	str	r3, [r7, #16]
        temp &= ~(GPIO_PUPDR_PUPDR0 << (position * 2u));
 8001834:	697b      	ldr	r3, [r7, #20]
 8001836:	005b      	lsls	r3, r3, #1
 8001838:	2203      	movs	r2, #3
 800183a:	fa02 f303 	lsl.w	r3, r2, r3
 800183e:	43db      	mvns	r3, r3
 8001840:	693a      	ldr	r2, [r7, #16]
 8001842:	4013      	ands	r3, r2
 8001844:	613b      	str	r3, [r7, #16]
        temp |= ((GPIO_Init->Pull) << (position * 2u));
 8001846:	683b      	ldr	r3, [r7, #0]
 8001848:	689a      	ldr	r2, [r3, #8]
 800184a:	697b      	ldr	r3, [r7, #20]
 800184c:	005b      	lsls	r3, r3, #1
 800184e:	fa02 f303 	lsl.w	r3, r2, r3
 8001852:	693a      	ldr	r2, [r7, #16]
 8001854:	4313      	orrs	r3, r2
 8001856:	613b      	str	r3, [r7, #16]
        GPIOx->PUPDR = temp;
 8001858:	687b      	ldr	r3, [r7, #4]
 800185a:	693a      	ldr	r2, [r7, #16]
 800185c:	60da      	str	r2, [r3, #12]
      }

      /*--------------------- GPIO Mode Configuration ------------------------*/
      /* In case of Alternate function mode selection */
      if((GPIO_Init->Mode & GPIO_MODE) == MODE_AF)
 800185e:	683b      	ldr	r3, [r7, #0]
 8001860:	685b      	ldr	r3, [r3, #4]
 8001862:	f003 0303 	and.w	r3, r3, #3
 8001866:	2b02      	cmp	r3, #2
 8001868:	d123      	bne.n	80018b2 <HAL_GPIO_Init+0x132>
        /* Check the Alternate function parameters */
        assert_param(IS_GPIO_AF_INSTANCE(GPIOx));
        assert_param(IS_GPIO_AF(GPIO_Init->Alternate));

        /* Configure Alternate function mapped with the current IO */
        temp = GPIOx->AFR[position >> 3u];
 800186a:	697b      	ldr	r3, [r7, #20]
 800186c:	08da      	lsrs	r2, r3, #3
 800186e:	687b      	ldr	r3, [r7, #4]
 8001870:	3208      	adds	r2, #8
 8001872:	f853 3022 	ldr.w	r3, [r3, r2, lsl #2]
 8001876:	613b      	str	r3, [r7, #16]
        temp &= ~(0xFu << ((position & 0x07u) * 4u));
 8001878:	697b      	ldr	r3, [r7, #20]
 800187a:	f003 0307 	and.w	r3, r3, #7
 800187e:	009b      	lsls	r3, r3, #2
 8001880:	220f      	movs	r2, #15
 8001882:	fa02 f303 	lsl.w	r3, r2, r3
 8001886:	43db      	mvns	r3, r3
 8001888:	693a      	ldr	r2, [r7, #16]
 800188a:	4013      	ands	r3, r2
 800188c:	613b      	str	r3, [r7, #16]
        temp |= ((GPIO_Init->Alternate) << ((position & 0x07u) * 4u));
 800188e:	683b      	ldr	r3, [r7, #0]
 8001890:	691a      	ldr	r2, [r3, #16]
 8001892:	697b      	ldr	r3, [r7, #20]
 8001894:	f003 0307 	and.w	r3, r3, #7
 8001898:	009b      	lsls	r3, r3, #2
 800189a:	fa02 f303 	lsl.w	r3, r2, r3
 800189e:	693a      	ldr	r2, [r7, #16]
 80018a0:	4313      	orrs	r3, r2
 80018a2:	613b      	str	r3, [r7, #16]
        GPIOx->AFR[position >> 3u] = temp;
 80018a4:	697b      	ldr	r3, [r7, #20]
 80018a6:	08da      	lsrs	r2, r3, #3
 80018a8:	687b      	ldr	r3, [r7, #4]
 80018aa:	3208      	adds	r2, #8
 80018ac:	6939      	ldr	r1, [r7, #16]
 80018ae:	f843 1022 	str.w	r1, [r3, r2, lsl #2]
      }

      /* Configure IO Direction mode (Input, Output, Alternate or Analog) */
      temp = GPIOx->MODER;
 80018b2:	687b      	ldr	r3, [r7, #4]
 80018b4:	681b      	ldr	r3, [r3, #0]
 80018b6:	613b      	str	r3, [r7, #16]
      temp &= ~(GPIO_MODER_MODER0 << (position * 2u));
 80018b8:	697b      	ldr	r3, [r7, #20]
 80018ba:	005b      	lsls	r3, r3, #1
 80018bc:	2203      	movs	r2, #3
 80018be:	fa02 f303 	lsl.w	r3, r2, r3
 80018c2:	43db      	mvns	r3, r3
 80018c4:	693a      	ldr	r2, [r7, #16]
 80018c6:	4013      	ands	r3, r2
 80018c8:	613b      	str	r3, [r7, #16]
      temp |= ((GPIO_Init->Mode & GPIO_MODE) << (position * 2u));
 80018ca:	683b      	ldr	r3, [r7, #0]
 80018cc:	685b      	ldr	r3, [r3, #4]
 80018ce:	f003 0203 	and.w	r2, r3, #3
 80018d2:	697b      	ldr	r3, [r7, #20]
 80018d4:	005b      	lsls	r3, r3, #1
 80018d6:	fa02 f303 	lsl.w	r3, r2, r3
 80018da:	693a      	ldr	r2, [r7, #16]
 80018dc:	4313      	orrs	r3, r2
 80018de:	613b      	str	r3, [r7, #16]
      GPIOx->MODER = temp;
 80018e0:	687b      	ldr	r3, [r7, #4]
 80018e2:	693a      	ldr	r2, [r7, #16]
 80018e4:	601a      	str	r2, [r3, #0]

      /*--------------------- EXTI Mode Configuration ------------------------*/
      /* Configure the External Interrupt or event for the current IO */
      if((GPIO_Init->Mode & EXTI_MODE) != 0x00u)
 80018e6:	683b      	ldr	r3, [r7, #0]
 80018e8:	685b      	ldr	r3, [r3, #4]
 80018ea:	f403 3340 	and.w	r3, r3, #196608	; 0x30000
 80018ee:	2b00      	cmp	r3, #0
 80018f0:	f000 80a0 	beq.w	8001a34 <HAL_GPIO_Init+0x2b4>
      {
        /* Enable SYSCFG Clock */
        __HAL_RCC_SYSCFG_CLK_ENABLE();
 80018f4:	4b58      	ldr	r3, [pc, #352]	; (8001a58 <HAL_GPIO_Init+0x2d8>)
 80018f6:	699b      	ldr	r3, [r3, #24]
 80018f8:	4a57      	ldr	r2, [pc, #348]	; (8001a58 <HAL_GPIO_Init+0x2d8>)
 80018fa:	f043 0301 	orr.w	r3, r3, #1
 80018fe:	6193      	str	r3, [r2, #24]
 8001900:	4b55      	ldr	r3, [pc, #340]	; (8001a58 <HAL_GPIO_Init+0x2d8>)
 8001902:	699b      	ldr	r3, [r3, #24]
 8001904:	f003 0301 	and.w	r3, r3, #1
 8001908:	60bb      	str	r3, [r7, #8]
 800190a:	68bb      	ldr	r3, [r7, #8]

        temp = SYSCFG->EXTICR[position >> 2u];
 800190c:	4a53      	ldr	r2, [pc, #332]	; (8001a5c <HAL_GPIO_Init+0x2dc>)
 800190e:	697b      	ldr	r3, [r7, #20]
 8001910:	089b      	lsrs	r3, r3, #2
 8001912:	3302      	adds	r3, #2
 8001914:	f852 3023 	ldr.w	r3, [r2, r3, lsl #2]
 8001918:	613b      	str	r3, [r7, #16]
        temp &= ~(0x0FuL << (4u * (position & 0x03u)));
 800191a:	697b      	ldr	r3, [r7, #20]
 800191c:	f003 0303 	and.w	r3, r3, #3
 8001920:	009b      	lsls	r3, r3, #2
 8001922:	220f      	movs	r2, #15
 8001924:	fa02 f303 	lsl.w	r3, r2, r3
 8001928:	43db      	mvns	r3, r3
 800192a:	693a      	ldr	r2, [r7, #16]
 800192c:	4013      	ands	r3, r2
 800192e:	613b      	str	r3, [r7, #16]
        temp |= (GPIO_GET_INDEX(GPIOx) << (4u * (position & 0x03u)));
 8001930:	687b      	ldr	r3, [r7, #4]
 8001932:	f1b3 4f90 	cmp.w	r3, #1207959552	; 0x48000000
 8001936:	d019      	beq.n	800196c <HAL_GPIO_Init+0x1ec>
 8001938:	687b      	ldr	r3, [r7, #4]
 800193a:	4a49      	ldr	r2, [pc, #292]	; (8001a60 <HAL_GPIO_Init+0x2e0>)
 800193c:	4293      	cmp	r3, r2
 800193e:	d013      	beq.n	8001968 <HAL_GPIO_Init+0x1e8>
 8001940:	687b      	ldr	r3, [r7, #4]
 8001942:	4a48      	ldr	r2, [pc, #288]	; (8001a64 <HAL_GPIO_Init+0x2e4>)
 8001944:	4293      	cmp	r3, r2
 8001946:	d00d      	beq.n	8001964 <HAL_GPIO_Init+0x1e4>
 8001948:	687b      	ldr	r3, [r7, #4]
 800194a:	4a47      	ldr	r2, [pc, #284]	; (8001a68 <HAL_GPIO_Init+0x2e8>)
 800194c:	4293      	cmp	r3, r2
 800194e:	d007      	beq.n	8001960 <HAL_GPIO_Init+0x1e0>
 8001950:	687b      	ldr	r3, [r7, #4]
 8001952:	4a46      	ldr	r2, [pc, #280]	; (8001a6c <HAL_GPIO_Init+0x2ec>)
 8001954:	4293      	cmp	r3, r2
 8001956:	d101      	bne.n	800195c <HAL_GPIO_Init+0x1dc>
 8001958:	2304      	movs	r3, #4
 800195a:	e008      	b.n	800196e <HAL_GPIO_Init+0x1ee>
 800195c:	2305      	movs	r3, #5
 800195e:	e006      	b.n	800196e <HAL_GPIO_Init+0x1ee>
 8001960:	2303      	movs	r3, #3
 8001962:	e004      	b.n	800196e <HAL_GPIO_Init+0x1ee>
 8001964:	2302      	movs	r3, #2
 8001966:	e002      	b.n	800196e <HAL_GPIO_Init+0x1ee>
 8001968:	2301      	movs	r3, #1
 800196a:	e000      	b.n	800196e <HAL_GPIO_Init+0x1ee>
 800196c:	2300      	movs	r3, #0
 800196e:	697a      	ldr	r2, [r7, #20]
 8001970:	f002 0203 	and.w	r2, r2, #3
 8001974:	0092      	lsls	r2, r2, #2
 8001976:	4093      	lsls	r3, r2
 8001978:	693a      	ldr	r2, [r7, #16]
 800197a:	4313      	orrs	r3, r2
 800197c:	613b      	str	r3, [r7, #16]
        SYSCFG->EXTICR[position >> 2u] = temp;
 800197e:	4937      	ldr	r1, [pc, #220]	; (8001a5c <HAL_GPIO_Init+0x2dc>)
 8001980:	697b      	ldr	r3, [r7, #20]
 8001982:	089b      	lsrs	r3, r3, #2
 8001984:	3302      	adds	r3, #2
 8001986:	693a      	ldr	r2, [r7, #16]
 8001988:	f841 2023 	str.w	r2, [r1, r3, lsl #2]

        /* Clear EXTI line configuration */
        temp = EXTI->IMR;
 800198c:	4b38      	ldr	r3, [pc, #224]	; (8001a70 <HAL_GPIO_Init+0x2f0>)
 800198e:	681b      	ldr	r3, [r3, #0]
 8001990:	613b      	str	r3, [r7, #16]
        temp &= ~(iocurrent);
 8001992:	68fb      	ldr	r3, [r7, #12]
 8001994:	43db      	mvns	r3, r3
 8001996:	693a      	ldr	r2, [r7, #16]
 8001998:	4013      	ands	r3, r2
 800199a:	613b      	str	r3, [r7, #16]
        if((GPIO_Init->Mode & EXTI_IT) != 0x00u)
 800199c:	683b      	ldr	r3, [r7, #0]
 800199e:	685b      	ldr	r3, [r3, #4]
 80019a0:	f403 3380 	and.w	r3, r3, #65536	; 0x10000
 80019a4:	2b00      	cmp	r3, #0
 80019a6:	d003      	beq.n	80019b0 <HAL_GPIO_Init+0x230>
        {
          temp |= iocurrent;
 80019a8:	693a      	ldr	r2, [r7, #16]
 80019aa:	68fb      	ldr	r3, [r7, #12]
 80019ac:	4313      	orrs	r3, r2
 80019ae:	613b      	str	r3, [r7, #16]
        }
        EXTI->IMR = temp;
 80019b0:	4a2f      	ldr	r2, [pc, #188]	; (8001a70 <HAL_GPIO_Init+0x2f0>)
 80019b2:	693b      	ldr	r3, [r7, #16]
 80019b4:	6013      	str	r3, [r2, #0]

        temp = EXTI->EMR;
 80019b6:	4b2e      	ldr	r3, [pc, #184]	; (8001a70 <HAL_GPIO_Init+0x2f0>)
 80019b8:	685b      	ldr	r3, [r3, #4]
 80019ba:	613b      	str	r3, [r7, #16]
        temp &= ~(iocurrent);
 80019bc:	68fb      	ldr	r3, [r7, #12]
 80019be:	43db      	mvns	r3, r3
 80019c0:	693a      	ldr	r2, [r7, #16]
 80019c2:	4013      	ands	r3, r2
 80019c4:	613b      	str	r3, [r7, #16]
        if((GPIO_Init->Mode & EXTI_EVT) != 0x00u)
 80019c6:	683b      	ldr	r3, [r7, #0]
 80019c8:	685b      	ldr	r3, [r3, #4]
 80019ca:	f403 3300 	and.w	r3, r3, #131072	; 0x20000
 80019ce:	2b00      	cmp	r3, #0
 80019d0:	d003      	beq.n	80019da <HAL_GPIO_Init+0x25a>
        {
          temp |= iocurrent;
 80019d2:	693a      	ldr	r2, [r7, #16]
 80019d4:	68fb      	ldr	r3, [r7, #12]
 80019d6:	4313      	orrs	r3, r2
 80019d8:	613b      	str	r3, [r7, #16]
        }
        EXTI->EMR = temp;
 80019da:	4a25      	ldr	r2, [pc, #148]	; (8001a70 <HAL_GPIO_Init+0x2f0>)
 80019dc:	693b      	ldr	r3, [r7, #16]
 80019de:	6053      	str	r3, [r2, #4]

        /* Clear Rising Falling edge configuration */
        temp = EXTI->RTSR;
 80019e0:	4b23      	ldr	r3, [pc, #140]	; (8001a70 <HAL_GPIO_Init+0x2f0>)
 80019e2:	689b      	ldr	r3, [r3, #8]
 80019e4:	613b      	str	r3, [r7, #16]
        temp &= ~(iocurrent);
 80019e6:	68fb      	ldr	r3, [r7, #12]
 80019e8:	43db      	mvns	r3, r3
 80019ea:	693a      	ldr	r2, [r7, #16]
 80019ec:	4013      	ands	r3, r2
 80019ee:	613b      	str	r3, [r7, #16]
        if((GPIO_Init->Mode & TRIGGER_RISING) != 0x00u)
 80019f0:	683b      	ldr	r3, [r7, #0]
 80019f2:	685b      	ldr	r3, [r3, #4]
 80019f4:	f403 1380 	and.w	r3, r3, #1048576	; 0x100000
 80019f8:	2b00      	cmp	r3, #0
 80019fa:	d003      	beq.n	8001a04 <HAL_GPIO_Init+0x284>
        {
          temp |= iocurrent;
 80019fc:	693a      	ldr	r2, [r7, #16]
 80019fe:	68fb      	ldr	r3, [r7, #12]
 8001a00:	4313      	orrs	r3, r2
 8001a02:	613b      	str	r3, [r7, #16]
        }
        EXTI->RTSR = temp;
 8001a04:	4a1a      	ldr	r2, [pc, #104]	; (8001a70 <HAL_GPIO_Init+0x2f0>)
 8001a06:	693b      	ldr	r3, [r7, #16]
 8001a08:	6093      	str	r3, [r2, #8]

        temp = EXTI->FTSR;
 8001a0a:	4b19      	ldr	r3, [pc, #100]	; (8001a70 <HAL_GPIO_Init+0x2f0>)
 8001a0c:	68db      	ldr	r3, [r3, #12]
 8001a0e:	613b      	str	r3, [r7, #16]
        temp &= ~(iocurrent);
 8001a10:	68fb      	ldr	r3, [r7, #12]
 8001a12:	43db      	mvns	r3, r3
 8001a14:	693a      	ldr	r2, [r7, #16]
 8001a16:	4013      	ands	r3, r2
 8001a18:	613b      	str	r3, [r7, #16]
        if((GPIO_Init->Mode & TRIGGER_FALLING) != 0x00u)
 8001a1a:	683b      	ldr	r3, [r7, #0]
 8001a1c:	685b      	ldr	r3, [r3, #4]
 8001a1e:	f403 1300 	and.w	r3, r3, #2097152	; 0x200000
 8001a22:	2b00      	cmp	r3, #0
 8001a24:	d003      	beq.n	8001a2e <HAL_GPIO_Init+0x2ae>
        {
          temp |= iocurrent;
 8001a26:	693a      	ldr	r2, [r7, #16]
 8001a28:	68fb      	ldr	r3, [r7, #12]
 8001a2a:	4313      	orrs	r3, r2
 8001a2c:	613b      	str	r3, [r7, #16]
        }
        EXTI->FTSR = temp;
 8001a2e:	4a10      	ldr	r2, [pc, #64]	; (8001a70 <HAL_GPIO_Init+0x2f0>)
 8001a30:	693b      	ldr	r3, [r7, #16]
 8001a32:	60d3      	str	r3, [r2, #12]
      }
    }

    position++;
 8001a34:	697b      	ldr	r3, [r7, #20]
 8001a36:	3301      	adds	r3, #1
 8001a38:	617b      	str	r3, [r7, #20]
  while (((GPIO_Init->Pin) >> position) != 0x00u)
 8001a3a:	683b      	ldr	r3, [r7, #0]
 8001a3c:	681a      	ldr	r2, [r3, #0]
 8001a3e:	697b      	ldr	r3, [r7, #20]
 8001a40:	fa22 f303 	lsr.w	r3, r2, r3
 8001a44:	2b00      	cmp	r3, #0
 8001a46:	f47f aea3 	bne.w	8001790 <HAL_GPIO_Init+0x10>
  }
}
 8001a4a:	bf00      	nop
 8001a4c:	371c      	adds	r7, #28
 8001a4e:	46bd      	mov	sp, r7
 8001a50:	f85d 7b04 	ldr.w	r7, [sp], #4
 8001a54:	4770      	bx	lr
 8001a56:	bf00      	nop
 8001a58:	40021000 	.word	0x40021000
 8001a5c:	40010000 	.word	0x40010000
 8001a60:	48000400 	.word	0x48000400
 8001a64:	48000800 	.word	0x48000800
 8001a68:	48000c00 	.word	0x48000c00
 8001a6c:	48001000 	.word	0x48001000
 8001a70:	40010400 	.word	0x40010400

08001a74 <HAL_GPIO_ReadPin>:
  * @param  GPIO_Pin specifies the port bit to read.
  *         This parameter can be GPIO_PIN_x where x can be (0..15).
  * @retval The input port pin value.
  */
GPIO_PinState HAL_GPIO_ReadPin(GPIO_TypeDef* GPIOx, uint16_t GPIO_Pin)
{
 8001a74:	b480      	push	{r7}
 8001a76:	b085      	sub	sp, #20
 8001a78:	af00      	add	r7, sp, #0
 8001a7a:	6078      	str	r0, [r7, #4]
 8001a7c:	460b      	mov	r3, r1
 8001a7e:	807b      	strh	r3, [r7, #2]
  GPIO_PinState bitstatus;

  /* Check the parameters */
  assert_param(IS_GPIO_PIN(GPIO_Pin));

  if((GPIOx->IDR & GPIO_Pin) != (uint32_t)GPIO_PIN_RESET)
 8001a80:	687b      	ldr	r3, [r7, #4]
 8001a82:	691a      	ldr	r2, [r3, #16]
 8001a84:	887b      	ldrh	r3, [r7, #2]
 8001a86:	4013      	ands	r3, r2
 8001a88:	2b00      	cmp	r3, #0
 8001a8a:	d002      	beq.n	8001a92 <HAL_GPIO_ReadPin+0x1e>
  {
    bitstatus = GPIO_PIN_SET;
 8001a8c:	2301      	movs	r3, #1
 8001a8e:	73fb      	strb	r3, [r7, #15]
 8001a90:	e001      	b.n	8001a96 <HAL_GPIO_ReadPin+0x22>
  }
  else
  {
    bitstatus = GPIO_PIN_RESET;
 8001a92:	2300      	movs	r3, #0
 8001a94:	73fb      	strb	r3, [r7, #15]
  }
  return bitstatus;
 8001a96:	7bfb      	ldrb	r3, [r7, #15]
}
 8001a98:	4618      	mov	r0, r3
 8001a9a:	3714      	adds	r7, #20
 8001a9c:	46bd      	mov	sp, r7
 8001a9e:	f85d 7b04 	ldr.w	r7, [sp], #4
 8001aa2:	4770      	bx	lr

08001aa4 <HAL_GPIO_WritePin>:
  *            @arg GPIO_PIN_RESET: to clear the port pin
  *            @arg GPIO_PIN_SET: to set the port pin
  * @retval None
  */
void HAL_GPIO_WritePin(GPIO_TypeDef* GPIOx, uint16_t GPIO_Pin, GPIO_PinState PinState)
{
 8001aa4:	b480      	push	{r7}
 8001aa6:	b083      	sub	sp, #12
 8001aa8:	af00      	add	r7, sp, #0
 8001aaa:	6078      	str	r0, [r7, #4]
 8001aac:	460b      	mov	r3, r1
 8001aae:	807b      	strh	r3, [r7, #2]
 8001ab0:	4613      	mov	r3, r2
 8001ab2:	707b      	strb	r3, [r7, #1]
  /* Check the parameters */
  assert_param(IS_GPIO_PIN(GPIO_Pin));
  assert_param(IS_GPIO_PIN_ACTION(PinState));

  if(PinState != GPIO_PIN_RESET)
 8001ab4:	787b      	ldrb	r3, [r7, #1]
 8001ab6:	2b00      	cmp	r3, #0
 8001ab8:	d003      	beq.n	8001ac2 <HAL_GPIO_WritePin+0x1e>
  {
    GPIOx->BSRR = (uint32_t)GPIO_Pin;
 8001aba:	887a      	ldrh	r2, [r7, #2]
 8001abc:	687b      	ldr	r3, [r7, #4]
 8001abe:	619a      	str	r2, [r3, #24]
  }
  else
  {
    GPIOx->BRR = (uint32_t)GPIO_Pin;
  }
}
 8001ac0:	e002      	b.n	8001ac8 <HAL_GPIO_WritePin+0x24>
    GPIOx->BRR = (uint32_t)GPIO_Pin;
 8001ac2:	887a      	ldrh	r2, [r7, #2]
 8001ac4:	687b      	ldr	r3, [r7, #4]
 8001ac6:	629a      	str	r2, [r3, #40]	; 0x28
}
 8001ac8:	bf00      	nop
 8001aca:	370c      	adds	r7, #12
 8001acc:	46bd      	mov	sp, r7
 8001ace:	f85d 7b04 	ldr.w	r7, [sp], #4
 8001ad2:	4770      	bx	lr

08001ad4 <HAL_RCC_OscConfig>:
  *         supported by this macro. User should request a transition to HSE Off
  *         first and then HSE On or HSE Bypass.
  * @retval HAL status
  */
HAL_StatusTypeDef HAL_RCC_OscConfig(RCC_OscInitTypeDef  *RCC_OscInitStruct)
{
 8001ad4:	b580      	push	{r7, lr}
 8001ad6:	f5ad 7d00 	sub.w	sp, sp, #512	; 0x200
 8001ada:	af00      	add	r7, sp, #0
 8001adc:	1d3b      	adds	r3, r7, #4
 8001ade:	6018      	str	r0, [r3, #0]
#if defined(RCC_CFGR_PLLSRC_HSI_PREDIV)
  uint32_t pll_config2;
#endif /* RCC_CFGR_PLLSRC_HSI_PREDIV */

  /* Check Null pointer */
  if(RCC_OscInitStruct == NULL)
 8001ae0:	1d3b      	adds	r3, r7, #4
 8001ae2:	681b      	ldr	r3, [r3, #0]
 8001ae4:	2b00      	cmp	r3, #0
 8001ae6:	d102      	bne.n	8001aee <HAL_RCC_OscConfig+0x1a>
  {
    return HAL_ERROR;
 8001ae8:	2301      	movs	r3, #1
 8001aea:	f000 bef4 	b.w	80028d6 <HAL_RCC_OscConfig+0xe02>

  /* Check the parameters */
  assert_param(IS_RCC_OSCILLATORTYPE(RCC_OscInitStruct->OscillatorType));

  /*------------------------------- HSE Configuration ------------------------*/ 
  if(((RCC_OscInitStruct->OscillatorType) & RCC_OSCILLATORTYPE_HSE) == RCC_OSCILLATORTYPE_HSE)
 8001aee:	1d3b      	adds	r3, r7, #4
 8001af0:	681b      	ldr	r3, [r3, #0]
 8001af2:	681b      	ldr	r3, [r3, #0]
 8001af4:	f003 0301 	and.w	r3, r3, #1
 8001af8:	2b00      	cmp	r3, #0
 8001afa:	f000 816a 	beq.w	8001dd2 <HAL_RCC_OscConfig+0x2fe>
  {
    /* Check the parameters */
    assert_param(IS_RCC_HSE(RCC_OscInitStruct->HSEState));

    /* When the HSE is used as system clock or clock source for PLL in these cases it is not allowed to be disabled */
    if((__HAL_RCC_GET_SYSCLK_SOURCE() == RCC_SYSCLKSOURCE_STATUS_HSE) 
 8001afe:	4bb3      	ldr	r3, [pc, #716]	; (8001dcc <HAL_RCC_OscConfig+0x2f8>)
 8001b00:	685b      	ldr	r3, [r3, #4]
 8001b02:	f003 030c 	and.w	r3, r3, #12
 8001b06:	2b04      	cmp	r3, #4
 8001b08:	d00c      	beq.n	8001b24 <HAL_RCC_OscConfig+0x50>
       || ((__HAL_RCC_GET_SYSCLK_SOURCE() == RCC_SYSCLKSOURCE_STATUS_PLLCLK) && (__HAL_RCC_GET_PLL_OSCSOURCE() == RCC_PLLSOURCE_HSE)))
 8001b0a:	4bb0      	ldr	r3, [pc, #704]	; (8001dcc <HAL_RCC_OscConfig+0x2f8>)
 8001b0c:	685b      	ldr	r3, [r3, #4]
 8001b0e:	f003 030c 	and.w	r3, r3, #12
 8001b12:	2b08      	cmp	r3, #8
 8001b14:	d159      	bne.n	8001bca <HAL_RCC_OscConfig+0xf6>
 8001b16:	4bad      	ldr	r3, [pc, #692]	; (8001dcc <HAL_RCC_OscConfig+0x2f8>)
 8001b18:	685b      	ldr	r3, [r3, #4]
 8001b1a:	f403 3380 	and.w	r3, r3, #65536	; 0x10000
 8001b1e:	f5b3 3f80 	cmp.w	r3, #65536	; 0x10000
 8001b22:	d152      	bne.n	8001bca <HAL_RCC_OscConfig+0xf6>
 8001b24:	f44f 3300 	mov.w	r3, #131072	; 0x20000
 8001b28:	f8c7 31f0 	str.w	r3, [r7, #496]	; 0x1f0
  uint32_t result;

#if ((defined (__ARM_ARCH_7M__      ) && (__ARM_ARCH_7M__      == 1)) || \
     (defined (__ARM_ARCH_7EM__     ) && (__ARM_ARCH_7EM__     == 1)) || \
     (defined (__ARM_ARCH_8M_MAIN__ ) && (__ARM_ARCH_8M_MAIN__ == 1))    )
   __ASM volatile ("rbit %0, %1" : "=r" (result) : "r" (value) );
 8001b2c:	f8d7 31f0 	ldr.w	r3, [r7, #496]	; 0x1f0
 8001b30:	fa93 f3a3 	rbit	r3, r3
 8001b34:	f8c7 31ec 	str.w	r3, [r7, #492]	; 0x1ec
    result |= value & 1U;
    s--;
  }
  result <<= s;                        /* shift when v's highest bits are zero */
#endif
  return result;
 8001b38:	f8d7 31ec 	ldr.w	r3, [r7, #492]	; 0x1ec
    {
      if((__HAL_RCC_GET_FLAG(RCC_FLAG_HSERDY) != RESET) && (RCC_OscInitStruct->HSEState == RCC_HSE_OFF))
 8001b3c:	fab3 f383 	clz	r3, r3
 8001b40:	b2db      	uxtb	r3, r3
 8001b42:	095b      	lsrs	r3, r3, #5
 8001b44:	b2db      	uxtb	r3, r3
 8001b46:	f043 0301 	orr.w	r3, r3, #1
 8001b4a:	b2db      	uxtb	r3, r3
 8001b4c:	2b01      	cmp	r3, #1
 8001b4e:	d102      	bne.n	8001b56 <HAL_RCC_OscConfig+0x82>
 8001b50:	4b9e      	ldr	r3, [pc, #632]	; (8001dcc <HAL_RCC_OscConfig+0x2f8>)
 8001b52:	681b      	ldr	r3, [r3, #0]
 8001b54:	e015      	b.n	8001b82 <HAL_RCC_OscConfig+0xae>
 8001b56:	f44f 3300 	mov.w	r3, #131072	; 0x20000
 8001b5a:	f8c7 31e8 	str.w	r3, [r7, #488]	; 0x1e8
   __ASM volatile ("rbit %0, %1" : "=r" (result) : "r" (value) );
 8001b5e:	f8d7 31e8 	ldr.w	r3, [r7, #488]	; 0x1e8
 8001b62:	fa93 f3a3 	rbit	r3, r3
 8001b66:	f8c7 31e4 	str.w	r3, [r7, #484]	; 0x1e4
 8001b6a:	f44f 3300 	mov.w	r3, #131072	; 0x20000
 8001b6e:	f8c7 31e0 	str.w	r3, [r7, #480]	; 0x1e0
 8001b72:	f8d7 31e0 	ldr.w	r3, [r7, #480]	; 0x1e0
 8001b76:	fa93 f3a3 	rbit	r3, r3
 8001b7a:	f8c7 31dc 	str.w	r3, [r7, #476]	; 0x1dc
 8001b7e:	4b93      	ldr	r3, [pc, #588]	; (8001dcc <HAL_RCC_OscConfig+0x2f8>)
 8001b80:	6a5b      	ldr	r3, [r3, #36]	; 0x24
 8001b82:	f44f 3200 	mov.w	r2, #131072	; 0x20000
 8001b86:	f8c7 21d8 	str.w	r2, [r7, #472]	; 0x1d8
 8001b8a:	f8d7 21d8 	ldr.w	r2, [r7, #472]	; 0x1d8
 8001b8e:	fa92 f2a2 	rbit	r2, r2
 8001b92:	f8c7 21d4 	str.w	r2, [r7, #468]	; 0x1d4
  return result;
 8001b96:	f8d7 21d4 	ldr.w	r2, [r7, #468]	; 0x1d4
 8001b9a:	fab2 f282 	clz	r2, r2
 8001b9e:	b2d2      	uxtb	r2, r2
 8001ba0:	f042 0220 	orr.w	r2, r2, #32
 8001ba4:	b2d2      	uxtb	r2, r2
 8001ba6:	f002 021f 	and.w	r2, r2, #31
 8001baa:	2101      	movs	r1, #1
 8001bac:	fa01 f202 	lsl.w	r2, r1, r2
 8001bb0:	4013      	ands	r3, r2
 8001bb2:	2b00      	cmp	r3, #0
 8001bb4:	f000 810c 	beq.w	8001dd0 <HAL_RCC_OscConfig+0x2fc>
 8001bb8:	1d3b      	adds	r3, r7, #4
 8001bba:	681b      	ldr	r3, [r3, #0]
 8001bbc:	685b      	ldr	r3, [r3, #4]
 8001bbe:	2b00      	cmp	r3, #0
 8001bc0:	f040 8106 	bne.w	8001dd0 <HAL_RCC_OscConfig+0x2fc>
      {
        return HAL_ERROR;
 8001bc4:	2301      	movs	r3, #1
 8001bc6:	f000 be86 	b.w	80028d6 <HAL_RCC_OscConfig+0xe02>
      }
    }
    else
    {
      /* Set the new HSE configuration ---------------------------------------*/
      __HAL_RCC_HSE_CONFIG(RCC_OscInitStruct->HSEState);
 8001bca:	1d3b      	adds	r3, r7, #4
 8001bcc:	681b      	ldr	r3, [r3, #0]
 8001bce:	685b      	ldr	r3, [r3, #4]
 8001bd0:	f5b3 3f80 	cmp.w	r3, #65536	; 0x10000
 8001bd4:	d106      	bne.n	8001be4 <HAL_RCC_OscConfig+0x110>
 8001bd6:	4b7d      	ldr	r3, [pc, #500]	; (8001dcc <HAL_RCC_OscConfig+0x2f8>)
 8001bd8:	681b      	ldr	r3, [r3, #0]
 8001bda:	4a7c      	ldr	r2, [pc, #496]	; (8001dcc <HAL_RCC_OscConfig+0x2f8>)
 8001bdc:	f443 3380 	orr.w	r3, r3, #65536	; 0x10000
 8001be0:	6013      	str	r3, [r2, #0]
 8001be2:	e030      	b.n	8001c46 <HAL_RCC_OscConfig+0x172>
 8001be4:	1d3b      	adds	r3, r7, #4
 8001be6:	681b      	ldr	r3, [r3, #0]
 8001be8:	685b      	ldr	r3, [r3, #4]
 8001bea:	2b00      	cmp	r3, #0
 8001bec:	d10c      	bne.n	8001c08 <HAL_RCC_OscConfig+0x134>
 8001bee:	4b77      	ldr	r3, [pc, #476]	; (8001dcc <HAL_RCC_OscConfig+0x2f8>)
 8001bf0:	681b      	ldr	r3, [r3, #0]
 8001bf2:	4a76      	ldr	r2, [pc, #472]	; (8001dcc <HAL_RCC_OscConfig+0x2f8>)
 8001bf4:	f423 3380 	bic.w	r3, r3, #65536	; 0x10000
 8001bf8:	6013      	str	r3, [r2, #0]
 8001bfa:	4b74      	ldr	r3, [pc, #464]	; (8001dcc <HAL_RCC_OscConfig+0x2f8>)
 8001bfc:	681b      	ldr	r3, [r3, #0]
 8001bfe:	4a73      	ldr	r2, [pc, #460]	; (8001dcc <HAL_RCC_OscConfig+0x2f8>)
 8001c00:	f423 2380 	bic.w	r3, r3, #262144	; 0x40000
 8001c04:	6013      	str	r3, [r2, #0]
 8001c06:	e01e      	b.n	8001c46 <HAL_RCC_OscConfig+0x172>
 8001c08:	1d3b      	adds	r3, r7, #4
 8001c0a:	681b      	ldr	r3, [r3, #0]
 8001c0c:	685b      	ldr	r3, [r3, #4]
 8001c0e:	f5b3 2fa0 	cmp.w	r3, #327680	; 0x50000
 8001c12:	d10c      	bne.n	8001c2e <HAL_RCC_OscConfig+0x15a>
 8001c14:	4b6d      	ldr	r3, [pc, #436]	; (8001dcc <HAL_RCC_OscConfig+0x2f8>)
 8001c16:	681b      	ldr	r3, [r3, #0]
 8001c18:	4a6c      	ldr	r2, [pc, #432]	; (8001dcc <HAL_RCC_OscConfig+0x2f8>)
 8001c1a:	f443 2380 	orr.w	r3, r3, #262144	; 0x40000
 8001c1e:	6013      	str	r3, [r2, #0]
 8001c20:	4b6a      	ldr	r3, [pc, #424]	; (8001dcc <HAL_RCC_OscConfig+0x2f8>)
 8001c22:	681b      	ldr	r3, [r3, #0]
 8001c24:	4a69      	ldr	r2, [pc, #420]	; (8001dcc <HAL_RCC_OscConfig+0x2f8>)
 8001c26:	f443 3380 	orr.w	r3, r3, #65536	; 0x10000
 8001c2a:	6013      	str	r3, [r2, #0]
 8001c2c:	e00b      	b.n	8001c46 <HAL_RCC_OscConfig+0x172>
 8001c2e:	4b67      	ldr	r3, [pc, #412]	; (8001dcc <HAL_RCC_OscConfig+0x2f8>)
 8001c30:	681b      	ldr	r3, [r3, #0]
 8001c32:	4a66      	ldr	r2, [pc, #408]	; (8001dcc <HAL_RCC_OscConfig+0x2f8>)
 8001c34:	f423 3380 	bic.w	r3, r3, #65536	; 0x10000
 8001c38:	6013      	str	r3, [r2, #0]
 8001c3a:	4b64      	ldr	r3, [pc, #400]	; (8001dcc <HAL_RCC_OscConfig+0x2f8>)
 8001c3c:	681b      	ldr	r3, [r3, #0]
 8001c3e:	4a63      	ldr	r2, [pc, #396]	; (8001dcc <HAL_RCC_OscConfig+0x2f8>)
 8001c40:	f423 2380 	bic.w	r3, r3, #262144	; 0x40000
 8001c44:	6013      	str	r3, [r2, #0]
      
#if defined(RCC_CFGR_PLLSRC_HSI_DIV2)
      /* Configure the HSE predivision factor --------------------------------*/
      __HAL_RCC_HSE_PREDIV_CONFIG(RCC_OscInitStruct->HSEPredivValue);
 8001c46:	4b61      	ldr	r3, [pc, #388]	; (8001dcc <HAL_RCC_OscConfig+0x2f8>)
 8001c48:	6adb      	ldr	r3, [r3, #44]	; 0x2c
 8001c4a:	f023 020f 	bic.w	r2, r3, #15
 8001c4e:	1d3b      	adds	r3, r7, #4
 8001c50:	681b      	ldr	r3, [r3, #0]
 8001c52:	689b      	ldr	r3, [r3, #8]
 8001c54:	495d      	ldr	r1, [pc, #372]	; (8001dcc <HAL_RCC_OscConfig+0x2f8>)
 8001c56:	4313      	orrs	r3, r2
 8001c58:	62cb      	str	r3, [r1, #44]	; 0x2c
#endif /* RCC_CFGR_PLLSRC_HSI_DIV2 */

       /* Check the HSE State */
      if(RCC_OscInitStruct->HSEState != RCC_HSE_OFF)
 8001c5a:	1d3b      	adds	r3, r7, #4
 8001c5c:	681b      	ldr	r3, [r3, #0]
 8001c5e:	685b      	ldr	r3, [r3, #4]
 8001c60:	2b00      	cmp	r3, #0
 8001c62:	d059      	beq.n	8001d18 <HAL_RCC_OscConfig+0x244>
      {
        /* Get Start Tick */
        tickstart = HAL_GetTick();
 8001c64:	f7ff fb48 	bl	80012f8 <HAL_GetTick>
 8001c68:	f8c7 01f8 	str.w	r0, [r7, #504]	; 0x1f8
        
        /* Wait till HSE is ready */
        while(__HAL_RCC_GET_FLAG(RCC_FLAG_HSERDY) == RESET)
 8001c6c:	e00a      	b.n	8001c84 <HAL_RCC_OscConfig+0x1b0>
        {
          if((HAL_GetTick() - tickstart ) > HSE_TIMEOUT_VALUE)
 8001c6e:	f7ff fb43 	bl	80012f8 <HAL_GetTick>
 8001c72:	4602      	mov	r2, r0
 8001c74:	f8d7 31f8 	ldr.w	r3, [r7, #504]	; 0x1f8
 8001c78:	1ad3      	subs	r3, r2, r3
 8001c7a:	2b64      	cmp	r3, #100	; 0x64
 8001c7c:	d902      	bls.n	8001c84 <HAL_RCC_OscConfig+0x1b0>
          {
            return HAL_TIMEOUT;
 8001c7e:	2303      	movs	r3, #3
 8001c80:	f000 be29 	b.w	80028d6 <HAL_RCC_OscConfig+0xe02>
 8001c84:	f44f 3300 	mov.w	r3, #131072	; 0x20000
 8001c88:	f8c7 31d0 	str.w	r3, [r7, #464]	; 0x1d0
   __ASM volatile ("rbit %0, %1" : "=r" (result) : "r" (value) );
 8001c8c:	f8d7 31d0 	ldr.w	r3, [r7, #464]	; 0x1d0
 8001c90:	fa93 f3a3 	rbit	r3, r3
 8001c94:	f8c7 31cc 	str.w	r3, [r7, #460]	; 0x1cc
  return result;
 8001c98:	f8d7 31cc 	ldr.w	r3, [r7, #460]	; 0x1cc
        while(__HAL_RCC_GET_FLAG(RCC_FLAG_HSERDY) == RESET)
 8001c9c:	fab3 f383 	clz	r3, r3
 8001ca0:	b2db      	uxtb	r3, r3
 8001ca2:	095b      	lsrs	r3, r3, #5
 8001ca4:	b2db      	uxtb	r3, r3
 8001ca6:	f043 0301 	orr.w	r3, r3, #1
 8001caa:	b2db      	uxtb	r3, r3
 8001cac:	2b01      	cmp	r3, #1
 8001cae:	d102      	bne.n	8001cb6 <HAL_RCC_OscConfig+0x1e2>
 8001cb0:	4b46      	ldr	r3, [pc, #280]	; (8001dcc <HAL_RCC_OscConfig+0x2f8>)
 8001cb2:	681b      	ldr	r3, [r3, #0]
 8001cb4:	e015      	b.n	8001ce2 <HAL_RCC_OscConfig+0x20e>
 8001cb6:	f44f 3300 	mov.w	r3, #131072	; 0x20000
 8001cba:	f8c7 31c8 	str.w	r3, [r7, #456]	; 0x1c8
   __ASM volatile ("rbit %0, %1" : "=r" (result) : "r" (value) );
 8001cbe:	f8d7 31c8 	ldr.w	r3, [r7, #456]	; 0x1c8
 8001cc2:	fa93 f3a3 	rbit	r3, r3
 8001cc6:	f8c7 31c4 	str.w	r3, [r7, #452]	; 0x1c4
 8001cca:	f44f 3300 	mov.w	r3, #131072	; 0x20000
 8001cce:	f8c7 31c0 	str.w	r3, [r7, #448]	; 0x1c0
 8001cd2:	f8d7 31c0 	ldr.w	r3, [r7, #448]	; 0x1c0
 8001cd6:	fa93 f3a3 	rbit	r3, r3
 8001cda:	f8c7 31bc 	str.w	r3, [r7, #444]	; 0x1bc
 8001cde:	4b3b      	ldr	r3, [pc, #236]	; (8001dcc <HAL_RCC_OscConfig+0x2f8>)
 8001ce0:	6a5b      	ldr	r3, [r3, #36]	; 0x24
 8001ce2:	f44f 3200 	mov.w	r2, #131072	; 0x20000
 8001ce6:	f8c7 21b8 	str.w	r2, [r7, #440]	; 0x1b8
 8001cea:	f8d7 21b8 	ldr.w	r2, [r7, #440]	; 0x1b8
 8001cee:	fa92 f2a2 	rbit	r2, r2
 8001cf2:	f8c7 21b4 	str.w	r2, [r7, #436]	; 0x1b4
  return result;
 8001cf6:	f8d7 21b4 	ldr.w	r2, [r7, #436]	; 0x1b4
 8001cfa:	fab2 f282 	clz	r2, r2
 8001cfe:	b2d2      	uxtb	r2, r2
 8001d00:	f042 0220 	orr.w	r2, r2, #32
 8001d04:	b2d2      	uxtb	r2, r2
 8001d06:	f002 021f 	and.w	r2, r2, #31
 8001d0a:	2101      	movs	r1, #1
 8001d0c:	fa01 f202 	lsl.w	r2, r1, r2
 8001d10:	4013      	ands	r3, r2
 8001d12:	2b00      	cmp	r3, #0
 8001d14:	d0ab      	beq.n	8001c6e <HAL_RCC_OscConfig+0x19a>
 8001d16:	e05c      	b.n	8001dd2 <HAL_RCC_OscConfig+0x2fe>
        }
      }
      else
      {
        /* Get Start Tick */
        tickstart = HAL_GetTick();
 8001d18:	f7ff faee 	bl	80012f8 <HAL_GetTick>
 8001d1c:	f8c7 01f8 	str.w	r0, [r7, #504]	; 0x1f8
        
        /* Wait till HSE is disabled */
        while(__HAL_RCC_GET_FLAG(RCC_FLAG_HSERDY) != RESET)
 8001d20:	e00a      	b.n	8001d38 <HAL_RCC_OscConfig+0x264>
        {
           if((HAL_GetTick() - tickstart ) > HSE_TIMEOUT_VALUE)
 8001d22:	f7ff fae9 	bl	80012f8 <HAL_GetTick>
 8001d26:	4602      	mov	r2, r0
 8001d28:	f8d7 31f8 	ldr.w	r3, [r7, #504]	; 0x1f8
 8001d2c:	1ad3      	subs	r3, r2, r3
 8001d2e:	2b64      	cmp	r3, #100	; 0x64
 8001d30:	d902      	bls.n	8001d38 <HAL_RCC_OscConfig+0x264>
          {
            return HAL_TIMEOUT;
 8001d32:	2303      	movs	r3, #3
 8001d34:	f000 bdcf 	b.w	80028d6 <HAL_RCC_OscConfig+0xe02>
 8001d38:	f44f 3300 	mov.w	r3, #131072	; 0x20000
 8001d3c:	f8c7 31b0 	str.w	r3, [r7, #432]	; 0x1b0
   __ASM volatile ("rbit %0, %1" : "=r" (result) : "r" (value) );
 8001d40:	f8d7 31b0 	ldr.w	r3, [r7, #432]	; 0x1b0
 8001d44:	fa93 f3a3 	rbit	r3, r3
 8001d48:	f8c7 31ac 	str.w	r3, [r7, #428]	; 0x1ac
  return result;
 8001d4c:	f8d7 31ac 	ldr.w	r3, [r7, #428]	; 0x1ac
        while(__HAL_RCC_GET_FLAG(RCC_FLAG_HSERDY) != RESET)
 8001d50:	fab3 f383 	clz	r3, r3
 8001d54:	b2db      	uxtb	r3, r3
 8001d56:	095b      	lsrs	r3, r3, #5
 8001d58:	b2db      	uxtb	r3, r3
 8001d5a:	f043 0301 	orr.w	r3, r3, #1
 8001d5e:	b2db      	uxtb	r3, r3
 8001d60:	2b01      	cmp	r3, #1
 8001d62:	d102      	bne.n	8001d6a <HAL_RCC_OscConfig+0x296>
 8001d64:	4b19      	ldr	r3, [pc, #100]	; (8001dcc <HAL_RCC_OscConfig+0x2f8>)
 8001d66:	681b      	ldr	r3, [r3, #0]
 8001d68:	e015      	b.n	8001d96 <HAL_RCC_OscConfig+0x2c2>
 8001d6a:	f44f 3300 	mov.w	r3, #131072	; 0x20000
 8001d6e:	f8c7 31a8 	str.w	r3, [r7, #424]	; 0x1a8
   __ASM volatile ("rbit %0, %1" : "=r" (result) : "r" (value) );
 8001d72:	f8d7 31a8 	ldr.w	r3, [r7, #424]	; 0x1a8
 8001d76:	fa93 f3a3 	rbit	r3, r3
 8001d7a:	f8c7 31a4 	str.w	r3, [r7, #420]	; 0x1a4
 8001d7e:	f44f 3300 	mov.w	r3, #131072	; 0x20000
 8001d82:	f8c7 31a0 	str.w	r3, [r7, #416]	; 0x1a0
 8001d86:	f8d7 31a0 	ldr.w	r3, [r7, #416]	; 0x1a0
 8001d8a:	fa93 f3a3 	rbit	r3, r3
 8001d8e:	f8c7 319c 	str.w	r3, [r7, #412]	; 0x19c
 8001d92:	4b0e      	ldr	r3, [pc, #56]	; (8001dcc <HAL_RCC_OscConfig+0x2f8>)
 8001d94:	6a5b      	ldr	r3, [r3, #36]	; 0x24
 8001d96:	f44f 3200 	mov.w	r2, #131072	; 0x20000
 8001d9a:	f8c7 2198 	str.w	r2, [r7, #408]	; 0x198
 8001d9e:	f8d7 2198 	ldr.w	r2, [r7, #408]	; 0x198
 8001da2:	fa92 f2a2 	rbit	r2, r2
 8001da6:	f8c7 2194 	str.w	r2, [r7, #404]	; 0x194
  return result;
 8001daa:	f8d7 2194 	ldr.w	r2, [r7, #404]	; 0x194
 8001dae:	fab2 f282 	clz	r2, r2
 8001db2:	b2d2      	uxtb	r2, r2
 8001db4:	f042 0220 	orr.w	r2, r2, #32
 8001db8:	b2d2      	uxtb	r2, r2
 8001dba:	f002 021f 	and.w	r2, r2, #31
 8001dbe:	2101      	movs	r1, #1
 8001dc0:	fa01 f202 	lsl.w	r2, r1, r2
 8001dc4:	4013      	ands	r3, r2
 8001dc6:	2b00      	cmp	r3, #0
 8001dc8:	d1ab      	bne.n	8001d22 <HAL_RCC_OscConfig+0x24e>
 8001dca:	e002      	b.n	8001dd2 <HAL_RCC_OscConfig+0x2fe>
 8001dcc:	40021000 	.word	0x40021000
      if((__HAL_RCC_GET_FLAG(RCC_FLAG_HSERDY) != RESET) && (RCC_OscInitStruct->HSEState == RCC_HSE_OFF))
 8001dd0:	bf00      	nop
        }
      }
    }
  }
  /*----------------------------- HSI Configuration --------------------------*/ 
  if(((RCC_OscInitStruct->OscillatorType) & RCC_OSCILLATORTYPE_HSI) == RCC_OSCILLATORTYPE_HSI)
 8001dd2:	1d3b      	adds	r3, r7, #4
 8001dd4:	681b      	ldr	r3, [r3, #0]
 8001dd6:	681b      	ldr	r3, [r3, #0]
 8001dd8:	f003 0302 	and.w	r3, r3, #2
 8001ddc:	2b00      	cmp	r3, #0
 8001dde:	f000 816f 	beq.w	80020c0 <HAL_RCC_OscConfig+0x5ec>
    /* Check the parameters */
    assert_param(IS_RCC_HSI(RCC_OscInitStruct->HSIState));
    assert_param(IS_RCC_CALIBRATION_VALUE(RCC_OscInitStruct->HSICalibrationValue));
    
    /* Check if HSI is used as system clock or as PLL source when PLL is selected as system clock */ 
    if((__HAL_RCC_GET_SYSCLK_SOURCE() == RCC_SYSCLKSOURCE_STATUS_HSI) 
 8001de2:	4bd0      	ldr	r3, [pc, #832]	; (8002124 <HAL_RCC_OscConfig+0x650>)
 8001de4:	685b      	ldr	r3, [r3, #4]
 8001de6:	f003 030c 	and.w	r3, r3, #12
 8001dea:	2b00      	cmp	r3, #0
 8001dec:	d00b      	beq.n	8001e06 <HAL_RCC_OscConfig+0x332>
       || ((__HAL_RCC_GET_SYSCLK_SOURCE() == RCC_SYSCLKSOURCE_STATUS_PLLCLK) && (__HAL_RCC_GET_PLL_OSCSOURCE() == RCC_PLLSOURCE_HSI)))
 8001dee:	4bcd      	ldr	r3, [pc, #820]	; (8002124 <HAL_RCC_OscConfig+0x650>)
 8001df0:	685b      	ldr	r3, [r3, #4]
 8001df2:	f003 030c 	and.w	r3, r3, #12
 8001df6:	2b08      	cmp	r3, #8
 8001df8:	d16c      	bne.n	8001ed4 <HAL_RCC_OscConfig+0x400>
 8001dfa:	4bca      	ldr	r3, [pc, #808]	; (8002124 <HAL_RCC_OscConfig+0x650>)
 8001dfc:	685b      	ldr	r3, [r3, #4]
 8001dfe:	f403 3380 	and.w	r3, r3, #65536	; 0x10000
 8001e02:	2b00      	cmp	r3, #0
 8001e04:	d166      	bne.n	8001ed4 <HAL_RCC_OscConfig+0x400>
 8001e06:	2302      	movs	r3, #2
 8001e08:	f8c7 3190 	str.w	r3, [r7, #400]	; 0x190
   __ASM volatile ("rbit %0, %1" : "=r" (result) : "r" (value) );
 8001e0c:	f8d7 3190 	ldr.w	r3, [r7, #400]	; 0x190
 8001e10:	fa93 f3a3 	rbit	r3, r3
 8001e14:	f8c7 318c 	str.w	r3, [r7, #396]	; 0x18c
  return result;
 8001e18:	f8d7 318c 	ldr.w	r3, [r7, #396]	; 0x18c
    {
      /* When HSI is used as system clock it will not disabled */
      if((__HAL_RCC_GET_FLAG(RCC_FLAG_HSIRDY) != RESET) && (RCC_OscInitStruct->HSIState != RCC_HSI_ON))
 8001e1c:	fab3 f383 	clz	r3, r3
 8001e20:	b2db      	uxtb	r3, r3
 8001e22:	095b      	lsrs	r3, r3, #5
 8001e24:	b2db      	uxtb	r3, r3
 8001e26:	f043 0301 	orr.w	r3, r3, #1
 8001e2a:	b2db      	uxtb	r3, r3
 8001e2c:	2b01      	cmp	r3, #1
 8001e2e:	d102      	bne.n	8001e36 <HAL_RCC_OscConfig+0x362>
 8001e30:	4bbc      	ldr	r3, [pc, #752]	; (8002124 <HAL_RCC_OscConfig+0x650>)
 8001e32:	681b      	ldr	r3, [r3, #0]
 8001e34:	e013      	b.n	8001e5e <HAL_RCC_OscConfig+0x38a>
 8001e36:	2302      	movs	r3, #2
 8001e38:	f8c7 3188 	str.w	r3, [r7, #392]	; 0x188
   __ASM volatile ("rbit %0, %1" : "=r" (result) : "r" (value) );
 8001e3c:	f8d7 3188 	ldr.w	r3, [r7, #392]	; 0x188
 8001e40:	fa93 f3a3 	rbit	r3, r3
 8001e44:	f8c7 3184 	str.w	r3, [r7, #388]	; 0x184
 8001e48:	2302      	movs	r3, #2
 8001e4a:	f8c7 3180 	str.w	r3, [r7, #384]	; 0x180
 8001e4e:	f8d7 3180 	ldr.w	r3, [r7, #384]	; 0x180
 8001e52:	fa93 f3a3 	rbit	r3, r3
 8001e56:	f8c7 317c 	str.w	r3, [r7, #380]	; 0x17c
 8001e5a:	4bb2      	ldr	r3, [pc, #712]	; (8002124 <HAL_RCC_OscConfig+0x650>)
 8001e5c:	6a5b      	ldr	r3, [r3, #36]	; 0x24
 8001e5e:	2202      	movs	r2, #2
 8001e60:	f8c7 2178 	str.w	r2, [r7, #376]	; 0x178
 8001e64:	f8d7 2178 	ldr.w	r2, [r7, #376]	; 0x178
 8001e68:	fa92 f2a2 	rbit	r2, r2
 8001e6c:	f8c7 2174 	str.w	r2, [r7, #372]	; 0x174
  return result;
 8001e70:	f8d7 2174 	ldr.w	r2, [r7, #372]	; 0x174
 8001e74:	fab2 f282 	clz	r2, r2
 8001e78:	b2d2      	uxtb	r2, r2
 8001e7a:	f042 0220 	orr.w	r2, r2, #32
 8001e7e:	b2d2      	uxtb	r2, r2
 8001e80:	f002 021f 	and.w	r2, r2, #31
 8001e84:	2101      	movs	r1, #1
 8001e86:	fa01 f202 	lsl.w	r2, r1, r2
 8001e8a:	4013      	ands	r3, r2
 8001e8c:	2b00      	cmp	r3, #0
 8001e8e:	d007      	beq.n	8001ea0 <HAL_RCC_OscConfig+0x3cc>
 8001e90:	1d3b      	adds	r3, r7, #4
 8001e92:	681b      	ldr	r3, [r3, #0]
 8001e94:	691b      	ldr	r3, [r3, #16]
 8001e96:	2b01      	cmp	r3, #1
 8001e98:	d002      	beq.n	8001ea0 <HAL_RCC_OscConfig+0x3cc>
      {
        return HAL_ERROR;
 8001e9a:	2301      	movs	r3, #1
 8001e9c:	f000 bd1b 	b.w	80028d6 <HAL_RCC_OscConfig+0xe02>
      }
      /* Otherwise, just the calibration is allowed */
      else
      {
        /* Adjusts the Internal High Speed oscillator (HSI) calibration value.*/
        __HAL_RCC_HSI_CALIBRATIONVALUE_ADJUST(RCC_OscInitStruct->HSICalibrationValue);
 8001ea0:	4ba0      	ldr	r3, [pc, #640]	; (8002124 <HAL_RCC_OscConfig+0x650>)
 8001ea2:	681b      	ldr	r3, [r3, #0]
 8001ea4:	f023 02f8 	bic.w	r2, r3, #248	; 0xf8
 8001ea8:	1d3b      	adds	r3, r7, #4
 8001eaa:	681b      	ldr	r3, [r3, #0]
 8001eac:	695b      	ldr	r3, [r3, #20]
 8001eae:	21f8      	movs	r1, #248	; 0xf8
 8001eb0:	f8c7 1170 	str.w	r1, [r7, #368]	; 0x170
   __ASM volatile ("rbit %0, %1" : "=r" (result) : "r" (value) );
 8001eb4:	f8d7 1170 	ldr.w	r1, [r7, #368]	; 0x170
 8001eb8:	fa91 f1a1 	rbit	r1, r1
 8001ebc:	f8c7 116c 	str.w	r1, [r7, #364]	; 0x16c
  return result;
 8001ec0:	f8d7 116c 	ldr.w	r1, [r7, #364]	; 0x16c
 8001ec4:	fab1 f181 	clz	r1, r1
 8001ec8:	b2c9      	uxtb	r1, r1
 8001eca:	408b      	lsls	r3, r1
 8001ecc:	4995      	ldr	r1, [pc, #596]	; (8002124 <HAL_RCC_OscConfig+0x650>)
 8001ece:	4313      	orrs	r3, r2
 8001ed0:	600b      	str	r3, [r1, #0]
      if((__HAL_RCC_GET_FLAG(RCC_FLAG_HSIRDY) != RESET) && (RCC_OscInitStruct->HSIState != RCC_HSI_ON))
 8001ed2:	e0f5      	b.n	80020c0 <HAL_RCC_OscConfig+0x5ec>
      }
    }
    else
    {
      /* Check the HSI State */
      if(RCC_OscInitStruct->HSIState != RCC_HSI_OFF)
 8001ed4:	1d3b      	adds	r3, r7, #4
 8001ed6:	681b      	ldr	r3, [r3, #0]
 8001ed8:	691b      	ldr	r3, [r3, #16]
 8001eda:	2b00      	cmp	r3, #0
 8001edc:	f000 8085 	beq.w	8001fea <HAL_RCC_OscConfig+0x516>
 8001ee0:	2301      	movs	r3, #1
 8001ee2:	f8c7 3168 	str.w	r3, [r7, #360]	; 0x168
   __ASM volatile ("rbit %0, %1" : "=r" (result) : "r" (value) );
 8001ee6:	f8d7 3168 	ldr.w	r3, [r7, #360]	; 0x168
 8001eea:	fa93 f3a3 	rbit	r3, r3
 8001eee:	f8c7 3164 	str.w	r3, [r7, #356]	; 0x164
  return result;
 8001ef2:	f8d7 3164 	ldr.w	r3, [r7, #356]	; 0x164
      {
       /* Enable the Internal High Speed oscillator (HSI). */
        __HAL_RCC_HSI_ENABLE();
 8001ef6:	fab3 f383 	clz	r3, r3
 8001efa:	b2db      	uxtb	r3, r3
 8001efc:	f103 5384 	add.w	r3, r3, #276824064	; 0x10800000
 8001f00:	f503 1384 	add.w	r3, r3, #1081344	; 0x108000
 8001f04:	009b      	lsls	r3, r3, #2
 8001f06:	461a      	mov	r2, r3
 8001f08:	2301      	movs	r3, #1
 8001f0a:	6013      	str	r3, [r2, #0]
        
        /* Get Start Tick */
        tickstart = HAL_GetTick();
 8001f0c:	f7ff f9f4 	bl	80012f8 <HAL_GetTick>
 8001f10:	f8c7 01f8 	str.w	r0, [r7, #504]	; 0x1f8
        
        /* Wait till HSI is ready */
        while(__HAL_RCC_GET_FLAG(RCC_FLAG_HSIRDY) == RESET)
 8001f14:	e00a      	b.n	8001f2c <HAL_RCC_OscConfig+0x458>
        {
          if((HAL_GetTick() - tickstart ) > HSI_TIMEOUT_VALUE)
 8001f16:	f7ff f9ef 	bl	80012f8 <HAL_GetTick>
 8001f1a:	4602      	mov	r2, r0
 8001f1c:	f8d7 31f8 	ldr.w	r3, [r7, #504]	; 0x1f8
 8001f20:	1ad3      	subs	r3, r2, r3
 8001f22:	2b02      	cmp	r3, #2
 8001f24:	d902      	bls.n	8001f2c <HAL_RCC_OscConfig+0x458>
          {
            return HAL_TIMEOUT;
 8001f26:	2303      	movs	r3, #3
 8001f28:	f000 bcd5 	b.w	80028d6 <HAL_RCC_OscConfig+0xe02>
 8001f2c:	2302      	movs	r3, #2
 8001f2e:	f8c7 3160 	str.w	r3, [r7, #352]	; 0x160
   __ASM volatile ("rbit %0, %1" : "=r" (result) : "r" (value) );
 8001f32:	f8d7 3160 	ldr.w	r3, [r7, #352]	; 0x160
 8001f36:	fa93 f3a3 	rbit	r3, r3
 8001f3a:	f8c7 315c 	str.w	r3, [r7, #348]	; 0x15c
  return result;
 8001f3e:	f8d7 315c 	ldr.w	r3, [r7, #348]	; 0x15c
        while(__HAL_RCC_GET_FLAG(RCC_FLAG_HSIRDY) == RESET)
 8001f42:	fab3 f383 	clz	r3, r3
 8001f46:	b2db      	uxtb	r3, r3
 8001f48:	095b      	lsrs	r3, r3, #5
 8001f4a:	b2db      	uxtb	r3, r3
 8001f4c:	f043 0301 	orr.w	r3, r3, #1
 8001f50:	b2db      	uxtb	r3, r3
 8001f52:	2b01      	cmp	r3, #1
 8001f54:	d102      	bne.n	8001f5c <HAL_RCC_OscConfig+0x488>
 8001f56:	4b73      	ldr	r3, [pc, #460]	; (8002124 <HAL_RCC_OscConfig+0x650>)
 8001f58:	681b      	ldr	r3, [r3, #0]
 8001f5a:	e013      	b.n	8001f84 <HAL_RCC_OscConfig+0x4b0>
 8001f5c:	2302      	movs	r3, #2
 8001f5e:	f8c7 3158 	str.w	r3, [r7, #344]	; 0x158
   __ASM volatile ("rbit %0, %1" : "=r" (result) : "r" (value) );
 8001f62:	f8d7 3158 	ldr.w	r3, [r7, #344]	; 0x158
 8001f66:	fa93 f3a3 	rbit	r3, r3
 8001f6a:	f8c7 3154 	str.w	r3, [r7, #340]	; 0x154
 8001f6e:	2302      	movs	r3, #2
 8001f70:	f8c7 3150 	str.w	r3, [r7, #336]	; 0x150
 8001f74:	f8d7 3150 	ldr.w	r3, [r7, #336]	; 0x150
 8001f78:	fa93 f3a3 	rbit	r3, r3
 8001f7c:	f8c7 314c 	str.w	r3, [r7, #332]	; 0x14c
 8001f80:	4b68      	ldr	r3, [pc, #416]	; (8002124 <HAL_RCC_OscConfig+0x650>)
 8001f82:	6a5b      	ldr	r3, [r3, #36]	; 0x24
 8001f84:	2202      	movs	r2, #2
 8001f86:	f8c7 2148 	str.w	r2, [r7, #328]	; 0x148
 8001f8a:	f8d7 2148 	ldr.w	r2, [r7, #328]	; 0x148
 8001f8e:	fa92 f2a2 	rbit	r2, r2
 8001f92:	f8c7 2144 	str.w	r2, [r7, #324]	; 0x144
  return result;
 8001f96:	f8d7 2144 	ldr.w	r2, [r7, #324]	; 0x144
 8001f9a:	fab2 f282 	clz	r2, r2
 8001f9e:	b2d2      	uxtb	r2, r2
 8001fa0:	f042 0220 	orr.w	r2, r2, #32
 8001fa4:	b2d2      	uxtb	r2, r2
 8001fa6:	f002 021f 	and.w	r2, r2, #31
 8001faa:	2101      	movs	r1, #1
 8001fac:	fa01 f202 	lsl.w	r2, r1, r2
 8001fb0:	4013      	ands	r3, r2
 8001fb2:	2b00      	cmp	r3, #0
 8001fb4:	d0af      	beq.n	8001f16 <HAL_RCC_OscConfig+0x442>
          }
        }
                
        /* Adjusts the Internal High Speed oscillator (HSI) calibration value.*/
        __HAL_RCC_HSI_CALIBRATIONVALUE_ADJUST(RCC_OscInitStruct->HSICalibrationValue);
 8001fb6:	4b5b      	ldr	r3, [pc, #364]	; (8002124 <HAL_RCC_OscConfig+0x650>)
 8001fb8:	681b      	ldr	r3, [r3, #0]
 8001fba:	f023 02f8 	bic.w	r2, r3, #248	; 0xf8
 8001fbe:	1d3b      	adds	r3, r7, #4
 8001fc0:	681b      	ldr	r3, [r3, #0]
 8001fc2:	695b      	ldr	r3, [r3, #20]
 8001fc4:	21f8      	movs	r1, #248	; 0xf8
 8001fc6:	f8c7 1140 	str.w	r1, [r7, #320]	; 0x140
   __ASM volatile ("rbit %0, %1" : "=r" (result) : "r" (value) );
 8001fca:	f8d7 1140 	ldr.w	r1, [r7, #320]	; 0x140
 8001fce:	fa91 f1a1 	rbit	r1, r1
 8001fd2:	f8c7 113c 	str.w	r1, [r7, #316]	; 0x13c
  return result;
 8001fd6:	f8d7 113c 	ldr.w	r1, [r7, #316]	; 0x13c
 8001fda:	fab1 f181 	clz	r1, r1
 8001fde:	b2c9      	uxtb	r1, r1
 8001fe0:	408b      	lsls	r3, r1
 8001fe2:	4950      	ldr	r1, [pc, #320]	; (8002124 <HAL_RCC_OscConfig+0x650>)
 8001fe4:	4313      	orrs	r3, r2
 8001fe6:	600b      	str	r3, [r1, #0]
 8001fe8:	e06a      	b.n	80020c0 <HAL_RCC_OscConfig+0x5ec>
 8001fea:	2301      	movs	r3, #1
 8001fec:	f8c7 3138 	str.w	r3, [r7, #312]	; 0x138
   __ASM volatile ("rbit %0, %1" : "=r" (result) : "r" (value) );
 8001ff0:	f8d7 3138 	ldr.w	r3, [r7, #312]	; 0x138
 8001ff4:	fa93 f3a3 	rbit	r3, r3
 8001ff8:	f8c7 3134 	str.w	r3, [r7, #308]	; 0x134
  return result;
 8001ffc:	f8d7 3134 	ldr.w	r3, [r7, #308]	; 0x134
      }
      else
      {
        /* Disable the Internal High Speed oscillator (HSI). */
        __HAL_RCC_HSI_DISABLE();
 8002000:	fab3 f383 	clz	r3, r3
 8002004:	b2db      	uxtb	r3, r3
 8002006:	f103 5384 	add.w	r3, r3, #276824064	; 0x10800000
 800200a:	f503 1384 	add.w	r3, r3, #1081344	; 0x108000
 800200e:	009b      	lsls	r3, r3, #2
 8002010:	461a      	mov	r2, r3
 8002012:	2300      	movs	r3, #0
 8002014:	6013      	str	r3, [r2, #0]
        
        /* Get Start Tick */
        tickstart = HAL_GetTick();
 8002016:	f7ff f96f 	bl	80012f8 <HAL_GetTick>
 800201a:	f8c7 01f8 	str.w	r0, [r7, #504]	; 0x1f8
        
        /* Wait till HSI is disabled */
        while(__HAL_RCC_GET_FLAG(RCC_FLAG_HSIRDY) != RESET)
 800201e:	e00a      	b.n	8002036 <HAL_RCC_OscConfig+0x562>
        {
          if((HAL_GetTick() - tickstart ) > HSI_TIMEOUT_VALUE)
 8002020:	f7ff f96a 	bl	80012f8 <HAL_GetTick>
 8002024:	4602      	mov	r2, r0
 8002026:	f8d7 31f8 	ldr.w	r3, [r7, #504]	; 0x1f8
 800202a:	1ad3      	subs	r3, r2, r3
 800202c:	2b02      	cmp	r3, #2
 800202e:	d902      	bls.n	8002036 <HAL_RCC_OscConfig+0x562>
          {
            return HAL_TIMEOUT;
 8002030:	2303      	movs	r3, #3
 8002032:	f000 bc50 	b.w	80028d6 <HAL_RCC_OscConfig+0xe02>
 8002036:	2302      	movs	r3, #2
 8002038:	f8c7 3130 	str.w	r3, [r7, #304]	; 0x130
   __ASM volatile ("rbit %0, %1" : "=r" (result) : "r" (value) );
 800203c:	f8d7 3130 	ldr.w	r3, [r7, #304]	; 0x130
 8002040:	fa93 f3a3 	rbit	r3, r3
 8002044:	f8c7 312c 	str.w	r3, [r7, #300]	; 0x12c
  return result;
 8002048:	f8d7 312c 	ldr.w	r3, [r7, #300]	; 0x12c
        while(__HAL_RCC_GET_FLAG(RCC_FLAG_HSIRDY) != RESET)
 800204c:	fab3 f383 	clz	r3, r3
 8002050:	b2db      	uxtb	r3, r3
 8002052:	095b      	lsrs	r3, r3, #5
 8002054:	b2db      	uxtb	r3, r3
 8002056:	f043 0301 	orr.w	r3, r3, #1
 800205a:	b2db      	uxtb	r3, r3
 800205c:	2b01      	cmp	r3, #1
 800205e:	d102      	bne.n	8002066 <HAL_RCC_OscConfig+0x592>
 8002060:	4b30      	ldr	r3, [pc, #192]	; (8002124 <HAL_RCC_OscConfig+0x650>)
 8002062:	681b      	ldr	r3, [r3, #0]
 8002064:	e013      	b.n	800208e <HAL_RCC_OscConfig+0x5ba>
 8002066:	2302      	movs	r3, #2
 8002068:	f8c7 3128 	str.w	r3, [r7, #296]	; 0x128
   __ASM volatile ("rbit %0, %1" : "=r" (result) : "r" (value) );
 800206c:	f8d7 3128 	ldr.w	r3, [r7, #296]	; 0x128
 8002070:	fa93 f3a3 	rbit	r3, r3
 8002074:	f8c7 3124 	str.w	r3, [r7, #292]	; 0x124
 8002078:	2302      	movs	r3, #2
 800207a:	f8c7 3120 	str.w	r3, [r7, #288]	; 0x120
 800207e:	f8d7 3120 	ldr.w	r3, [r7, #288]	; 0x120
 8002082:	fa93 f3a3 	rbit	r3, r3
 8002086:	f8c7 311c 	str.w	r3, [r7, #284]	; 0x11c
 800208a:	4b26      	ldr	r3, [pc, #152]	; (8002124 <HAL_RCC_OscConfig+0x650>)
 800208c:	6a5b      	ldr	r3, [r3, #36]	; 0x24
 800208e:	2202      	movs	r2, #2
 8002090:	f8c7 2118 	str.w	r2, [r7, #280]	; 0x118
 8002094:	f8d7 2118 	ldr.w	r2, [r7, #280]	; 0x118
 8002098:	fa92 f2a2 	rbit	r2, r2
 800209c:	f8c7 2114 	str.w	r2, [r7, #276]	; 0x114
  return result;
 80020a0:	f8d7 2114 	ldr.w	r2, [r7, #276]	; 0x114
 80020a4:	fab2 f282 	clz	r2, r2
 80020a8:	b2d2      	uxtb	r2, r2
 80020aa:	f042 0220 	orr.w	r2, r2, #32
 80020ae:	b2d2      	uxtb	r2, r2
 80020b0:	f002 021f 	and.w	r2, r2, #31
 80020b4:	2101      	movs	r1, #1
 80020b6:	fa01 f202 	lsl.w	r2, r1, r2
 80020ba:	4013      	ands	r3, r2
 80020bc:	2b00      	cmp	r3, #0
 80020be:	d1af      	bne.n	8002020 <HAL_RCC_OscConfig+0x54c>
        }
      }
    }
  }
  /*------------------------------ LSI Configuration -------------------------*/ 
  if(((RCC_OscInitStruct->OscillatorType) & RCC_OSCILLATORTYPE_LSI) == RCC_OSCILLATORTYPE_LSI)
 80020c0:	1d3b      	adds	r3, r7, #4
 80020c2:	681b      	ldr	r3, [r3, #0]
 80020c4:	681b      	ldr	r3, [r3, #0]
 80020c6:	f003 0308 	and.w	r3, r3, #8
 80020ca:	2b00      	cmp	r3, #0
 80020cc:	f000 80da 	beq.w	8002284 <HAL_RCC_OscConfig+0x7b0>
  {
    /* Check the parameters */
    assert_param(IS_RCC_LSI(RCC_OscInitStruct->LSIState));
    
    /* Check the LSI State */
    if(RCC_OscInitStruct->LSIState != RCC_LSI_OFF)
 80020d0:	1d3b      	adds	r3, r7, #4
 80020d2:	681b      	ldr	r3, [r3, #0]
 80020d4:	699b      	ldr	r3, [r3, #24]
 80020d6:	2b00      	cmp	r3, #0
 80020d8:	d069      	beq.n	80021ae <HAL_RCC_OscConfig+0x6da>
 80020da:	2301      	movs	r3, #1
 80020dc:	f8c7 3110 	str.w	r3, [r7, #272]	; 0x110
   __ASM volatile ("rbit %0, %1" : "=r" (result) : "r" (value) );
 80020e0:	f8d7 3110 	ldr.w	r3, [r7, #272]	; 0x110
 80020e4:	fa93 f3a3 	rbit	r3, r3
 80020e8:	f8c7 310c 	str.w	r3, [r7, #268]	; 0x10c
  return result;
 80020ec:	f8d7 310c 	ldr.w	r3, [r7, #268]	; 0x10c
    {
      /* Enable the Internal Low Speed oscillator (LSI). */
      __HAL_RCC_LSI_ENABLE();
 80020f0:	fab3 f383 	clz	r3, r3
 80020f4:	b2db      	uxtb	r3, r3
 80020f6:	461a      	mov	r2, r3
 80020f8:	4b0b      	ldr	r3, [pc, #44]	; (8002128 <HAL_RCC_OscConfig+0x654>)
 80020fa:	4413      	add	r3, r2
 80020fc:	009b      	lsls	r3, r3, #2
 80020fe:	461a      	mov	r2, r3
 8002100:	2301      	movs	r3, #1
 8002102:	6013      	str	r3, [r2, #0]
      
      /* Get Start Tick */
      tickstart = HAL_GetTick();
 8002104:	f7ff f8f8 	bl	80012f8 <HAL_GetTick>
 8002108:	f8c7 01f8 	str.w	r0, [r7, #504]	; 0x1f8
      
      /* Wait till LSI is ready */  
